{
  "address": "0x02A5C44cd43f465Fc58418df532aabFEFF61d230",
  "abi": [
    {
      "inputs": [
        {
          "internalType": "contract BaseRegistrarImplementation",
          "name": "_base",
          "type": "address"
        },
        {
          "internalType": "contract IPriceOracle",
          "name": "_prices",
          "type": "address"
        },
        {
          "internalType": "uint256",
          "name": "_minCommitmentAge",
          "type": "uint256"
        },
        {
          "internalType": "uint256",
          "name": "_maxCommitmentAge",
          "type": "uint256"
        },
        {
          "internalType": "contract ReverseRegistrar",
          "name": "_reverseRegistrar",
          "type": "address"
        },
        {
          "internalType": "contract INameWrapper",
          "name": "_nameWrapper",
          "type": "address"
        },
        {
          "internalType": "contract ENS",
          "name": "_ens",
          "type": "address"
        },
        {
          "internalType": "contract JNSAdminContract",
          "name": "_jnsAdmin",
          "type": "address"
        }
      ],
      "stateMutability": "nonpayable",
      "type": "constructor"
    },
    {
      "inputs": [
        {
          "internalType": "bytes32",
          "name": "commitment",
          "type": "bytes32"
        }
      ],
      "name": "CommitmentTooNew",
      "type": "error"
    },
    {
      "inputs": [
        {
          "internalType": "bytes32",
          "name": "commitment",
          "type": "bytes32"
        }
      ],
      "name": "CommitmentTooOld",
      "type": "error"
    },
    {
      "inputs": [
        {
          "internalType": "uint256",
          "name": "duration",
          "type": "uint256"
        }
      ],
      "name": "DurationTooShort",
      "type": "error"
    },
    {
      "inputs": [],
      "name": "InsufficientValue",
      "type": "error"
    },
    {
      "inputs": [],
      "name": "MaxCommitmentAgeTooHigh",
      "type": "error"
    },
    {
      "inputs": [],
      "name": "MaxCommitmentAgeTooLow",
      "type": "error"
    },
    {
      "inputs": [
        {
          "internalType": "string",
          "name": "name",
          "type": "string"
        }
      ],
      "name": "NameNotAvailable",
      "type": "error"
    },
    {
      "inputs": [
        {
          "internalType": "string",
          "name": "name",
          "type": "string"
        }
      ],
      "name": "NameNotWhitelisted",
      "type": "error"
    },
    {
      "inputs": [],
      "name": "ResolverRequiredWhenDataSupplied",
      "type": "error"
    },
    {
      "inputs": [],
      "name": "ResolverRequiredWhenReverseRecord",
      "type": "error"
    },
    {
      "inputs": [
        {
          "internalType": "bytes32",
          "name": "commitment",
          "type": "bytes32"
        }
      ],
      "name": "UnexpiredCommitmentExists",
      "type": "error"
    },
    {
      "anonymous": false,
      "inputs": [
        {
          "indexed": false,
          "internalType": "string",
          "name": "name",
          "type": "string"
        },
        {
          "indexed": true,
          "internalType": "bytes32",
          "name": "label",
          "type": "bytes32"
        },
        {
          "indexed": true,
          "internalType": "address",
          "name": "owner",
          "type": "address"
        },
        {
          "indexed": false,
          "internalType": "uint256",
          "name": "baseCost",
          "type": "uint256"
        },
        {
          "indexed": false,
          "internalType": "uint256",
          "name": "premium",
          "type": "uint256"
        },
        {
          "indexed": false,
          "internalType": "uint256",
          "name": "expires",
          "type": "uint256"
        }
      ],
      "name": "NameRegistered",
      "type": "event"
    },
    {
      "anonymous": false,
      "inputs": [
        {
          "indexed": false,
          "internalType": "string",
          "name": "name",
          "type": "string"
        },
        {
          "indexed": true,
          "internalType": "bytes32",
          "name": "label",
          "type": "bytes32"
        },
        {
          "indexed": true,
          "internalType": "address",
          "name": "owner",
          "type": "address"
        },
        {
          "indexed": false,
          "internalType": "uint256",
          "name": "baseCost",
          "type": "uint256"
        },
        {
          "indexed": false,
          "internalType": "uint256",
          "name": "premium",
          "type": "uint256"
        },
        {
          "indexed": false,
          "internalType": "uint256",
          "name": "expires",
          "type": "uint256"
        },
        {
          "indexed": false,
          "internalType": "string",
          "name": "id",
          "type": "string"
        }
      ],
      "name": "NameRegisteredWithId",
      "type": "event"
    },
    {
      "anonymous": false,
      "inputs": [
        {
          "indexed": false,
          "internalType": "string",
          "name": "name",
          "type": "string"
        },
        {
          "indexed": true,
          "internalType": "bytes32",
          "name": "label",
          "type": "bytes32"
        },
        {
          "indexed": false,
          "internalType": "uint256",
          "name": "cost",
          "type": "uint256"
        },
        {
          "indexed": false,
          "internalType": "uint256",
          "name": "expires",
          "type": "uint256"
        }
      ],
      "name": "NameRenewed",
      "type": "event"
    },
    {
      "anonymous": false,
      "inputs": [
        {
          "indexed": true,
          "internalType": "address",
          "name": "previousOwner",
          "type": "address"
        },
        {
          "indexed": true,
          "internalType": "address",
          "name": "newOwner",
          "type": "address"
        }
      ],
      "name": "OwnershipTransferred",
      "type": "event"
    },
    {
      "inputs": [],
      "name": "MIN_REGISTRATION_DURATION",
      "outputs": [
        {
          "internalType": "uint256",
          "name": "",
          "type": "uint256"
        }
      ],
      "stateMutability": "view",
      "type": "function"
    },
    {
      "inputs": [
        {
          "internalType": "string",
          "name": "name",
          "type": "string"
        }
      ],
      "name": "available",
      "outputs": [
        {
          "internalType": "bool",
          "name": "",
          "type": "bool"
        }
      ],
      "stateMutability": "view",
      "type": "function"
    },
    {
      "inputs": [
        {
          "internalType": "bytes32",
          "name": "commitment",
          "type": "bytes32"
        }
      ],
      "name": "commit",
      "outputs": [],
      "stateMutability": "nonpayable",
      "type": "function"
    },
    {
      "inputs": [
        {
          "internalType": "bytes32",
          "name": "",
          "type": "bytes32"
        }
      ],
      "name": "commitments",
      "outputs": [
        {
          "internalType": "uint256",
          "name": "",
          "type": "uint256"
        }
      ],
      "stateMutability": "view",
      "type": "function"
    },
    {
      "inputs": [],
      "name": "jnsAdmin",
      "outputs": [
        {
          "internalType": "contract JNSAdminContract",
          "name": "",
          "type": "address"
        }
      ],
      "stateMutability": "view",
      "type": "function"
    },
    {
      "inputs": [
        {
          "components": [
            {
              "internalType": "string",
              "name": "name",
              "type": "string"
            },
            {
              "internalType": "address",
              "name": "owner",
              "type": "address"
            },
            {
              "internalType": "uint256",
              "name": "duration",
              "type": "uint256"
            },
            {
              "internalType": "bytes32",
              "name": "secret",
              "type": "bytes32"
            },
            {
              "internalType": "address",
              "name": "resolver",
              "type": "address"
            },
            {
              "internalType": "bytes[]",
              "name": "data",
              "type": "bytes[]"
            },
            {
              "internalType": "bool",
              "name": "reverseRecord",
              "type": "bool"
            },
            {
              "internalType": "uint16",
              "name": "ownerControlledFuses",
              "type": "uint16"
            }
          ],
          "internalType": "struct IETHRegistrarController.RegistrationParams",
          "name": "params",
          "type": "tuple"
        }
      ],
      "name": "makeCommitment",
      "outputs": [
        {
          "internalType": "bytes32",
          "name": "",
          "type": "bytes32"
        }
      ],
      "stateMutability": "pure",
      "type": "function"
    },
    {
      "inputs": [],
      "name": "maxCommitmentAge",
      "outputs": [
        {
          "internalType": "uint256",
          "name": "",
          "type": "uint256"
        }
      ],
      "stateMutability": "view",
      "type": "function"
    },
    {
      "inputs": [],
      "name": "minCommitmentAge",
      "outputs": [
        {
          "internalType": "uint256",
          "name": "",
          "type": "uint256"
        }
      ],
      "stateMutability": "view",
      "type": "function"
    },
    {
      "inputs": [],
      "name": "nameWrapper",
      "outputs": [
        {
          "internalType": "contract INameWrapper",
          "name": "",
          "type": "address"
        }
      ],
      "stateMutability": "view",
      "type": "function"
    },
    {
      "inputs": [],
      "name": "owner",
      "outputs": [
        {
          "internalType": "address",
          "name": "",
          "type": "address"
        }
      ],
      "stateMutability": "view",
      "type": "function"
    },
    {
      "inputs": [],
      "name": "prices",
      "outputs": [
        {
          "internalType": "contract IPriceOracle",
          "name": "",
          "type": "address"
        }
      ],
      "stateMutability": "view",
      "type": "function"
    },
    {
      "inputs": [
        {
          "internalType": "address",
          "name": "_token",
          "type": "address"
        },
        {
          "internalType": "address",
          "name": "_to",
          "type": "address"
        },
        {
          "internalType": "uint256",
          "name": "_amount",
          "type": "uint256"
        }
      ],
      "name": "recoverFunds",
      "outputs": [],
      "stateMutability": "nonpayable",
      "type": "function"
    },
    {
      "inputs": [
        {
          "components": [
            {
              "internalType": "string",
              "name": "name",
              "type": "string"
            },
            {
              "internalType": "address",
              "name": "owner",
              "type": "address"
            },
            {
              "internalType": "uint256",
              "name": "duration",
              "type": "uint256"
            },
            {
              "internalType": "bytes32",
              "name": "secret",
              "type": "bytes32"
            },
            {
              "internalType": "address",
              "name": "resolver",
              "type": "address"
            },
            {
              "internalType": "bytes[]",
              "name": "data",
              "type": "bytes[]"
            },
            {
              "internalType": "bool",
              "name": "reverseRecord",
              "type": "bool"
            },
            {
              "internalType": "uint16",
              "name": "ownerControlledFuses",
              "type": "uint16"
            }
          ],
          "internalType": "struct IETHRegistrarController.RegistrationParams",
          "name": "params",
          "type": "tuple"
        }
      ],
      "name": "register",
      "outputs": [
        {
          "internalType": "uint256",
          "name": "baseCost",
          "type": "uint256"
        },
        {
          "internalType": "uint256",
          "name": "premium",
          "type": "uint256"
        },
        {
          "internalType": "uint256",
          "name": "expires",
          "type": "uint256"
        }
      ],
      "stateMutability": "payable",
      "type": "function"
    },
    {
      "inputs": [
        {
          "components": [
            {
              "internalType": "string",
              "name": "name",
              "type": "string"
            },
            {
              "internalType": "address",
              "name": "owner",
              "type": "address"
            },
            {
              "internalType": "uint256",
              "name": "duration",
              "type": "uint256"
            },
            {
              "internalType": "bytes32",
              "name": "secret",
              "type": "bytes32"
            },
            {
              "internalType": "address",
              "name": "resolver",
              "type": "address"
            },
            {
              "internalType": "bytes[]",
              "name": "data",
              "type": "bytes[]"
            },
            {
              "internalType": "bool",
              "name": "reverseRecord",
              "type": "bool"
            },
            {
              "internalType": "uint16",
              "name": "ownerControlledFuses",
              "type": "uint16"
            }
          ],
          "internalType": "struct IETHRegistrarController.RegistrationParams",
          "name": "params",
          "type": "tuple"
        },
        {
          "internalType": "string",
          "name": "id",
          "type": "string"
        }
      ],
      "name": "registerWithId",
      "outputs": [],
      "stateMutability": "payable",
      "type": "function"
    },
    {
      "inputs": [
        {
          "internalType": "string",
          "name": "name",
          "type": "string"
        },
        {
          "internalType": "uint256",
          "name": "duration",
          "type": "uint256"
        }
      ],
      "name": "renew",
      "outputs": [],
      "stateMutability": "payable",
      "type": "function"
    },
    {
      "inputs": [],
      "name": "renounceOwnership",
      "outputs": [],
      "stateMutability": "nonpayable",
      "type": "function"
    },
    {
      "inputs": [
        {
          "internalType": "string",
          "name": "name",
          "type": "string"
        },
        {
          "internalType": "uint256",
          "name": "duration",
          "type": "uint256"
        }
      ],
      "name": "rentPrice",
      "outputs": [
        {
          "components": [
            {
              "internalType": "uint256",
              "name": "base",
              "type": "uint256"
            },
            {
              "internalType": "uint256",
              "name": "premium",
              "type": "uint256"
            }
          ],
          "internalType": "struct IPriceOracle.Price",
          "name": "price",
          "type": "tuple"
        }
      ],
      "stateMutability": "view",
      "type": "function"
    },
    {
      "inputs": [],
      "name": "reverseRegistrar",
      "outputs": [
        {
          "internalType": "contract ReverseRegistrar",
          "name": "",
          "type": "address"
        }
      ],
      "stateMutability": "view",
      "type": "function"
    },
    {
      "inputs": [
        {
          "internalType": "bytes4",
          "name": "interfaceID",
          "type": "bytes4"
        }
      ],
      "name": "supportsInterface",
      "outputs": [
        {
          "internalType": "bool",
          "name": "",
          "type": "bool"
        }
      ],
      "stateMutability": "pure",
      "type": "function"
    },
    {
      "inputs": [
        {
          "internalType": "address",
          "name": "newOwner",
          "type": "address"
        }
      ],
      "name": "transferOwnership",
      "outputs": [],
      "stateMutability": "nonpayable",
      "type": "function"
    },
    {
      "inputs": [
        {
          "internalType": "string",
          "name": "name",
          "type": "string"
        }
      ],
      "name": "valid",
      "outputs": [
        {
          "internalType": "bool",
          "name": "",
          "type": "bool"
        }
      ],
      "stateMutability": "pure",
      "type": "function"
    },
    {
      "inputs": [],
      "name": "withdraw",
      "outputs": [],
      "stateMutability": "nonpayable",
      "type": "function"
    }
  ],
  "transactionHash": "0x1f78ed922dc4a14cf850c06f32bde7d6170027b090f543167d324a7facfaed80",
  "args": [
    "0xd24f9F1d29ba02A780102dD1ac72475BEdf28Ba2",
    "0x7505a331c4B7eDdbbc84c56641770094D2dc9dac",
    60,
    86400,
    "0xCdEAF9EA3E0DE849c921572b4D40727EeFeD39A1",
    "0x90431Ac6fbC9630A556cE42172f50970862c424c",
    "0xF45eBA158FE9CAAc48D6716345Adf38B340C0743",
    "0x907053d52b6f54ad6e169822271DB322767b5117"
  ],
  "numDeployments": 1,
  "solcInputHash": "cfa2a405305b52b18bcf95d82901f3c5",
  "bytecode": "0x6101606040523480156200001257600080fd5b50604051620026ce380380620026ce83398101604081905262000035916200022b565b81336200004281620001c2565b6040516302571be360e01b81527f91d1777781884d03a6757a803996e38de2a42967fb37eeaca72729271025a9e260048201526000906001600160a01b038416906302571be390602401602060405180830381865afa158015620000aa573d6000803e3d6000fd5b505050506040513d601f19601f82011682018060405250810190620000d09190620002d5565b604051630f41a04d60e11b81526001600160a01b03848116600483015291925090821690631e83409a906024016020604051808303816000875af11580156200011d573d6000803e3d6000fd5b505050506040513d601f19601f82011682018060405250810190620001439190620002fc565b5050505085851162000168576040516307cb550760e31b815260040160405180910390fd5b428511156200018a57604051630b4319e560e21b815260040160405180910390fd5b6001600160a01b0397881660805295871660a0525060c09390935260e091909152831661010052821661012052166101405262000316565b600080546001600160a01b038381166001600160a01b0319831681178455604051919092169283917f8be0079c531659141344cd1fd0a4f28419497f9722a3daafe3b4186f6b6457e09190a35050565b6001600160a01b03811681146200022857600080fd5b50565b600080600080600080600080610100898b0312156200024957600080fd5b8851620002568162000212565b60208a0151909850620002698162000212565b80975050604089015195506060890151945060808901516200028b8162000212565b60a08a01519094506200029e8162000212565b60c08a0151909350620002b18162000212565b60e08a0151909250620002c48162000212565b809150509295985092959890939650565b600060208284031215620002e857600080fd5b8151620002f58162000212565b9392505050565b6000602082840312156200030f57600080fd5b5051919050565b60805160a05160c05160e051610100516101205161014051612317620003b760003960008181610400015281816106810152610a59015260008181610399015281816107ba0152610d7701526000818161024e015261141c01526000818161043401528181610f55015261124301526000818161032701526111cc0152600081816104680152610b9c015260008181610bd10152610ec401526123176000f3fe6080604052600436106101755760003560e01c80638da5cb5b116100cb578063ba7ef0481161007f578063f14fcbc811610059578063f14fcbc81461048a578063f2d44370146104aa578063f2fde38b146104ca57600080fd5b8063ba7ef048146103ee578063ce1e09c014610422578063d3419bf31461045657600080fd5b8063a8e5fbc0116100b0578063a8e5fbc014610387578063acf1a841146103bb578063aeb8ce9b146103ce57600080fd5b80638da5cb5b146103495780639791c0971461036757600080fd5b8063715018a61161012d57806383e7f6ff1161010757806383e7f6ff146102c35780638a95b09f146102fe5780638d839ffe1461031557600080fd5b8063715018a614610227578063808698531461023c578063839df9451461028857600080fd5b806320820c411161015e57806320820c41146101c45780633ccfd60b146101f25780635d3590d51461020757600080fd5b806301ffc9a71461017a5780630a746594146101af575b600080fd5b34801561018657600080fd5b5061019a61019536600461171f565b6104ea565b60405190151581526020015b60405180910390f35b6101c26101bd3660046117c3565b610583565b005b6101d76101d236600461182c565b610625565b604080519384526020840192909252908201526060016101a6565b3480156101fe57600080fd5b506101c2610a4c565b34801561021357600080fd5b506101c261022236600461187d565b610aa4565b34801561023357600080fd5b506101c2610b3e565b34801561024857600080fd5b506102707f000000000000000000000000000000000000000000000000000000000000000081565b6040516001600160a01b0390911681526020016101a6565b34801561029457600080fd5b506102b56102a33660046118b9565b60016020526000908152604090205481565b6040519081526020016101a6565b3480156102cf57600080fd5b506102e36102de3660046119c9565b610b52565b604080518251815260209283015192810192909252016101a6565b34801561030a57600080fd5b506102b56224ea0081565b34801561032157600080fd5b506102b57f000000000000000000000000000000000000000000000000000000000000000081565b34801561035557600080fd5b506000546001600160a01b0316610270565b34801561037357600080fd5b5061019a610382366004611a0e565b610ca5565b34801561039357600080fd5b506102707f000000000000000000000000000000000000000000000000000000000000000081565b6101c26103c9366004611a43565b610cba565b3480156103da57600080fd5b5061019a6103e9366004611a0e565b610e7b565b3480156103fa57600080fd5b506102707f000000000000000000000000000000000000000000000000000000000000000081565b34801561042e57600080fd5b506102b57f000000000000000000000000000000000000000000000000000000000000000081565b34801561046257600080fd5b506102707f000000000000000000000000000000000000000000000000000000000000000081565b34801561049657600080fd5b506101c26104a53660046118b9565b610f3e565b3480156104b657600080fd5b506102b56104c5366004611c46565b610fc7565b3480156104d657600080fd5b506101c26104e5366004611c7b565b6110d7565b60007fffffffff0000000000000000000000000000000000000000000000000000000082167f01ffc9a700000000000000000000000000000000000000000000000000000000148061057d57507fffffffff0000000000000000000000000000000000000000000000000000000082167f2b5e880d00000000000000000000000000000000000000000000000000000000145b92915050565b600080600061059186610625565b919450925090506105a86040870160208801611c7b565b6001600160a01b03166105bb8780611c96565b6040516105c9929190611cdd565b6040519081900390207fd71006b1c2218648c225f1e98d4647d9e5eb4264efe4ea59fe2c052b273360bf6105fd8980611c96565b8787878c8c6040516106159796959493929190611d16565b60405180910390a3505050505050565b60008080806106756106378680611c96565b8080601f0160208091040260200160405190810160405280939291908181526020018383808284376000920191909152505050506040870135611164565b90506001600160a01b037f00000000000000000000000000000000000000000000000000000000000000001663626465936106b08780611c96565b6040518363ffffffff1660e01b81526004016106cd929190611d5d565b602060405180830381865afa1580156106ea573d6000803e3d6000fd5b505050506040513d601f19601f8201168201806040525081019061070e9190611d71565b6107595761071c8580611c96565b6040517f07bc2c43000000000000000000000000000000000000000000000000000000008152600401610750929190611d5d565b60405180910390fd5b6107b06107668680611c96565b8080601f01602080910402602001604051908101604052809392919081815260200183838082843760009201919091525050505060408701356107ab6104c589611d8e565b6111b5565b6001600160a01b037f00000000000000000000000000000000000000000000000000000000000000001663a40149826107e98780611c96565b6107f960408a0160208b01611c7b565b60408a013561080e60a08c0160808d01611c7b565b61081f6101008d0160e08e01611d9a565b6040518763ffffffff1660e01b815260040161084096959493929190611db5565b6020604051808303816000875af115801561085f573d6000803e3d6000fd5b505050506040513d601f19601f820116820180604052508101906108839190611dff565b9150600061089460a0870187611e18565b905011156108e2576108e26108af60a0870160808801611c7b565b6108b98780611c96565b6040516108c7929190611cdd565b6040519081900390206108dd60a0890189611e18565b611337565b6108f260e0860160c08701611e62565b1561094f5761094f6109048680611c96565b8080601f0160208091040260200160405190810160405280939291908181526020018383808284376000920191909152506109499250505060a0880160808901611c7b565b3361141a565b61095f6040860160208701611c7b565b6001600160a01b03166109728680611c96565b604051610980929190611cdd565b6040519081900390207f69e37f151eb98a09618ddaa80c8cfaf1ce5996867c489f45b555b412271ebf276109b48880611c96565b855160208701516040516109cd94939291908a90611e7f565b60405180910390a3602081015181516109e69190611ec6565b341115610a38576020810151815133916108fc91610a049190611ec6565b610a0e9034611ed9565b6040518115909202916000818181858888f19350505050158015610a36573d6000803e3d6000fd5b505b805160209091015190935091509193909250565b6040516001600160a01b037f000000000000000000000000000000000000000000000000000000000000000016904780156108fc02916000818181858888f19350505050158015610aa1573d6000803e3d6000fd5b50565b610aac6114ce565b6040517fa9059cbb0000000000000000000000000000000000000000000000000000000081526001600160a01b0383811660048301526024820183905284169063a9059cbb906044016020604051808303816000875af1158015610b14573d6000803e3d6000fd5b505050506040513d601f19601f82011682018060405250810190610b389190611d71565b50505050565b610b466114ce565b610b506000611528565b565b6040805180820190915260008082526020820152825160208401206040517fd6e4fa86000000000000000000000000000000000000000000000000000000008152600481018290527f00000000000000000000000000000000000000000000000000000000000000006001600160a01b03908116916350e9a7159187917f00000000000000000000000000000000000000000000000000000000000000009091169063d6e4fa8690602401602060405180830381865afa158015610c1a573d6000803e3d6000fd5b505050506040513d601f19601f82011682018060405250810190610c3e9190611dff565b866040518463ffffffff1660e01b8152600401610c5d93929190611f3c565b6040805180830381865afa158015610c79573d6000803e3d6000fd5b505050506040513d601f19601f82011682018060405250810190610c9d9190611f61565b949350505050565b60006003610cb283611590565b101592915050565b60008383604051610ccc929190611cdd565b604080519182900382206020601f870181900481028401810190925285835292508291600091610d1991908890889081908401838280828437600092019190915250889250610b52915050565b8051909150341015610d3e5760405163044044a560e21b815260040160405180910390fd5b6040517fc475abff00000000000000000000000000000000000000000000000000000000815260048101839052602481018590526000907f00000000000000000000000000000000000000000000000000000000000000006001600160a01b03169063c475abff906044016020604051808303816000875af1158015610dc8573d6000803e3d6000fd5b505050506040513d601f19601f82011682018060405250810190610dec9190611dff565b8251909150341115610e3457815133906108fc90610e0a9034611ed9565b6040518115909202916000818181858888f19350505050158015610e32573d6000803e3d6000fd5b505b837f3da24c024582931cfaf8267d8ed24d13a82a8068d5bd337d30ec45cea4e506ae88883485604051610e6a9493929190611fb0565b60405180910390a250505050505050565b80516020820120600090610e8e83610ca5565b8015610f3757506040517f96e494e8000000000000000000000000000000000000000000000000000000008152600481018290527f00000000000000000000000000000000000000000000000000000000000000006001600160a01b0316906396e494e890602401602060405180830381865afa158015610f13573d6000803e3d6000fd5b505050506040513d601f19601f82011682018060405250810190610f379190611d71565b9392505050565b6000818152600160205260409020544290610f7a907f000000000000000000000000000000000000000000000000000000000000000090611ec6565b10610fb4576040517f0a059d7100000000000000000000000000000000000000000000000000000000815260048101829052602401610750565b6000908152600160205260409020429055565b805180516020909101206080820151600091906001600160a01b0316158015610ff6575060c083015115156001145b1561102d576040517f406d917600000000000000000000000000000000000000000000000000000000815260040160405180910390fd5b60008360a001515111801561104d575060808301516001600160a01b0316155b15611084576040517fd3f605c400000000000000000000000000000000000000000000000000000000815260040160405180910390fd5b6020808401516040808601516060870151608088015160a089015160c08a015160e08b015195516110b9988a98979101611fd7565b60405160208183030381529060405280519060200120915050919050565b6110df6114ce565b6001600160a01b03811661115b5760405162461bcd60e51b815260206004820152602660248201527f4f776e61626c653a206e6577206f776e657220697320746865207a65726f206160448201527f64647265737300000000000000000000000000000000000000000000000000006064820152608401610750565b610aa181611528565b60408051808201909152600080825260208201526111828383610b52565b6020810151815191925061119591611ec6565b34101561057d5760405163044044a560e21b815260040160405180910390fd5b60008181526001602052604090205442906111f1907f000000000000000000000000000000000000000000000000000000000000000090611ec6565b111561122c576040517f5320bcf900000000000000000000000000000000000000000000000000000000815260048101829052602401610750565b6000818152600160205260409020544290611268907f000000000000000000000000000000000000000000000000000000000000000090611ec6565b116112a2576040517fcb7690d700000000000000000000000000000000000000000000000000000000815260048101829052602401610750565b6112ab83610e7b565b6112e357826040517f477707e8000000000000000000000000000000000000000000000000000000008152600401610750919061208b565b6000818152600160205260408120556224ea00821015611332576040517f9a71997b00000000000000000000000000000000000000000000000000000000815260048101839052602401610750565b505050565b604080517fa58877ec636d078e724c52502dd4bf105845a9ae697b2e978efecbf12524d92a602080830191909152818301869052825180830384018152606083019384905280519101207fe32954eb0000000000000000000000000000000000000000000000000000000090925285906001600160a01b0382169063e32954eb906113ca9085908890889060640161209e565b6000604051808303816000875af11580156113e9573d6000803e3d6000fd5b505050506040513d6000823e601f3d908101601f191682016040526114119190810190612146565b50505050505050565b7f00000000000000000000000000000000000000000000000000000000000000006001600160a01b0316637a806d6b3383858760405160200161145d9190612233565b6040516020818303038152906040526040518563ffffffff1660e01b815260040161148b9493929190612274565b6020604051808303816000875af11580156114aa573d6000803e3d6000fd5b505050506040513d601f19601f82011682018060405250810190610b389190611dff565b6000546001600160a01b03163314610b505760405162461bcd60e51b815260206004820181905260248201527f4f776e61626c653a2063616c6c6572206973206e6f7420746865206f776e65726044820152606401610750565b600080546001600160a01b038381167fffffffffffffffffffffffff0000000000000000000000000000000000000000831681178455604051919092169283917f8be0079c531659141344cd1fd0a4f28419497f9722a3daafe3b4186f6b6457e09190a35050565b8051600090819081905b808210156117165760008583815181106115b6576115b66122b2565b01602001516001600160f81b03191690507f8000000000000000000000000000000000000000000000000000000000000000811015611601576115fa600184611ec6565b9250611703565b7fe0000000000000000000000000000000000000000000000000000000000000006001600160f81b03198216101561163e576115fa600284611ec6565b7ff0000000000000000000000000000000000000000000000000000000000000006001600160f81b03198216101561167b576115fa600384611ec6565b7ff8000000000000000000000000000000000000000000000000000000000000006001600160f81b0319821610156116b8576115fa600484611ec6565b7ffc000000000000000000000000000000000000000000000000000000000000006001600160f81b0319821610156116f5576115fa600584611ec6565b611700600684611ec6565b92505b508261170e816122c8565b93505061159a565b50909392505050565b60006020828403121561173157600080fd5b81357fffffffff0000000000000000000000000000000000000000000000000000000081168114610f3757600080fd5b6000610100828403121561177457600080fd5b50919050565b60008083601f84011261178c57600080fd5b50813567ffffffffffffffff8111156117a457600080fd5b6020830191508360208285010111156117bc57600080fd5b9250929050565b6000806000604084860312156117d857600080fd5b833567ffffffffffffffff808211156117f057600080fd5b6117fc87838801611761565b9450602086013591508082111561181257600080fd5b5061181f8682870161177a565b9497909650939450505050565b60006020828403121561183e57600080fd5b813567ffffffffffffffff81111561185557600080fd5b610c9d84828501611761565b80356001600160a01b038116811461187857600080fd5b919050565b60008060006060848603121561189257600080fd5b61189b84611861565b92506118a960208501611861565b9150604084013590509250925092565b6000602082840312156118cb57600080fd5b5035919050565b634e487b7160e01b600052604160045260246000fd5b604051610100810167ffffffffffffffff8111828210171561190c5761190c6118d2565b60405290565b604051601f8201601f1916810167ffffffffffffffff8111828210171561193b5761193b6118d2565b604052919050565b600067ffffffffffffffff82111561195d5761195d6118d2565b50601f01601f191660200190565b600061197e61197984611943565b611912565b905082815283838301111561199257600080fd5b828260208301376000602084830101529392505050565b600082601f8301126119ba57600080fd5b610f378383356020850161196b565b600080604083850312156119dc57600080fd5b823567ffffffffffffffff8111156119f357600080fd5b6119ff858286016119a9565b95602094909401359450505050565b600060208284031215611a2057600080fd5b813567ffffffffffffffff811115611a3757600080fd5b610c9d848285016119a9565b600080600060408486031215611a5857600080fd5b833567ffffffffffffffff811115611a6f57600080fd5b611a7b8682870161177a565b909790965060209590950135949350505050565b600067ffffffffffffffff821115611aa957611aa96118d2565b5060051b60200190565b600082601f830112611ac457600080fd5b81356020611ad461197983611a8f565b82815260059290921b84018101918181019086841115611af357600080fd5b8286015b84811015611b4857803567ffffffffffffffff811115611b175760008081fd5b8701603f81018913611b295760008081fd5b611b3a89868301356040840161196b565b845250918301918301611af7565b509695505050505050565b8015158114610aa157600080fd5b803561187881611b53565b803561ffff8116811461187857600080fd5b60006101008284031215611b9157600080fd5b611b996118e8565b9050813567ffffffffffffffff80821115611bb357600080fd5b611bbf858386016119a9565b8352611bcd60208501611861565b60208401526040840135604084015260608401356060840152611bf260808501611861565b608084015260a0840135915080821115611c0b57600080fd5b50611c1884828501611ab3565b60a083015250611c2a60c08301611b61565b60c0820152611c3b60e08301611b6c565b60e082015292915050565b600060208284031215611c5857600080fd5b813567ffffffffffffffff811115611c6f57600080fd5b610c9d84828501611b7e565b600060208284031215611c8d57600080fd5b610f3782611861565b6000808335601e19843603018112611cad57600080fd5b83018035915067ffffffffffffffff821115611cc857600080fd5b6020019150368190038213156117bc57600080fd5b8183823760009101908152919050565b81835281816020850137506000828201602090810191909152601f909101601f19169091010190565b60a081526000611d2a60a08301898b611ced565b8760208401528660408401528560608401528281036080840152611d4f818587611ced565b9a9950505050505050505050565b602081526000610c9d602083018486611ced565b600060208284031215611d8357600080fd5b8151610f3781611b53565b600061057d3683611b7e565b600060208284031215611dac57600080fd5b610f3782611b6c565b60a081526000611dc960a08301888a611ced565b90506001600160a01b03808716602084015285604084015280851660608401525061ffff83166080830152979650505050505050565b600060208284031215611e1157600080fd5b5051919050565b6000808335601e19843603018112611e2f57600080fd5b83018035915067ffffffffffffffff821115611e4a57600080fd5b6020019150600581901b36038213156117bc57600080fd5b600060208284031215611e7457600080fd5b8135610f3781611b53565b608081526000611e93608083018789611ced565b602083019590955250604081019290925260609091015292915050565b634e487b7160e01b600052601160045260246000fd5b8082018082111561057d5761057d611eb0565b8181038181111561057d5761057d611eb0565b60005b83811015611f07578181015183820152602001611eef565b50506000910152565b60008151808452611f28816020860160208601611eec565b601f01601f19169290920160200192915050565b606081526000611f4f6060830186611f10565b60208301949094525060400152919050565b600060408284031215611f7357600080fd5b6040516040810181811067ffffffffffffffff82111715611f9657611f966118d2565b604052825181526020928301519281019290925250919050565b606081526000611fc4606083018688611ced565b6020830194909452506040015292915050565b60006101008083018b845260206001600160a01b03808d16828701528b60408701528a6060870152808a166080870152508260a0860152819250875180835261012092508286019350828160051b870101925081890160005b8281101561205f5761011f1988860301865261204d858351611f10565b95840195945090830190600101612030565b5050505085151560c085015291506120749050565b61ffff831660e08301529998505050505050505050565b602081526000610f376020830184611f10565b60006040820185835260206040818501528185835260608501905060608660051b86010192508660005b8781101561213857868503605f190183528135368a9003601e190181126120ee57600080fd5b8901848101903567ffffffffffffffff81111561210a57600080fd5b80360382131561211957600080fd5b612124878284611ced565b9650505091830191908301906001016120c8565b509298975050505050505050565b6000602080838503121561215957600080fd5b825167ffffffffffffffff8082111561217157600080fd5b818501915085601f83011261218557600080fd5b815161219361197982611a8f565b81815260059190911b830184019084810190888311156121b257600080fd5b8585015b83811015612226578051858111156121ce5760008081fd5b8601603f81018b136121e05760008081fd5b8781015160406121f261197983611943565b8281528d828486010111156122075760008081fd5b612216838c8301848701611eec565b86525050509186019186016121b6565b5098975050505050505050565b60008251612245818460208701611eec565b7f2e6a66696e000000000000000000000000000000000000000000000000000000920191825250600501919050565b60006001600160a01b0380871683528086166020840152808516604084015250608060608301526122a86080830184611f10565b9695505050505050565b634e487b7160e01b600052603260045260246000fd5b6000600182016122da576122da611eb0565b506001019056fea2646970667358221220351e50ada9013916424ab6b9229ce809bd55114012620c6b4160be0eadaa943064736f6c63430008110033",
  "devdoc": {
    "details": "A registrar controller for registering and renewing names at fixed cost.",
    "kind": "dev",
    "methods": {
      "owner()": {
        "details": "Returns the address of the current owner."
      },
      "recoverFunds(address,address,uint256)": {
        "details": "The contract is Ownable and only the owner can call the recover function.",
        "params": {
          "_amount": "The amount of tokens to recover.",
          "_to": "The address to send the tokens to.",
          "_token": "The address of the ERC20 token to recover"
        }
      },
      "renounceOwnership()": {
        "details": "Leaves the contract without owner. It will not be possible to call `onlyOwner` functions. Can only be called by the current owner. NOTE: Renouncing ownership will leave the contract without an owner, thereby disabling any functionality that is only available to the owner."
      },
      "transferOwnership(address)": {
        "details": "Transfers ownership of the contract to a new account (`newOwner`). Can only be called by the current owner."
      }
    },
    "version": 1
  },
  "userdoc": {
    "kind": "user",
    "methods": {
      "recoverFunds(address,address,uint256)": {
        "notice": "Recover ERC20 tokens sent to the contract by mistake."
      }
    },
    "version": 1
  },
  "storageLayout": {
    "storage": [
      {
        "astId": 1606,
        "contract": "contracts/ethregistrar/ETHRegistrarController.sol:ETHRegistrarController",
        "label": "_owner",
        "offset": 0,
        "slot": "0",
        "type": "t_address"
      },
      {
        "astId": 14929,
        "contract": "contracts/ethregistrar/ETHRegistrarController.sol:ETHRegistrarController",
        "label": "commitments",
        "offset": 0,
        "slot": "1",
        "type": "t_mapping(t_bytes32,t_uint256)"
      }
    ],
    "types": {
      "t_address": {
        "encoding": "inplace",
        "label": "address",
        "numberOfBytes": "20"
      },
      "t_bytes32": {
        "encoding": "inplace",
        "label": "bytes32",
        "numberOfBytes": "32"
      },
      "t_mapping(t_bytes32,t_uint256)": {
        "encoding": "mapping",
        "key": "t_bytes32",
        "label": "mapping(bytes32 => uint256)",
        "numberOfBytes": "32",
        "value": "t_uint256"
      },
      "t_uint256": {
        "encoding": "inplace",
        "label": "uint256",
        "numberOfBytes": "32"
      }
    }
  }
}