{
  "address": "0xcc87CE457A7ACd838a679524043433b6B28BDa5B",
  "abi": [
    {
      "inputs": [
        {
          "internalType": "contract BaseRegistrarImplementation",
          "name": "_base",
          "type": "address"
        },
        {
          "internalType": "contract IPriceOracle",
          "name": "_prices",
          "type": "address"
        },
        {
          "internalType": "uint256",
          "name": "_minCommitmentAge",
          "type": "uint256"
        },
        {
          "internalType": "uint256",
          "name": "_maxCommitmentAge",
          "type": "uint256"
        },
        {
          "internalType": "contract ReverseRegistrar",
          "name": "_reverseRegistrar",
          "type": "address"
        },
        {
          "internalType": "contract INameWrapper",
          "name": "_nameWrapper",
          "type": "address"
        },
        {
          "internalType": "contract ENS",
          "name": "_ens",
          "type": "address"
        },
        {
          "internalType": "contract JNSAdminContract",
          "name": "_jnsAdmin",
          "type": "address"
        }
      ],
      "stateMutability": "nonpayable",
      "type": "constructor"
    },
    {
      "inputs": [
        {
          "internalType": "bytes32",
          "name": "commitment",
          "type": "bytes32"
        }
      ],
      "name": "CommitmentTooNew",
      "type": "error"
    },
    {
      "inputs": [
        {
          "internalType": "bytes32",
          "name": "commitment",
          "type": "bytes32"
        }
      ],
      "name": "CommitmentTooOld",
      "type": "error"
    },
    {
      "inputs": [
        {
          "internalType": "uint256",
          "name": "duration",
          "type": "uint256"
        }
      ],
      "name": "DurationTooShort",
      "type": "error"
    },
    {
      "inputs": [],
      "name": "InsufficientValue",
      "type": "error"
    },
    {
      "inputs": [],
      "name": "MaxCommitmentAgeTooHigh",
      "type": "error"
    },
    {
      "inputs": [],
      "name": "MaxCommitmentAgeTooLow",
      "type": "error"
    },
    {
      "inputs": [
        {
          "internalType": "string",
          "name": "name",
          "type": "string"
        }
      ],
      "name": "NameIsInvalid",
      "type": "error"
    },
    {
      "inputs": [
        {
          "internalType": "string",
          "name": "name",
          "type": "string"
        }
      ],
      "name": "NameNotAvailable",
      "type": "error"
    },
    {
      "inputs": [],
      "name": "ResolverRequiredWhenDataSupplied",
      "type": "error"
    },
    {
      "inputs": [],
      "name": "ResolverRequiredWhenReverseRecord",
      "type": "error"
    },
    {
      "inputs": [
        {
          "internalType": "bytes32",
          "name": "commitment",
          "type": "bytes32"
        }
      ],
      "name": "UnexpiredCommitmentExists",
      "type": "error"
    },
    {
      "anonymous": false,
      "inputs": [
        {
          "indexed": false,
          "internalType": "address",
          "name": "to",
          "type": "address"
        },
        {
          "indexed": false,
          "internalType": "uint256",
          "name": "amount",
          "type": "uint256"
        }
      ],
      "name": "FundsWithdrawn",
      "type": "event"
    },
    {
      "anonymous": false,
      "inputs": [
        {
          "indexed": false,
          "internalType": "string",
          "name": "name",
          "type": "string"
        },
        {
          "indexed": true,
          "internalType": "bytes32",
          "name": "label",
          "type": "bytes32"
        },
        {
          "indexed": true,
          "internalType": "address",
          "name": "owner",
          "type": "address"
        },
        {
          "indexed": false,
          "internalType": "uint256",
          "name": "baseCost",
          "type": "uint256"
        },
        {
          "indexed": false,
          "internalType": "uint256",
          "name": "premium",
          "type": "uint256"
        },
        {
          "indexed": false,
          "internalType": "uint256",
          "name": "expires",
          "type": "uint256"
        }
      ],
      "name": "NameRegistered",
      "type": "event"
    },
    {
      "anonymous": false,
      "inputs": [
        {
          "indexed": false,
          "internalType": "string",
          "name": "name",
          "type": "string"
        },
        {
          "indexed": true,
          "internalType": "bytes32",
          "name": "label",
          "type": "bytes32"
        },
        {
          "indexed": true,
          "internalType": "address",
          "name": "owner",
          "type": "address"
        },
        {
          "indexed": false,
          "internalType": "string",
          "name": "id",
          "type": "string"
        }
      ],
      "name": "NameRegisteredWithId",
      "type": "event"
    },
    {
      "anonymous": false,
      "inputs": [
        {
          "indexed": false,
          "internalType": "string",
          "name": "name",
          "type": "string"
        },
        {
          "indexed": true,
          "internalType": "bytes32",
          "name": "label",
          "type": "bytes32"
        },
        {
          "indexed": false,
          "internalType": "uint256",
          "name": "cost",
          "type": "uint256"
        },
        {
          "indexed": false,
          "internalType": "uint256",
          "name": "expires",
          "type": "uint256"
        }
      ],
      "name": "NameRenewed",
      "type": "event"
    },
    {
      "anonymous": false,
      "inputs": [
        {
          "indexed": true,
          "internalType": "address",
          "name": "previousOwner",
          "type": "address"
        },
        {
          "indexed": true,
          "internalType": "address",
          "name": "newOwner",
          "type": "address"
        }
      ],
      "name": "OwnershipTransferred",
      "type": "event"
    },
    {
      "inputs": [],
      "name": "MIN_REGISTRATION_DURATION",
      "outputs": [
        {
          "internalType": "uint256",
          "name": "",
          "type": "uint256"
        }
      ],
      "stateMutability": "view",
      "type": "function"
    },
    {
      "inputs": [
        {
          "internalType": "string",
          "name": "name",
          "type": "string"
        }
      ],
      "name": "available",
      "outputs": [
        {
          "internalType": "bool",
          "name": "",
          "type": "bool"
        }
      ],
      "stateMutability": "view",
      "type": "function"
    },
    {
      "inputs": [
        {
          "internalType": "bytes32",
          "name": "commitment",
          "type": "bytes32"
        }
      ],
      "name": "commit",
      "outputs": [],
      "stateMutability": "nonpayable",
      "type": "function"
    },
    {
      "inputs": [
        {
          "internalType": "bytes32",
          "name": "",
          "type": "bytes32"
        }
      ],
      "name": "commitments",
      "outputs": [
        {
          "internalType": "uint256",
          "name": "",
          "type": "uint256"
        }
      ],
      "stateMutability": "view",
      "type": "function"
    },
    {
      "inputs": [],
      "name": "jnsAdmin",
      "outputs": [
        {
          "internalType": "contract JNSAdminContract",
          "name": "",
          "type": "address"
        }
      ],
      "stateMutability": "view",
      "type": "function"
    },
    {
      "inputs": [
        {
          "internalType": "string",
          "name": "name",
          "type": "string"
        },
        {
          "internalType": "address",
          "name": "owner",
          "type": "address"
        },
        {
          "internalType": "uint256",
          "name": "duration",
          "type": "uint256"
        },
        {
          "internalType": "bytes32",
          "name": "secret",
          "type": "bytes32"
        },
        {
          "internalType": "address",
          "name": "resolver",
          "type": "address"
        },
        {
          "internalType": "bytes[]",
          "name": "data",
          "type": "bytes[]"
        },
        {
          "internalType": "bool",
          "name": "reverseRecord",
          "type": "bool"
        },
        {
          "internalType": "uint16",
          "name": "ownerControlledFuses",
          "type": "uint16"
        }
      ],
      "name": "makeCommitment",
      "outputs": [
        {
          "internalType": "bytes32",
          "name": "",
          "type": "bytes32"
        }
      ],
      "stateMutability": "pure",
      "type": "function"
    },
    {
      "inputs": [],
      "name": "maxCommitmentAge",
      "outputs": [
        {
          "internalType": "uint256",
          "name": "",
          "type": "uint256"
        }
      ],
      "stateMutability": "view",
      "type": "function"
    },
    {
      "inputs": [],
      "name": "minCommitmentAge",
      "outputs": [
        {
          "internalType": "uint256",
          "name": "",
          "type": "uint256"
        }
      ],
      "stateMutability": "view",
      "type": "function"
    },
    {
      "inputs": [],
      "name": "nameWrapper",
      "outputs": [
        {
          "internalType": "contract INameWrapper",
          "name": "",
          "type": "address"
        }
      ],
      "stateMutability": "view",
      "type": "function"
    },
    {
      "inputs": [
        {
          "internalType": "bytes32",
          "name": "",
          "type": "bytes32"
        }
      ],
      "name": "names",
      "outputs": [
        {
          "internalType": "string",
          "name": "",
          "type": "string"
        }
      ],
      "stateMutability": "view",
      "type": "function"
    },
    {
      "inputs": [],
      "name": "owner",
      "outputs": [
        {
          "internalType": "address",
          "name": "",
          "type": "address"
        }
      ],
      "stateMutability": "view",
      "type": "function"
    },
    {
      "inputs": [],
      "name": "prices",
      "outputs": [
        {
          "internalType": "contract IPriceOracle",
          "name": "",
          "type": "address"
        }
      ],
      "stateMutability": "view",
      "type": "function"
    },
    {
      "inputs": [
        {
          "internalType": "address",
          "name": "_token",
          "type": "address"
        },
        {
          "internalType": "address",
          "name": "_to",
          "type": "address"
        },
        {
          "internalType": "uint256",
          "name": "_amount",
          "type": "uint256"
        }
      ],
      "name": "recoverFunds",
      "outputs": [],
      "stateMutability": "nonpayable",
      "type": "function"
    },
    {
      "inputs": [
        {
          "internalType": "string",
          "name": "name",
          "type": "string"
        },
        {
          "internalType": "address",
          "name": "owner",
          "type": "address"
        },
        {
          "internalType": "uint256",
          "name": "duration",
          "type": "uint256"
        },
        {
          "internalType": "bytes32",
          "name": "secret",
          "type": "bytes32"
        },
        {
          "internalType": "address",
          "name": "resolver",
          "type": "address"
        },
        {
          "internalType": "bytes[]",
          "name": "data",
          "type": "bytes[]"
        },
        {
          "internalType": "bool",
          "name": "reverseRecord",
          "type": "bool"
        },
        {
          "internalType": "uint16",
          "name": "ownerControlledFuses",
          "type": "uint16"
        }
      ],
      "name": "register",
      "outputs": [],
      "stateMutability": "payable",
      "type": "function"
    },
    {
      "inputs": [
        {
          "internalType": "string",
          "name": "_name",
          "type": "string"
        },
        {
          "internalType": "address",
          "name": "_owner",
          "type": "address"
        },
        {
          "internalType": "uint256",
          "name": "_duration",
          "type": "uint256"
        },
        {
          "internalType": "bytes32",
          "name": "_secret",
          "type": "bytes32"
        },
        {
          "internalType": "address",
          "name": "_resolver",
          "type": "address"
        },
        {
          "internalType": "bytes[]",
          "name": "_data",
          "type": "bytes[]"
        },
        {
          "internalType": "bool",
          "name": "_reverseRecord",
          "type": "bool"
        },
        {
          "internalType": "uint16",
          "name": "_ownerControlledFuses",
          "type": "uint16"
        },
        {
          "internalType": "string",
          "name": "_id",
          "type": "string"
        }
      ],
      "name": "registerWithId",
      "outputs": [],
      "stateMutability": "payable",
      "type": "function"
    },
    {
      "inputs": [
        {
          "internalType": "string",
          "name": "name",
          "type": "string"
        },
        {
          "internalType": "uint256",
          "name": "duration",
          "type": "uint256"
        }
      ],
      "name": "renew",
      "outputs": [],
      "stateMutability": "payable",
      "type": "function"
    },
    {
      "inputs": [],
      "name": "renounceOwnership",
      "outputs": [],
      "stateMutability": "nonpayable",
      "type": "function"
    },
    {
      "inputs": [
        {
          "internalType": "string",
          "name": "name",
          "type": "string"
        },
        {
          "internalType": "uint256",
          "name": "duration",
          "type": "uint256"
        }
      ],
      "name": "rentPrice",
      "outputs": [
        {
          "components": [
            {
              "internalType": "uint256",
              "name": "base",
              "type": "uint256"
            },
            {
              "internalType": "uint256",
              "name": "premium",
              "type": "uint256"
            }
          ],
          "internalType": "struct IPriceOracle.Price",
          "name": "price",
          "type": "tuple"
        }
      ],
      "stateMutability": "view",
      "type": "function"
    },
    {
      "inputs": [],
      "name": "reverseRegistrar",
      "outputs": [
        {
          "internalType": "contract ReverseRegistrar",
          "name": "",
          "type": "address"
        }
      ],
      "stateMutability": "view",
      "type": "function"
    },
    {
      "inputs": [
        {
          "internalType": "bytes4",
          "name": "interfaceID",
          "type": "bytes4"
        }
      ],
      "name": "supportsInterface",
      "outputs": [
        {
          "internalType": "bool",
          "name": "",
          "type": "bool"
        }
      ],
      "stateMutability": "pure",
      "type": "function"
    },
    {
      "inputs": [
        {
          "internalType": "address",
          "name": "newOwner",
          "type": "address"
        }
      ],
      "name": "transferOwnership",
      "outputs": [],
      "stateMutability": "nonpayable",
      "type": "function"
    },
    {
      "inputs": [
        {
          "internalType": "string",
          "name": "name",
          "type": "string"
        }
      ],
      "name": "valid",
      "outputs": [
        {
          "internalType": "bool",
          "name": "",
          "type": "bool"
        }
      ],
      "stateMutability": "pure",
      "type": "function"
    },
    {
      "inputs": [],
      "name": "withdraw",
      "outputs": [],
      "stateMutability": "nonpayable",
      "type": "function"
    }
  ],
  "transactionHash": "0x3cd3ed86575e6139ae24f4c0b2a1a0b8567fe50be81b166dcc6a6847f9807093",
  "args": [
    "0x4C37A3aBc1Ed9aC403dd825CD76a43C49afbDf31",
    "0xb75b6B31b8cA823cD1455e940656188319Bb05F4",
    60,
    86400,
    "0xF5D36b369c99c58643D9b8844b73Ee72E3194fE7",
    "0xf4C8D687571DA2aE8B939727794024bcDE777B9F",
    "0x892D5646043e074D3FBC468056ba604152DE4694",
    "0x49eb98E878b2CEceA4aF34406b3Fb0475c80De36"
  ],
  "numDeployments": 1,
  "solcInputHash": "92c55bd66c3f577a8ba7d970be13107b",
  "bytecode": "0x6101606040523480156200001257600080fd5b50604051620028863803806200288683398101604081905262000035916200022b565b81336200004281620001c2565b6040516302571be360e01b81527f91d1777781884d03a6757a803996e38de2a42967fb37eeaca72729271025a9e260048201526000906001600160a01b038416906302571be390602401602060405180830381865afa158015620000aa573d6000803e3d6000fd5b505050506040513d601f19601f82011682018060405250810190620000d09190620002d5565b604051630f41a04d60e11b81526001600160a01b03848116600483015291925090821690631e83409a906024016020604051808303816000875af11580156200011d573d6000803e3d6000fd5b505050506040513d601f19601f82011682018060405250810190620001439190620002fc565b5050505085851162000168576040516307cb550760e31b815260040160405180910390fd5b428511156200018a57604051630b4319e560e21b815260040160405180910390fd5b6001600160a01b0397881660805295871660a0525060c09390935260e091909152831661010052821661012052166101405262000316565b600080546001600160a01b038381166001600160a01b0319831681178455604051919092169283917f8be0079c531659141344cd1fd0a4f28419497f9722a3daafe3b4186f6b6457e09190a35050565b6001600160a01b03811681146200022857600080fd5b50565b600080600080600080600080610100898b0312156200024957600080fd5b8851620002568162000212565b60208a0151909850620002698162000212565b80975050604089015195506060890151945060808901516200028b8162000212565b60a08a01519094506200029e8162000212565b60c08a0151909350620002b18162000212565b60e08a0151909250620002c48162000212565b809150509295985092959890939650565b600060208284031215620002e857600080fd5b8151620002f58162000212565b9392505050565b6000602082840312156200030f57600080fd5b5051919050565b60805160a05160c05160e0516101005161012051610140516124c8620003be6000396000818161043d0152818161064c01528181610710015261097c0152600081816103d601528181610b7a0152610ff80152600081816102860152611601015260008181610471015281816111d6015261142801526000818161036401526113b10152600081816104a50152610d9e015260008181610dd3015261114501526124c86000f3fe6080604052600436106101805760003560e01c80638b088eeb116100d6578063aeb8ce9b1161007f578063d3419bf311610059578063d3419bf314610493578063f14fcbc8146104c7578063f2fde38b146104e757600080fd5b8063aeb8ce9b1461040b578063ba7ef0481461042b578063ce1e09c01461045f57600080fd5b80639791c097116100b05780639791c097146103a4578063a8e5fbc0146103c4578063acf1a841146103f857600080fd5b80638b088eeb1461033f5780638d839ffe146103525780638da5cb5b1461038657600080fd5b8063715018a611610138578063839df94511610112578063839df945146102c057806383e7f6ff146102ed5780638a95b09f1461032857600080fd5b8063715018a61461024c57806374694a2b14610261578063808698531461027457600080fd5b80633ccfd60b116101695780633ccfd60b146101e75780635d3590d5146101fe57806365a69dcf1461021e57600080fd5b806301ffc9a71461018557806320c38e2b146101ba575b600080fd5b34801561019157600080fd5b506101a56101a0366004611842565b610507565b60405190151581526020015b60405180910390f35b3480156101c657600080fd5b506101da6101d5366004611884565b6105a0565b6040516101b191906118ed565b3480156101f357600080fd5b506101fc61063a565b005b34801561020a57600080fd5b506101fc610219366004611925565b610768565b34801561022a57600080fd5b5061023e610239366004611aa2565b610802565b6040519081526020016101b1565b34801561025857600080fd5b506101fc6108f0565b6101fc61026f366004611bad565b610904565b34801561028057600080fd5b506102a87f000000000000000000000000000000000000000000000000000000000000000081565b6040516001600160a01b0390911681526020016101b1565b3480156102cc57600080fd5b5061023e6102db366004611884565b60016020526000908152604090205481565b3480156102f957600080fd5b5061030d610308366004611c7c565b610d54565b604080518251815260209283015192810192909252016101b1565b34801561033457600080fd5b5061023e6224ea0081565b6101fc61034d366004611cc1565b610ea7565b34801561035e57600080fd5b5061023e7f000000000000000000000000000000000000000000000000000000000000000081565b34801561039257600080fd5b506000546001600160a01b03166102a8565b3480156103b057600080fd5b506101a56103bf366004611dc3565b610f26565b3480156103d057600080fd5b506102a87f000000000000000000000000000000000000000000000000000000000000000081565b6101fc610406366004611df8565b610f3b565b34801561041757600080fd5b506101a5610426366004611dc3565b6110fc565b34801561043757600080fd5b506102a87f000000000000000000000000000000000000000000000000000000000000000081565b34801561046b57600080fd5b5061023e7f000000000000000000000000000000000000000000000000000000000000000081565b34801561049f57600080fd5b506102a87f000000000000000000000000000000000000000000000000000000000000000081565b3480156104d357600080fd5b506101fc6104e2366004611884565b6111bf565b3480156104f357600080fd5b506101fc610502366004611e44565b611248565b60007fffffffff0000000000000000000000000000000000000000000000000000000082167f01ffc9a700000000000000000000000000000000000000000000000000000000148061059a57507fffffffff0000000000000000000000000000000000000000000000000000000082167f69bbfba700000000000000000000000000000000000000000000000000000000145b92915050565b600260205260009081526040902080546105b990611e61565b80601f01602080910402602001604051908101604052809291908181526020018280546105e590611e61565b80156106325780601f1061060757610100808354040283529160200191610632565b820191906000526020600020905b81548152906001019060200180831161061557829003601f168201915b505050505081565b60405147906000906001600160a01b037f0000000000000000000000000000000000000000000000000000000000000000169083908381818185875af1925050503d80600081146106a7576040519150601f19603f3d011682016040523d82523d6000602084013e6106ac565b606091505b50509050806107025760405162461bcd60e51b815260206004820152601060248201527f5472616e73666572206661696c65642e0000000000000000000000000000000060448201526064015b60405180910390fd5b604080516001600160a01b037f0000000000000000000000000000000000000000000000000000000000000000168152602081018490527feaff4b37086828766ad3268786972c0cd24259d4c87a80f9d3963a3c3d999b0d910160405180910390a15050565b6107706112d8565b6040517fa9059cbb0000000000000000000000000000000000000000000000000000000081526001600160a01b0383811660048301526024820183905284169063a9059cbb906044016020604051808303816000875af11580156107d8573d6000803e3d6000fd5b505050506040513d601f19601f820116820180604052508101906107fc9190611e9b565b50505050565b885160208a01206000906001600160a01b03871615801561082557506001841515145b1561085c576040517f406d917600000000000000000000000000000000000000000000000000000000815260040160405180910390fd5b841580159061087257506001600160a01b038716155b156108a9576040517fd3f605c400000000000000000000000000000000000000000000000000000000815260040160405180910390fd5b808a8a8a8a8a8a8a8a6040516020016108ca99989796959493929190611f73565b604051602081830303815290604052805190602001209150509998505050505050505050565b6108f86112d8565b6109026000611332565b565b60006109478b8b8080601f0160208091040260200160405190810160405280939291908181526020018383808284376000920191909152508c9250610d54915050565b6020810151815191925061095a91611feb565b34101561097a5760405163044044a560e21b815260040160405180910390fd5b7f00000000000000000000000000000000000000000000000000000000000000006001600160a01b031663cfccedfd6040518163ffffffff1660e01b8152600401602060405180830381865afa1580156109d8573d6000803e3d6000fd5b505050506040513d601f19601f820116820180604052508101906109fc9190611ffe565b6001600160a01b031663f1dfaefb8c8c6040518363ffffffff1660e01b8152600401610a2992919061201b565b602060405180830381865afa158015610a46573d6000803e3d6000fd5b505050506040513d601f19601f82011682018060405250810190610a6a9190611e9b565b610aa4578a8a6040517fc5aa28910000000000000000000000000000000000000000000000000000000081526004016106f992919061201b565b610b478b8b8080601f016020809104026020016040519081016040528093929190818152602001838380828437600081840152601f19601f8201169050808301925050505050505089610b428e8e8080601f016020809104026020016040519081016040528093929190818152602001838380828437600081840152601f19601f820116905080830192505050505050508d8d8d8d8d8d8d8d610802565b61139a565b6040517fa40149820000000000000000000000000000000000000000000000000000000081526000906001600160a01b037f0000000000000000000000000000000000000000000000000000000000000000169063a401498290610bb9908f908f908f908f908e908b9060040161202f565b6020604051808303816000875af1158015610bd8573d6000803e3d6000fd5b505050506040513d601f19601f82011682018060405250810190610bfc9190612079565b905060008c8c604051610c10929190612092565b60405190819003902090508515610c2d57610c2d8882898961151c565b8415610c7657610c768d8d8080601f0160208091040260200160405190810160405280939291908181526020018383808284376000920191909152508c92503391506115ff9050565b6000818152600260205260409020610c8f8d8f836120f0565b508a6001600160a01b0316817f69e37f151eb98a09618ddaa80c8cfaf1ce5996867c489f45b555b412271ebf278f8f8760000151886020015188604051610cda9594939291906121b1565b60405180910390a360208301518351610cf39190611feb565b341115610d45576020830151835133916108fc91610d119190611feb565b610d1b90346121e2565b6040518115909202916000818181858888f19350505050158015610d43573d6000803e3d6000fd5b505b50505050505050505050505050565b6040805180820190915260008082526020820152825160208401206040517fd6e4fa86000000000000000000000000000000000000000000000000000000008152600481018290527f00000000000000000000000000000000000000000000000000000000000000006001600160a01b03908116916350e9a7159187917f00000000000000000000000000000000000000000000000000000000000000009091169063d6e4fa8690602401602060405180830381865afa158015610e1c573d6000803e3d6000fd5b505050506040513d601f19601f82011682018060405250810190610e409190612079565b866040518463ffffffff1660e01b8152600401610e5f939291906121f5565b6040805180830381865afa158015610e7b573d6000803e3d6000fd5b505050506040513d601f19601f82011682018060405250810190610e9f919061221a565b949350505050565b610eb98c8c8c8c8c8c8c8c8c8c610904565b896001600160a01b03168c8c604051610ed3929190612092565b60405180910390207fe7eae3d3242c73bb622d994dd37f8ab1a7d57a90ff0fcce75102ccdd9eb868988e8e8686604051610f109493929190612269565b60405180910390a3505050505050505050505050565b60006003610f33836116b3565b101592915050565b60008383604051610f4d929190612092565b604080519182900382206020601f870181900481028401810190925285835292508291600091610f9a91908890889081908401838280828437600092019190915250889250610d54915050565b8051909150341015610fbf5760405163044044a560e21b815260040160405180910390fd5b6040517fc475abff00000000000000000000000000000000000000000000000000000000815260048101839052602481018590526000907f00000000000000000000000000000000000000000000000000000000000000006001600160a01b03169063c475abff906044016020604051808303816000875af1158015611049573d6000803e3d6000fd5b505050506040513d601f19601f8201168201806040525081019061106d9190612079565b82519091503411156110b557815133906108fc9061108b90346121e2565b6040518115909202916000818181858888f193505050501580156110b3573d6000803e3d6000fd5b505b837f3da24c024582931cfaf8267d8ed24d13a82a8068d5bd337d30ec45cea4e506ae888834856040516110eb949392919061229b565b60405180910390a250505050505050565b8051602082012060009061110f83610f26565b80156111b857506040517f96e494e8000000000000000000000000000000000000000000000000000000008152600481018290527f00000000000000000000000000000000000000000000000000000000000000006001600160a01b0316906396e494e890602401602060405180830381865afa158015611194573d6000803e3d6000fd5b505050506040513d601f19601f820116820180604052508101906111b89190611e9b565b9392505050565b60008181526001602052604090205442906111fb907f000000000000000000000000000000000000000000000000000000000000000090611feb565b10611235576040517f0a059d71000000000000000000000000000000000000000000000000000000008152600481018290526024016106f9565b6000908152600160205260409020429055565b6112506112d8565b6001600160a01b0381166112cc5760405162461bcd60e51b815260206004820152602660248201527f4f776e61626c653a206e6577206f776e657220697320746865207a65726f206160448201527f646472657373000000000000000000000000000000000000000000000000000060648201526084016106f9565b6112d581611332565b50565b6000546001600160a01b031633146109025760405162461bcd60e51b815260206004820181905260248201527f4f776e61626c653a2063616c6c6572206973206e6f7420746865206f776e657260448201526064016106f9565b600080546001600160a01b038381167fffffffffffffffffffffffff0000000000000000000000000000000000000000831681178455604051919092169283917f8be0079c531659141344cd1fd0a4f28419497f9722a3daafe3b4186f6b6457e09190a35050565b60008181526001602052604090205442906113d6907f000000000000000000000000000000000000000000000000000000000000000090611feb565b1115611411576040517f5320bcf9000000000000000000000000000000000000000000000000000000008152600481018290526024016106f9565b600081815260016020526040902054429061144d907f000000000000000000000000000000000000000000000000000000000000000090611feb565b11611487576040517fcb7690d7000000000000000000000000000000000000000000000000000000008152600481018290526024016106f9565b611490836110fc565b6114c857826040517f477707e80000000000000000000000000000000000000000000000000000000081526004016106f991906118ed565b6000818152600160205260408120556224ea00821015611517576040517f9a71997b000000000000000000000000000000000000000000000000000000008152600481018390526024016106f9565b505050565b604080517fa58877ec636d078e724c52502dd4bf105845a9ae697b2e978efecbf12524d92a602080830191909152818301869052825180830384018152606083019384905280519101207fe32954eb0000000000000000000000000000000000000000000000000000000090925285906001600160a01b0382169063e32954eb906115af908590889088906064016122c2565b6000604051808303816000875af11580156115ce573d6000803e3d6000fd5b505050506040513d6000823e601f3d908101601f191682016040526115f691908101906122e5565b50505050505050565b7f00000000000000000000000000000000000000000000000000000000000000006001600160a01b0316637a806d6b3383858760405160200161164291906123e4565b6040516020818303038152906040526040518563ffffffff1660e01b81526004016116709493929190612425565b6020604051808303816000875af115801561168f573d6000803e3d6000fd5b505050506040513d601f19601f820116820180604052508101906107fc9190612079565b8051600090819081905b808210156118395760008583815181106116d9576116d9612463565b01602001516001600160f81b03191690507f80000000000000000000000000000000000000000000000000000000000000008110156117245761171d600184611feb565b9250611826565b7fe0000000000000000000000000000000000000000000000000000000000000006001600160f81b0319821610156117615761171d600284611feb565b7ff0000000000000000000000000000000000000000000000000000000000000006001600160f81b03198216101561179e5761171d600384611feb565b7ff8000000000000000000000000000000000000000000000000000000000000006001600160f81b0319821610156117db5761171d600484611feb565b7ffc000000000000000000000000000000000000000000000000000000000000006001600160f81b0319821610156118185761171d600584611feb565b611823600684611feb565b92505b508261183181612479565b9350506116bd565b50909392505050565b60006020828403121561185457600080fd5b81357fffffffff00000000000000000000000000000000000000000000000000000000811681146111b857600080fd5b60006020828403121561189657600080fd5b5035919050565b60005b838110156118b85781810151838201526020016118a0565b50506000910152565b600081518084526118d981602086016020860161189d565b601f01601f19169290920160200192915050565b6020815260006111b860208301846118c1565b6001600160a01b03811681146112d557600080fd5b803561192081611900565b919050565b60008060006060848603121561193a57600080fd5b833561194581611900565b9250602084013561195581611900565b929592945050506040919091013590565b634e487b7160e01b600052604160045260246000fd5b604051601f8201601f1916810167ffffffffffffffff811182821017156119a5576119a5611966565b604052919050565b600067ffffffffffffffff8211156119c7576119c7611966565b50601f01601f191660200190565b600082601f8301126119e657600080fd5b81356119f96119f4826119ad565b61197c565b818152846020838601011115611a0e57600080fd5b816020850160208301376000918101602001919091529392505050565b60008083601f840112611a3d57600080fd5b50813567ffffffffffffffff811115611a5557600080fd5b6020830191508360208260051b8501011115611a7057600080fd5b9250929050565b80151581146112d557600080fd5b803561192081611a77565b803561ffff8116811461192057600080fd5b60008060008060008060008060006101008a8c031215611ac157600080fd5b893567ffffffffffffffff80821115611ad957600080fd5b611ae58d838e016119d5565b9a5060208c01359150611af782611900565b90985060408b0135975060608b0135965060808b013590611b1782611900565b90955060a08b01359080821115611b2d57600080fd5b50611b3a8c828d01611a2b565b90955093505060c08a0135611b4e81611a77565b9150611b5c60e08b01611a90565b90509295985092959850929598565b60008083601f840112611b7d57600080fd5b50813567ffffffffffffffff811115611b9557600080fd5b602083019150836020828501011115611a7057600080fd5b6000806000806000806000806000806101008b8d031215611bcd57600080fd5b8a3567ffffffffffffffff80821115611be557600080fd5b611bf18e838f01611b6b565b909c509a5060208d01359150611c0682611900565b90985060408c0135975060608c0135965060808c013590611c2682611900565b90955060a08c01359080821115611c3c57600080fd5b50611c498d828e01611a2b565b90955093505060c08b0135611c5d81611a77565b9150611c6b60e08c01611a90565b90509295989b9194979a5092959850565b60008060408385031215611c8f57600080fd5b823567ffffffffffffffff811115611ca657600080fd5b611cb2858286016119d5565b95602094909401359450505050565b6000806000806000806000806000806000806101208d8f031215611ce457600080fd5b67ffffffffffffffff8d351115611cfa57600080fd5b611d078e8e358f01611b6b565b909c509a50611d1860208e01611915565b995060408d0135985060608d01359750611d3460808e01611915565b965067ffffffffffffffff60a08e01351115611d4f57600080fd5b611d5f8e60a08f01358f01611a2b565b9096509450611d7060c08e01611a85565b9350611d7e60e08e01611a90565b925067ffffffffffffffff6101008e01351115611d9a57600080fd5b611dab8e6101008f01358f01611b6b565b81935080925050509295989b509295989b509295989b565b600060208284031215611dd557600080fd5b813567ffffffffffffffff811115611dec57600080fd5b610e9f848285016119d5565b600080600060408486031215611e0d57600080fd5b833567ffffffffffffffff811115611e2457600080fd5b611e3086828701611b6b565b909790965060209590950135949350505050565b600060208284031215611e5657600080fd5b81356111b881611900565b600181811c90821680611e7557607f821691505b602082108103611e9557634e487b7160e01b600052602260045260246000fd5b50919050565b600060208284031215611ead57600080fd5b81516111b881611a77565b81835281816020850137506000828201602090810191909152601f909101601f19169091010190565b81835260006020808501808196508560051b810191508460005b87811015611f665782840389528135601e19883603018112611f1c57600080fd5b8701858101903567ffffffffffffffff811115611f3857600080fd5b803603821315611f4757600080fd5b611f52868284611eb8565b9a87019a9550505090840190600101611efb565b5091979650505050505050565b60006101008b83526001600160a01b03808c1660208501528a60408501528960608501528089166080850152508060a0840152611fb38184018789611ee1565b94151560c0840152505061ffff9190911660e090910152979650505050505050565b634e487b7160e01b600052601160045260246000fd5b8082018082111561059a5761059a611fd5565b60006020828403121561201057600080fd5b81516111b881611900565b602081526000610e9f602083018486611eb8565b60a08152600061204360a08301888a611eb8565b90506001600160a01b03808716602084015285604084015280851660608401525061ffff83166080830152979650505050505050565b60006020828403121561208b57600080fd5b5051919050565b8183823760009101908152919050565b601f82111561151757600081815260208120601f850160051c810160208610156120c95750805b601f850160051c820191505b818110156120e8578281556001016120d5565b505050505050565b67ffffffffffffffff83111561210857612108611966565b61211c836121168354611e61565b836120a2565b6000601f84116001811461215057600085156121385750838201355b600019600387901b1c1916600186901b1783556121aa565b600083815260209020601f19861690835b828110156121815786850135825560209485019460019092019101612161565b508682101561219e5760001960f88860031b161c19848701351681555b505060018560011b0183555b5050505050565b6080815260006121c5608083018789611eb8565b602083019590955250604081019290925260609091015292915050565b8181038181111561059a5761059a611fd5565b60608152600061220860608301866118c1565b60208301949094525060400152919050565b60006040828403121561222c57600080fd5b6040516040810181811067ffffffffffffffff8211171561224f5761224f611966565b604052825181526020928301519281019290925250919050565b60408152600061227d604083018688611eb8565b8281036020840152612290818587611eb8565b979650505050505050565b6060815260006122af606083018688611eb8565b6020830194909452506040015292915050565b8381526040602082015260006122dc604083018486611ee1565b95945050505050565b600060208083850312156122f857600080fd5b825167ffffffffffffffff8082111561231057600080fd5b818501915085601f83011261232457600080fd5b81518181111561233657612336611966565b8060051b61234585820161197c565b918252838101850191858101908984111561235f57600080fd5b86860192505b838310156123d75782518581111561237d5760008081fd5b8601603f81018b1361238f5760008081fd5b8781015160406123a16119f4836119ad565b8281528d828486010111156123b65760008081fd5b6123c5838c830184870161189d565b85525050509186019190860190612365565b9998505050505050505050565b600082516123f681846020870161189d565b7f2e6a66696e000000000000000000000000000000000000000000000000000000920191825250600501919050565b60006001600160a01b03808716835280861660208401528085166040840152506080606083015261245960808301846118c1565b9695505050505050565b634e487b7160e01b600052603260045260246000fd5b60006001820161248b5761248b611fd5565b506001019056fea264697066735822122045c2bf0c50efa6b8680b09059255d07cebc6cdafb5bdd504a87e22a517772c1664736f6c63430008110033",
  "devdoc": {
    "details": "A registrar controller for registering and renewing names at fixed cost.",
    "kind": "dev",
    "methods": {
      "owner()": {
        "details": "Returns the address of the current owner."
      },
      "recoverFunds(address,address,uint256)": {
        "details": "The contract is Ownable and only the owner can call the recover function.",
        "params": {
          "_amount": "The amount of tokens to recover.",
          "_to": "The address to send the tokens to.",
          "_token": "The address of the ERC20 token to recover"
        }
      },
      "renounceOwnership()": {
        "details": "Leaves the contract without owner. It will not be possible to call `onlyOwner` functions. Can only be called by the current owner. NOTE: Renouncing ownership will leave the contract without an owner, thereby disabling any functionality that is only available to the owner."
      },
      "transferOwnership(address)": {
        "details": "Transfers ownership of the contract to a new account (`newOwner`). Can only be called by the current owner."
      }
    },
    "version": 1
  },
  "userdoc": {
    "kind": "user",
    "methods": {
      "recoverFunds(address,address,uint256)": {
        "notice": "Recover ERC20 tokens sent to the contract by mistake."
      }
    },
    "version": 1
  },
  "storageLayout": {
    "storage": [
      {
        "astId": 1606,
        "contract": "contracts/ethregistrar/ETHRegistrarController.sol:ETHRegistrarController",
        "label": "_owner",
        "offset": 0,
        "slot": "0",
        "type": "t_address"
      },
      {
        "astId": 15546,
        "contract": "contracts/ethregistrar/ETHRegistrarController.sol:ETHRegistrarController",
        "label": "commitments",
        "offset": 0,
        "slot": "1",
        "type": "t_mapping(t_bytes32,t_uint256)"
      },
      {
        "astId": 15898,
        "contract": "contracts/ethregistrar/ETHRegistrarController.sol:ETHRegistrarController",
        "label": "names",
        "offset": 0,
        "slot": "2",
        "type": "t_mapping(t_bytes32,t_string_storage)"
      }
    ],
    "types": {
      "t_address": {
        "encoding": "inplace",
        "label": "address",
        "numberOfBytes": "20"
      },
      "t_bytes32": {
        "encoding": "inplace",
        "label": "bytes32",
        "numberOfBytes": "32"
      },
      "t_mapping(t_bytes32,t_string_storage)": {
        "encoding": "mapping",
        "key": "t_bytes32",
        "label": "mapping(bytes32 => string)",
        "numberOfBytes": "32",
        "value": "t_string_storage"
      },
      "t_mapping(t_bytes32,t_uint256)": {
        "encoding": "mapping",
        "key": "t_bytes32",
        "label": "mapping(bytes32 => uint256)",
        "numberOfBytes": "32",
        "value": "t_uint256"
      },
      "t_string_storage": {
        "encoding": "bytes",
        "label": "string",
        "numberOfBytes": "32"
      },
      "t_uint256": {
        "encoding": "inplace",
        "label": "uint256",
        "numberOfBytes": "32"
      }
    }
  }
}