{
  "address": "0x7505a331c4B7eDdbbc84c56641770094D2dc9dac",
  "abi": [
    {
      "inputs": [
        {
          "internalType": "contract IJNSAdminContract",
          "name": "_adminContract",
          "type": "address"
        },
        {
          "internalType": "uint256[]",
          "name": "_rentPrices",
          "type": "uint256[]"
        },
        {
          "internalType": "uint256",
          "name": "_startPremium",
          "type": "uint256"
        },
        {
          "internalType": "uint256",
          "name": "totalDays",
          "type": "uint256"
        }
      ],
      "stateMutability": "nonpayable",
      "type": "constructor"
    },
    {
      "anonymous": false,
      "inputs": [
        {
          "indexed": false,
          "internalType": "uint256[]",
          "name": "prices",
          "type": "uint256[]"
        }
      ],
      "name": "RentPriceChanged",
      "type": "event"
    },
    {
      "inputs": [],
      "name": "adminContract",
      "outputs": [
        {
          "internalType": "contract IJNSAdminContract",
          "name": "",
          "type": "address"
        }
      ],
      "stateMutability": "view",
      "type": "function"
    },
    {
      "inputs": [
        {
          "internalType": "uint256",
          "name": "startPremium",
          "type": "uint256"
        },
        {
          "internalType": "uint256",
          "name": "elapsed",
          "type": "uint256"
        }
      ],
      "name": "decayedPremium",
      "outputs": [
        {
          "internalType": "uint256",
          "name": "",
          "type": "uint256"
        }
      ],
      "stateMutability": "pure",
      "type": "function"
    },
    {
      "inputs": [
        {
          "internalType": "string",
          "name": "name",
          "type": "string"
        },
        {
          "internalType": "uint256",
          "name": "expires",
          "type": "uint256"
        },
        {
          "internalType": "uint256",
          "name": "duration",
          "type": "uint256"
        }
      ],
      "name": "premium",
      "outputs": [
        {
          "internalType": "uint256",
          "name": "",
          "type": "uint256"
        }
      ],
      "stateMutability": "view",
      "type": "function"
    },
    {
      "inputs": [
        {
          "internalType": "string",
          "name": "name",
          "type": "string"
        },
        {
          "internalType": "uint256",
          "name": "expires",
          "type": "uint256"
        },
        {
          "internalType": "uint256",
          "name": "duration",
          "type": "uint256"
        }
      ],
      "name": "price",
      "outputs": [
        {
          "components": [
            {
              "internalType": "uint256",
              "name": "base",
              "type": "uint256"
            },
            {
              "internalType": "uint256",
              "name": "premium",
              "type": "uint256"
            }
          ],
          "internalType": "struct IPriceOracle.Price",
          "name": "",
          "type": "tuple"
        }
      ],
      "stateMutability": "view",
      "type": "function"
    },
    {
      "inputs": [],
      "name": "price1Letter",
      "outputs": [
        {
          "internalType": "uint256",
          "name": "",
          "type": "uint256"
        }
      ],
      "stateMutability": "view",
      "type": "function"
    },
    {
      "inputs": [],
      "name": "price2Letter",
      "outputs": [
        {
          "internalType": "uint256",
          "name": "",
          "type": "uint256"
        }
      ],
      "stateMutability": "view",
      "type": "function"
    },
    {
      "inputs": [],
      "name": "price3Letter",
      "outputs": [
        {
          "internalType": "uint256",
          "name": "",
          "type": "uint256"
        }
      ],
      "stateMutability": "view",
      "type": "function"
    },
    {
      "inputs": [],
      "name": "price4Letter",
      "outputs": [
        {
          "internalType": "uint256",
          "name": "",
          "type": "uint256"
        }
      ],
      "stateMutability": "view",
      "type": "function"
    },
    {
      "inputs": [],
      "name": "price5Letter",
      "outputs": [
        {
          "internalType": "uint256",
          "name": "",
          "type": "uint256"
        }
      ],
      "stateMutability": "view",
      "type": "function"
    },
    {
      "inputs": [
        {
          "internalType": "bytes4",
          "name": "interfaceID",
          "type": "bytes4"
        }
      ],
      "name": "supportsInterface",
      "outputs": [
        {
          "internalType": "bool",
          "name": "",
          "type": "bool"
        }
      ],
      "stateMutability": "view",
      "type": "function"
    }
  ],
  "transactionHash": "0x03599f54854c315acf6beb0cc0bd2780cbcd6b912038bfc98bb7d278b06d2621",
  "args": [
    "0x907053d52b6f54ad6e169822271DB322767b5117",
    [
      0,
      0,
      "20294266869609",
      "5073566717402",
      "158548959919"
    ],
    "100000000000000000000000000",
    21
  ],
  "numDeployments": 1,
  "solcInputHash": "cfa2a405305b52b18bcf95d82901f3c5",
  "bytecode": "0x6101606040523480156200001257600080fd5b506040516200112638038062001126833981016040819052620000359162000137565b600080546001600160a01b0319166001600160a01b03861617815583518591859182919062000068576200006862000232565b602002602001015160808181525050806001815181106200008d576200008d62000232565b602002602001015160a0818152505080600281518110620000b257620000b262000232565b602002602001015160c0818152505080600381518110620000d757620000d762000232565b602002602001015160e0818152505080600481518110620000fc57620000fc62000232565b60209081029190910101516101005250506101208290521c6101405250620002489050565b634e487b7160e01b600052604160045260246000fd5b600080600080608085870312156200014e57600080fd5b84516001600160a01b03811681146200016657600080fd5b602086810151919550906001600160401b03808211156200018657600080fd5b818801915088601f8301126200019b57600080fd5b815181811115620001b057620001b062000121565b8060051b604051601f19603f83011681018181108582111715620001d857620001d862000121565b60405291825284820192508381018501918b831115620001f757600080fd5b938501935b828510156200021757845184529385019392850192620001fc565b60408b01516060909b0151999c909b50975050505050505050565b634e487b7160e01b600052603260045260246000fd5b60805160a05160c05160e051610100516101205161014051610e5a620002cc600039600081816108c801526108f20152600061089f01526000818161015301526102cd015260008181610233015261030601526000818161018d015261033801526000818161020c015261036a01526000818160f001526103940152610e5a6000f3fe608060405234801561001057600080fd5b50600436106100be5760003560e01c8063a200e15311610076578063c05c5e941161005b578063c05c5e94146101c2578063cd5d2c7414610207578063d820ed421461022e57600080fd5b8063a200e15314610188578063a34e3596146101af57600080fd5b806350e9a715116100a757806350e9a7151461012057806359b6b86c1461014e57806359e1777c1461017557600080fd5b806301ffc9a7146100c35780632c0fd74c146100eb575b600080fd5b6100d66100d1366004610c4e565b610255565b60405190151581526020015b60405180910390f35b6101127f000000000000000000000000000000000000000000000000000000000000000081565b6040519081526020016100e2565b61013361012e366004610c90565b610266565b604080518251815260209283015192810192909252016100e2565b6101127f000000000000000000000000000000000000000000000000000000000000000081565b610112610183366004610d0f565b61042c565b6101127f000000000000000000000000000000000000000000000000000000000000000081565b6101126101bd366004610c90565b6104c7565b6000546101e29073ffffffffffffffffffffffffffffffffffffffff1681565b60405173ffffffffffffffffffffffffffffffffffffffff90911681526020016100e2565b6101127f000000000000000000000000000000000000000000000000000000000000000081565b6101127f000000000000000000000000000000000000000000000000000000000000000081565b600061026082610518565b92915050565b604080518082019091526000808252602082015260006102bb86868080601f0160208091040260200160405190810160405280939291908181526020018383808284376000920191909152506105b092505050565b90506000600582106102f8576102f1847f0000000000000000000000000000000000000000000000000000000000000000610d47565b90506103bb565b8160040361032a576102f1847f0000000000000000000000000000000000000000000000000000000000000000610d47565b8160030361035c576102f1847f0000000000000000000000000000000000000000000000000000000000000000610d47565b8160020361038e576102f1847f0000000000000000000000000000000000000000000000000000000000000000610d47565b6103b8847f0000000000000000000000000000000000000000000000000000000000000000610d47565b90505b60405180604001604052806103cf8361073f565b815260200161041f61041a8a8a8080601f0160208091040260200160405190810160405280939291908181526020018383808284376000920191909152508c92508b91506108699050565b61073f565b9052979650505050505050565b60008062015180610445670de0b6b3a764000085610d47565b61044f9190610d5e565b90506000610465670de0b6b3a764000083610d5e565b905084811c600061047e670de0b6b3a764000084610d47565b6104889085610d80565b90506000670de0b6b3a76400006104a28362010000610d47565b6104ac9190610d5e565b905060006104ba828561092e565b9998505050505050505050565b600061050f61041a86868080601f0160208091040260200160405190810160405280939291908181526020018383808284376000920191909152508892508791506108699050565b95945050505050565b60007fffffffff0000000000000000000000000000000000000000000000000000000082167f01ffc9a700000000000000000000000000000000000000000000000000000000148061026057507fffffffff0000000000000000000000000000000000000000000000000000000082167f50e9a715000000000000000000000000000000000000000000000000000000001492915050565b8051600090819081905b808210156107365760008583815181106105d6576105d6610d93565b01602001516001600160f81b03191690507f80000000000000000000000000000000000000000000000000000000000000008110156106215761061a600184610da9565b9250610723565b7fe0000000000000000000000000000000000000000000000000000000000000006001600160f81b03198216101561065e5761061a600284610da9565b7ff0000000000000000000000000000000000000000000000000000000000000006001600160f81b03198216101561069b5761061a600384610da9565b7ff8000000000000000000000000000000000000000000000000000000000000006001600160f81b0319821610156106d85761061a600484610da9565b7ffc000000000000000000000000000000000000000000000000000000000000006001600160f81b0319821610156107155761061a600584610da9565b610720600684610da9565b92505b508261072e81610dbc565b9350506105ba565b50909392505050565b60008054604080517fa89ae4ba0000000000000000000000000000000000000000000000000000000081529051839273ffffffffffffffffffffffffffffffffffffffff169163a89ae4ba9160048083019260209291908290030181865afa1580156107af573d6000803e3d6000fd5b505050506040513d601f19601f820116820180604052508101906107d39190610dd5565b905060008173ffffffffffffffffffffffffffffffffffffffff166350d25bcd6040518163ffffffff1660e01b8152600401602060405180830381865afa158015610822573d6000803e3d6000fd5b505050506040513d601f19601f820116820180604052508101906108469190610e0b565b905080610857856305f5e100610d47565b6108619190610d5e565b949350505050565b60006108786276a70084610da9565b92504283111561088a57506000610927565b60006108968442610d80565b905060006108c47f00000000000000000000000000000000000000000000000000000000000000008361042c565b90507f00000000000000000000000000000000000000000000000000000000000000008110610920576109177f000000000000000000000000000000000000000000000000000000000000000082610d80565b92505050610927565b6000925050505b9392505050565b6000600183161561096157670de0b6b3a7640000610954670de0ad151d09418084610d47565b61095e9190610d5e565b91505b600283161561099257670de0b6b3a7640000610985670de0a3769959680084610d47565b61098f9190610d5e565b91505b60048316156109c357670de0b6b3a76400006109b6670de09039a5fa510084610d47565b6109c09190610d5e565b91505b60088316156109f457670de0b6b3a76400006109e7670de069c00f3e120084610d47565b6109f19190610d5e565b91505b6010831615610a2557670de0b6b3a7640000610a18670de01cce21c9440084610d47565b610a229190610d5e565b91505b6020831615610a5657670de0b6b3a7640000610a49670ddf82ef46ce100084610d47565b610a539190610d5e565b91505b6040831615610a8757670de0b6b3a7640000610a7a670dde4f458f8e8d8084610d47565b610a849190610d5e565b91505b6080831615610ab857670de0b6b3a7640000610aab670ddbe84213d5f08084610d47565b610ab59190610d5e565b91505b610100831615610aea57670de0b6b3a7640000610add670dd71b7aa6df5b8084610d47565b610ae79190610d5e565b91505b610200831615610b1c57670de0b6b3a7640000610b0f670dcd86e7f28cde0084610d47565b610b199190610d5e565b91505b610400831615610b4e57670de0b6b3a7640000610b41670dba71a3084ad68084610d47565b610b4b9190610d5e565b91505b610800831615610b8057670de0b6b3a7640000610b73670d94961b13dbde8084610d47565b610b7d9190610d5e565b91505b611000831615610bb257670de0b6b3a7640000610ba5670d4a171c35c9838084610d47565b610baf9190610d5e565b91505b612000831615610be457670de0b6b3a7640000610bd7670cb9da519ccfb70084610d47565b610be19190610d5e565b91505b614000831615610c1657670de0b6b3a7640000610c09670bab76d59c18d68084610d47565b610c139190610d5e565b91505b618000831615610c4857670de0b6b3a7640000610c3b6709d025defee4df8084610d47565b610c459190610d5e565b91505b50919050565b600060208284031215610c6057600080fd5b81357fffffffff000000000000000000000000000000000000000000000000000000008116811461092757600080fd5b60008060008060608587031215610ca657600080fd5b843567ffffffffffffffff80821115610cbe57600080fd5b818701915087601f830112610cd257600080fd5b813581811115610ce157600080fd5b886020828501011115610cf357600080fd5b6020928301999098509187013596604001359550909350505050565b60008060408385031215610d2257600080fd5b50508035926020909101359150565b634e487b7160e01b600052601160045260246000fd5b808202811582820484141761026057610260610d31565b600082610d7b57634e487b7160e01b600052601260045260246000fd5b500490565b8181038181111561026057610260610d31565b634e487b7160e01b600052603260045260246000fd5b8082018082111561026057610260610d31565b600060018201610dce57610dce610d31565b5060010190565b600060208284031215610de757600080fd5b815173ffffffffffffffffffffffffffffffffffffffff8116811461092757600080fd5b600060208284031215610e1d57600080fd5b505191905056fea26469706673582212208c8ad72741871b559bed9504efd6c065bfab9b38781060cb826b40fb6afc60e364736f6c63430008110033",
  "devdoc": {
    "kind": "dev",
    "methods": {
      "decayedPremium(uint256,uint256)": {
        "details": "Returns the premium price at current time elapsed",
        "params": {
          "elapsed": "time past since expiry",
          "startPremium": "starting price"
        }
      },
      "premium(string,uint256,uint256)": {
        "details": "Returns the pricing premium in wei."
      },
      "price(string,uint256,uint256)": {
        "details": "Returns the price to register or renew a name.",
        "params": {
          "duration": "How long the name is being registered or extended for, in seconds.",
          "expires": "When the name presently expires (0 if this is a new registration).",
          "name": "The name being registered or renewed."
        },
        "returns": {
          "_0": "base premium tuple of base price + premium price"
        }
      }
    },
    "version": 1
  },
  "userdoc": {
    "kind": "user",
    "methods": {},
    "version": 1
  },
  "storageLayout": {
    "storage": [
      {
        "astId": 16800,
        "contract": "contracts/ethregistrar/ExponentialPremiumPriceOracle.sol:ExponentialPremiumPriceOracle",
        "label": "adminContract",
        "offset": 0,
        "slot": "0",
        "type": "t_contract(IJNSAdminContract)29373"
      }
    ],
    "types": {
      "t_contract(IJNSAdminContract)29373": {
        "encoding": "inplace",
        "label": "contract IJNSAdminContract",
        "numberOfBytes": "20"
      }
    }
  }
}