{
  "address": "0xb75b6B31b8cA823cD1455e940656188319Bb05F4",
  "abi": [
    {
      "inputs": [
        {
          "internalType": "contract IJNSAdminContract",
          "name": "_adminContract",
          "type": "address"
        },
        {
          "internalType": "uint256",
          "name": "_startPremium",
          "type": "uint256"
        },
        {
          "internalType": "uint256",
          "name": "totalDays",
          "type": "uint256"
        }
      ],
      "stateMutability": "nonpayable",
      "type": "constructor"
    },
    {
      "anonymous": false,
      "inputs": [
        {
          "indexed": false,
          "internalType": "uint256[]",
          "name": "prices",
          "type": "uint256[]"
        }
      ],
      "name": "RentPriceChanged",
      "type": "event"
    },
    {
      "inputs": [],
      "name": "adminContract",
      "outputs": [
        {
          "internalType": "contract IJNSAdminContract",
          "name": "",
          "type": "address"
        }
      ],
      "stateMutability": "view",
      "type": "function"
    },
    {
      "inputs": [
        {
          "internalType": "uint256",
          "name": "startPremium",
          "type": "uint256"
        },
        {
          "internalType": "uint256",
          "name": "elapsed",
          "type": "uint256"
        }
      ],
      "name": "decayedPremium",
      "outputs": [
        {
          "internalType": "uint256",
          "name": "",
          "type": "uint256"
        }
      ],
      "stateMutability": "pure",
      "type": "function"
    },
    {
      "inputs": [
        {
          "internalType": "string",
          "name": "name",
          "type": "string"
        },
        {
          "internalType": "uint256",
          "name": "expires",
          "type": "uint256"
        },
        {
          "internalType": "uint256",
          "name": "duration",
          "type": "uint256"
        }
      ],
      "name": "premium",
      "outputs": [
        {
          "internalType": "uint256",
          "name": "",
          "type": "uint256"
        }
      ],
      "stateMutability": "view",
      "type": "function"
    },
    {
      "inputs": [
        {
          "internalType": "string",
          "name": "name",
          "type": "string"
        },
        {
          "internalType": "uint256",
          "name": "expires",
          "type": "uint256"
        },
        {
          "internalType": "uint256",
          "name": "duration",
          "type": "uint256"
        }
      ],
      "name": "price",
      "outputs": [
        {
          "components": [
            {
              "internalType": "uint256",
              "name": "base",
              "type": "uint256"
            },
            {
              "internalType": "uint256",
              "name": "premium",
              "type": "uint256"
            }
          ],
          "internalType": "struct IPriceOracle.Price",
          "name": "",
          "type": "tuple"
        }
      ],
      "stateMutability": "view",
      "type": "function"
    },
    {
      "inputs": [
        {
          "internalType": "bytes4",
          "name": "interfaceID",
          "type": "bytes4"
        }
      ],
      "name": "supportsInterface",
      "outputs": [
        {
          "internalType": "bool",
          "name": "",
          "type": "bool"
        }
      ],
      "stateMutability": "view",
      "type": "function"
    }
  ],
  "transactionHash": "0xa803a939b71c7a4689c18f7d5975b4e72eca1fcec9a661569f8e338b622341c5",
  "args": [
    "0x49eb98E878b2CEceA4aF34406b3Fb0475c80De36",
    "100000000000000000000000000",
    21
  ],
  "numDeployments": 1,
  "solcInputHash": "92c55bd66c3f577a8ba7d970be13107b",
  "bytecode": "0x60c060405234801561001057600080fd5b5060405161107d38038061107d83398101604081905261002f9161005f565b600080546001600160a01b0319166001600160a01b0394909416939093179092556080819052901c60a0526100a2565b60008060006060848603121561007457600080fd5b83516001600160a01b038116811461008b57600080fd5b602085015160409095015190969495509392505050565b60805160a051610faf6100ce6000396000818161095601526109800152600061092d0152610faf6000f3fe608060405234801561001057600080fd5b50600436106100675760003560e01c806359e1777c1161005057806359e1777c146100c2578063a34e3596146100e3578063c05c5e94146100f657600080fd5b806301ffc9a71461006c57806350e9a71514610094575b600080fd5b61007f61007a366004610cdc565b610121565b60405190151581526020015b60405180910390f35b6100a76100a2366004610d1e565b610132565b6040805182518152602092830151928101929092520161008b565b6100d56100d0366004610d9d565b6104d4565b60405190815260200161008b565b6100d56100f1366004610d1e565b61056f565b600054610109906001600160a01b031681565b6040516001600160a01b03909116815260200161008b565b600061012c826105c0565b92915050565b6040805180820190915260008082526020820152600061018786868080601f01602080910402602001604051908101604052809392919081815260200183838082843760009201919091525061065892505050565b905060006005821061022e576000805460408051631b1b8ccb60e11b8152905187936001600160a01b0390931692633637199692600480820193918290030181865afa1580156101db573d6000803e3d6000fd5b505050506040513d6000823e601f3d908101601f191682016040526102039190810190610dd5565b60048151811061021557610215610e93565b60200260200101516102279190610ebf565b9050610463565b816004036102b8576000805460408051631b1b8ccb60e11b8152905187936001600160a01b0390931692633637199692600480820193918290030181865afa15801561027e573d6000803e3d6000fd5b505050506040513d6000823e601f3d908101601f191682016040526102a69190810190610dd5565b60038151811061021557610215610e93565b81600303610342576000805460408051631b1b8ccb60e11b8152905187936001600160a01b0390931692633637199692600480820193918290030181865afa158015610308573d6000803e3d6000fd5b505050506040513d6000823e601f3d908101601f191682016040526103309190810190610dd5565b60028151811061021557610215610e93565b816002036103cc576000805460408051631b1b8ccb60e11b8152905187936001600160a01b0390931692633637199692600480820193918290030181865afa158015610392573d6000803e3d6000fd5b505050506040513d6000823e601f3d908101601f191682016040526103ba9190810190610dd5565b60018151811061021557610215610e93565b6000805460408051631b1b8ccb60e11b8152905187936001600160a01b0390931692633637199692600480820193918290030181865afa158015610414573d6000803e3d6000fd5b505050506040513d6000823e601f3d908101601f1916820160405261043c9190810190610dd5565b60008151811061044e5761044e610e93565b60200260200101516104609190610ebf565b90505b6040518060400160405280610477836107e7565b81526020016104c76104c28a8a8080601f0160208091040260200160405190810160405280939291908181526020018383808284376000920191909152508c92508b91506108f79050565b6107e7565b9052979650505050505050565b600080620151806104ed670de0b6b3a764000085610ebf565b6104f79190610ed6565b9050600061050d670de0b6b3a764000083610ed6565b905084811c6000610526670de0b6b3a764000084610ebf565b6105309085610ef8565b90506000670de0b6b3a764000061054a8362010000610ebf565b6105549190610ed6565b9050600061056282856109bc565b9998505050505050505050565b60006105b76104c286868080601f0160208091040260200160405190810160405280939291908181526020018383808284376000920191909152508892508791506108f79050565b95945050505050565b60007fffffffff0000000000000000000000000000000000000000000000000000000082167f01ffc9a700000000000000000000000000000000000000000000000000000000148061012c57507fffffffff0000000000000000000000000000000000000000000000000000000082167f50e9a715000000000000000000000000000000000000000000000000000000001492915050565b8051600090819081905b808210156107de57600085838151811061067e5761067e610e93565b01602001516001600160f81b03191690507f80000000000000000000000000000000000000000000000000000000000000008110156106c9576106c2600184610f0b565b92506107cb565b7fe0000000000000000000000000000000000000000000000000000000000000006001600160f81b031982161015610706576106c2600284610f0b565b7ff0000000000000000000000000000000000000000000000000000000000000006001600160f81b031982161015610743576106c2600384610f0b565b7ff8000000000000000000000000000000000000000000000000000000000000006001600160f81b031982161015610780576106c2600484610f0b565b7ffc000000000000000000000000000000000000000000000000000000000000006001600160f81b0319821610156107bd576106c2600584610f0b565b6107c8600684610f0b565b92505b50826107d681610f1e565b935050610662565b50909392505050565b60008054604080517fa89ae4ba000000000000000000000000000000000000000000000000000000008152905183926001600160a01b03169163a89ae4ba9160048083019260209291908290030181865afa15801561084a573d6000803e3d6000fd5b505050506040513d601f19601f8201168201806040525081019061086e9190610f37565b90506000816001600160a01b03166350d25bcd6040518163ffffffff1660e01b8152600401602060405180830381865afa1580156108b0573d6000803e3d6000fd5b505050506040513d601f19601f820116820180604052508101906108d49190610f60565b9050806108e5856305f5e100610ebf565b6108ef9190610ed6565b949350505050565b60006109066276a70084610f0b565b925042831115610918575060006109b5565b60006109248442610ef8565b905060006109527f0000000000000000000000000000000000000000000000000000000000000000836104d4565b90507f000000000000000000000000000000000000000000000000000000000000000081106109ae576109a57f000000000000000000000000000000000000000000000000000000000000000082610ef8565b925050506109b5565b6000925050505b9392505050565b600060018316156109ef57670de0b6b3a76400006109e2670de0ad151d09418084610ebf565b6109ec9190610ed6565b91505b6002831615610a2057670de0b6b3a7640000610a13670de0a3769959680084610ebf565b610a1d9190610ed6565b91505b6004831615610a5157670de0b6b3a7640000610a44670de09039a5fa510084610ebf565b610a4e9190610ed6565b91505b6008831615610a8257670de0b6b3a7640000610a75670de069c00f3e120084610ebf565b610a7f9190610ed6565b91505b6010831615610ab357670de0b6b3a7640000610aa6670de01cce21c9440084610ebf565b610ab09190610ed6565b91505b6020831615610ae457670de0b6b3a7640000610ad7670ddf82ef46ce100084610ebf565b610ae19190610ed6565b91505b6040831615610b1557670de0b6b3a7640000610b08670dde4f458f8e8d8084610ebf565b610b129190610ed6565b91505b6080831615610b4657670de0b6b3a7640000610b39670ddbe84213d5f08084610ebf565b610b439190610ed6565b91505b610100831615610b7857670de0b6b3a7640000610b6b670dd71b7aa6df5b8084610ebf565b610b759190610ed6565b91505b610200831615610baa57670de0b6b3a7640000610b9d670dcd86e7f28cde0084610ebf565b610ba79190610ed6565b91505b610400831615610bdc57670de0b6b3a7640000610bcf670dba71a3084ad68084610ebf565b610bd99190610ed6565b91505b610800831615610c0e57670de0b6b3a7640000610c01670d94961b13dbde8084610ebf565b610c0b9190610ed6565b91505b611000831615610c4057670de0b6b3a7640000610c33670d4a171c35c9838084610ebf565b610c3d9190610ed6565b91505b612000831615610c7257670de0b6b3a7640000610c65670cb9da519ccfb70084610ebf565b610c6f9190610ed6565b91505b614000831615610ca457670de0b6b3a7640000610c97670bab76d59c18d68084610ebf565b610ca19190610ed6565b91505b618000831615610cd657670de0b6b3a7640000610cc96709d025defee4df8084610ebf565b610cd39190610ed6565b91505b50919050565b600060208284031215610cee57600080fd5b81357fffffffff00000000000000000000000000000000000000000000000000000000811681146109b557600080fd5b60008060008060608587031215610d3457600080fd5b843567ffffffffffffffff80821115610d4c57600080fd5b818701915087601f830112610d6057600080fd5b813581811115610d6f57600080fd5b886020828501011115610d8157600080fd5b6020928301999098509187013596604001359550909350505050565b60008060408385031215610db057600080fd5b50508035926020909101359150565b634e487b7160e01b600052604160045260246000fd5b60006020808385031215610de857600080fd5b825167ffffffffffffffff80821115610e0057600080fd5b818501915085601f830112610e1457600080fd5b815181811115610e2657610e26610dbf565b8060051b604051601f19603f83011681018181108582111715610e4b57610e4b610dbf565b604052918252848201925083810185019188831115610e6957600080fd5b938501935b82851015610e8757845184529385019392850192610e6e565b98975050505050505050565b634e487b7160e01b600052603260045260246000fd5b634e487b7160e01b600052601160045260246000fd5b808202811582820484141761012c5761012c610ea9565b600082610ef357634e487b7160e01b600052601260045260246000fd5b500490565b8181038181111561012c5761012c610ea9565b8082018082111561012c5761012c610ea9565b600060018201610f3057610f30610ea9565b5060010190565b600060208284031215610f4957600080fd5b81516001600160a01b03811681146109b557600080fd5b600060208284031215610f7257600080fd5b505191905056fea264697066735822122069f35fa4940ee2e602c22b68b9534e238e587933f80dd4a715982c8eaae2f06664736f6c63430008110033",
  "devdoc": {
    "kind": "dev",
    "methods": {
      "decayedPremium(uint256,uint256)": {
        "details": "Returns the premium price at current time elapsed",
        "params": {
          "elapsed": "time past since expiry",
          "startPremium": "starting price"
        }
      },
      "premium(string,uint256,uint256)": {
        "details": "Returns the pricing premium in wei."
      },
      "price(string,uint256,uint256)": {
        "details": "Returns the price to register or renew a name.",
        "params": {
          "duration": "How long the name is being registered or extended for, in seconds.",
          "expires": "When the name presently expires (0 if this is a new registration).",
          "name": "The name being registered or renewed."
        },
        "returns": {
          "_0": "base premium tuple of base price + premium price"
        }
      }
    },
    "version": 1
  },
  "userdoc": {
    "kind": "user",
    "methods": {},
    "version": 1
  },
  "storageLayout": {
    "storage": [
      {
        "astId": 17431,
        "contract": "contracts/ethregistrar/ExponentialPremiumPriceOracle.sol:ExponentialPremiumPriceOracle",
        "label": "adminContract",
        "offset": 0,
        "slot": "0",
        "type": "t_contract(IJNSAdminContract)29985"
      }
    ],
    "types": {
      "t_contract(IJNSAdminContract)29985": {
        "encoding": "inplace",
        "label": "contract IJNSAdminContract",
        "numberOfBytes": "20"
      }
    }
  }
}