{
  "address": "0x1A18C4699273746c335d2d97fBa51E638f080B2E",
  "abi": [
    {
      "inputs": [
        {
          "internalType": "address",
          "name": "_recipientAdminAddress",
          "type": "address"
        },
        {
          "internalType": "address",
          "name": "_oracleAdminAddress",
          "type": "address"
        },
        {
          "internalType": "address",
          "name": "_nameManagerAdminAddress",
          "type": "address"
        },
        {
          "internalType": "address payable",
          "name": "_recipientAddress",
          "type": "address"
        },
        {
          "internalType": "uint256[]",
          "name": "_rentPrices",
          "type": "uint256[]"
        }
      ],
      "stateMutability": "nonpayable",
      "type": "constructor"
    },
    {
      "inputs": [],
      "name": "EtherNotForwarded",
      "type": "error"
    },
    {
      "inputs": [],
      "name": "RecipientAddressNotSet",
      "type": "error"
    },
    {
      "anonymous": false,
      "inputs": [],
      "name": "DefaultAdminDelayChangeCanceled",
      "type": "event"
    },
    {
      "anonymous": false,
      "inputs": [
        {
          "indexed": false,
          "internalType": "uint48",
          "name": "newDelay",
          "type": "uint48"
        },
        {
          "indexed": false,
          "internalType": "uint48",
          "name": "effectSchedule",
          "type": "uint48"
        }
      ],
      "name": "DefaultAdminDelayChangeScheduled",
      "type": "event"
    },
    {
      "anonymous": false,
      "inputs": [],
      "name": "DefaultAdminTransferCanceled",
      "type": "event"
    },
    {
      "anonymous": false,
      "inputs": [
        {
          "indexed": true,
          "internalType": "address",
          "name": "newAdmin",
          "type": "address"
        },
        {
          "indexed": false,
          "internalType": "uint48",
          "name": "acceptSchedule",
          "type": "uint48"
        }
      ],
      "name": "DefaultAdminTransferScheduled",
      "type": "event"
    },
    {
      "anonymous": false,
      "inputs": [
        {
          "indexed": true,
          "internalType": "address",
          "name": "from",
          "type": "address"
        },
        {
          "indexed": true,
          "internalType": "address",
          "name": "to",
          "type": "address"
        },
        {
          "indexed": false,
          "internalType": "uint256",
          "name": "amount",
          "type": "uint256"
        }
      ],
      "name": "EtherForwarded",
      "type": "event"
    },
    {
      "anonymous": false,
      "inputs": [
        {
          "indexed": true,
          "internalType": "address",
          "name": "from",
          "type": "address"
        },
        {
          "indexed": true,
          "internalType": "address",
          "name": "to",
          "type": "address"
        }
      ],
      "name": "NameManagerAddressChanged",
      "type": "event"
    },
    {
      "anonymous": false,
      "inputs": [
        {
          "indexed": true,
          "internalType": "address",
          "name": "from",
          "type": "address"
        },
        {
          "indexed": true,
          "internalType": "address",
          "name": "to",
          "type": "address"
        }
      ],
      "name": "OracleAddressChanged",
      "type": "event"
    },
    {
      "anonymous": false,
      "inputs": [
        {
          "indexed": true,
          "internalType": "address",
          "name": "from",
          "type": "address"
        },
        {
          "indexed": true,
          "internalType": "address",
          "name": "to",
          "type": "address"
        }
      ],
      "name": "RecipientAddressChanged",
      "type": "event"
    },
    {
      "anonymous": false,
      "inputs": [
        {
          "indexed": false,
          "internalType": "uint256[]",
          "name": "prices",
          "type": "uint256[]"
        }
      ],
      "name": "RentPriceChanged",
      "type": "event"
    },
    {
      "anonymous": false,
      "inputs": [
        {
          "indexed": true,
          "internalType": "bytes32",
          "name": "role",
          "type": "bytes32"
        },
        {
          "indexed": true,
          "internalType": "bytes32",
          "name": "previousAdminRole",
          "type": "bytes32"
        },
        {
          "indexed": true,
          "internalType": "bytes32",
          "name": "newAdminRole",
          "type": "bytes32"
        }
      ],
      "name": "RoleAdminChanged",
      "type": "event"
    },
    {
      "anonymous": false,
      "inputs": [
        {
          "indexed": true,
          "internalType": "bytes32",
          "name": "role",
          "type": "bytes32"
        },
        {
          "indexed": true,
          "internalType": "address",
          "name": "account",
          "type": "address"
        },
        {
          "indexed": true,
          "internalType": "address",
          "name": "sender",
          "type": "address"
        }
      ],
      "name": "RoleGranted",
      "type": "event"
    },
    {
      "anonymous": false,
      "inputs": [
        {
          "indexed": true,
          "internalType": "bytes32",
          "name": "role",
          "type": "bytes32"
        },
        {
          "indexed": true,
          "internalType": "address",
          "name": "account",
          "type": "address"
        },
        {
          "indexed": true,
          "internalType": "address",
          "name": "sender",
          "type": "address"
        }
      ],
      "name": "RoleRevoked",
      "type": "event"
    },
    {
      "inputs": [],
      "name": "CHANGE_ORACLE_ADMIN_ADDRESS_ROLE",
      "outputs": [
        {
          "internalType": "bytes32",
          "name": "",
          "type": "bytes32"
        }
      ],
      "stateMutability": "view",
      "type": "function"
    },
    {
      "inputs": [],
      "name": "CHANGE_RECIPIENT_ADMIN_ADDRESS_ROLE",
      "outputs": [
        {
          "internalType": "bytes32",
          "name": "",
          "type": "bytes32"
        }
      ],
      "stateMutability": "view",
      "type": "function"
    },
    {
      "inputs": [],
      "name": "DEFAULT_ADMIN_ROLE",
      "outputs": [
        {
          "internalType": "bytes32",
          "name": "",
          "type": "bytes32"
        }
      ],
      "stateMutability": "view",
      "type": "function"
    },
    {
      "inputs": [],
      "name": "NAME_MANAGER_ROLE",
      "outputs": [
        {
          "internalType": "bytes32",
          "name": "",
          "type": "bytes32"
        }
      ],
      "stateMutability": "view",
      "type": "function"
    },
    {
      "inputs": [],
      "name": "acceptDefaultAdminTransfer",
      "outputs": [],
      "stateMutability": "nonpayable",
      "type": "function"
    },
    {
      "inputs": [
        {
          "internalType": "address",
          "name": "newAdmin",
          "type": "address"
        }
      ],
      "name": "beginDefaultAdminTransfer",
      "outputs": [],
      "stateMutability": "nonpayable",
      "type": "function"
    },
    {
      "inputs": [],
      "name": "cancelDefaultAdminTransfer",
      "outputs": [],
      "stateMutability": "nonpayable",
      "type": "function"
    },
    {
      "inputs": [
        {
          "internalType": "uint48",
          "name": "newDelay",
          "type": "uint48"
        }
      ],
      "name": "changeDefaultAdminDelay",
      "outputs": [],
      "stateMutability": "nonpayable",
      "type": "function"
    },
    {
      "inputs": [
        {
          "internalType": "address",
          "name": "_newOracleAddress",
          "type": "address"
        }
      ],
      "name": "changeOracleAddress",
      "outputs": [],
      "stateMutability": "nonpayable",
      "type": "function"
    },
    {
      "inputs": [
        {
          "internalType": "address payable",
          "name": "_newRecipientAddress",
          "type": "address"
        }
      ],
      "name": "changeRecipientAddress",
      "outputs": [],
      "stateMutability": "nonpayable",
      "type": "function"
    },
    {
      "inputs": [],
      "name": "defaultAdmin",
      "outputs": [
        {
          "internalType": "address",
          "name": "",
          "type": "address"
        }
      ],
      "stateMutability": "view",
      "type": "function"
    },
    {
      "inputs": [],
      "name": "defaultAdminDelay",
      "outputs": [
        {
          "internalType": "uint48",
          "name": "",
          "type": "uint48"
        }
      ],
      "stateMutability": "view",
      "type": "function"
    },
    {
      "inputs": [],
      "name": "defaultAdminDelayIncreaseWait",
      "outputs": [
        {
          "internalType": "uint48",
          "name": "",
          "type": "uint48"
        }
      ],
      "stateMutability": "view",
      "type": "function"
    },
    {
      "inputs": [],
      "name": "getRentPrices",
      "outputs": [
        {
          "internalType": "uint256[]",
          "name": "",
          "type": "uint256[]"
        }
      ],
      "stateMutability": "view",
      "type": "function"
    },
    {
      "inputs": [
        {
          "internalType": "bytes32",
          "name": "role",
          "type": "bytes32"
        }
      ],
      "name": "getRoleAdmin",
      "outputs": [
        {
          "internalType": "bytes32",
          "name": "",
          "type": "bytes32"
        }
      ],
      "stateMutability": "view",
      "type": "function"
    },
    {
      "inputs": [
        {
          "internalType": "bytes32",
          "name": "role",
          "type": "bytes32"
        },
        {
          "internalType": "address",
          "name": "account",
          "type": "address"
        }
      ],
      "name": "grantRole",
      "outputs": [],
      "stateMutability": "nonpayable",
      "type": "function"
    },
    {
      "inputs": [
        {
          "internalType": "bytes32",
          "name": "role",
          "type": "bytes32"
        },
        {
          "internalType": "address",
          "name": "account",
          "type": "address"
        }
      ],
      "name": "hasRole",
      "outputs": [
        {
          "internalType": "bool",
          "name": "",
          "type": "bool"
        }
      ],
      "stateMutability": "view",
      "type": "function"
    },
    {
      "inputs": [],
      "name": "nameManagerAddress",
      "outputs": [
        {
          "internalType": "contract INameManager",
          "name": "",
          "type": "address"
        }
      ],
      "stateMutability": "view",
      "type": "function"
    },
    {
      "inputs": [],
      "name": "oracleAddress",
      "outputs": [
        {
          "internalType": "address",
          "name": "",
          "type": "address"
        }
      ],
      "stateMutability": "view",
      "type": "function"
    },
    {
      "inputs": [],
      "name": "owner",
      "outputs": [
        {
          "internalType": "address",
          "name": "",
          "type": "address"
        }
      ],
      "stateMutability": "view",
      "type": "function"
    },
    {
      "inputs": [],
      "name": "pendingDefaultAdmin",
      "outputs": [
        {
          "internalType": "address",
          "name": "newAdmin",
          "type": "address"
        },
        {
          "internalType": "uint48",
          "name": "schedule",
          "type": "uint48"
        }
      ],
      "stateMutability": "view",
      "type": "function"
    },
    {
      "inputs": [],
      "name": "pendingDefaultAdminDelay",
      "outputs": [
        {
          "internalType": "uint48",
          "name": "newDelay",
          "type": "uint48"
        },
        {
          "internalType": "uint48",
          "name": "schedule",
          "type": "uint48"
        }
      ],
      "stateMutability": "view",
      "type": "function"
    },
    {
      "inputs": [],
      "name": "recipientAddress",
      "outputs": [
        {
          "internalType": "address payable",
          "name": "",
          "type": "address"
        }
      ],
      "stateMutability": "view",
      "type": "function"
    },
    {
      "inputs": [
        {
          "internalType": "bytes32",
          "name": "role",
          "type": "bytes32"
        },
        {
          "internalType": "address",
          "name": "account",
          "type": "address"
        }
      ],
      "name": "renounceRole",
      "outputs": [],
      "stateMutability": "nonpayable",
      "type": "function"
    },
    {
      "inputs": [
        {
          "internalType": "bytes32",
          "name": "role",
          "type": "bytes32"
        },
        {
          "internalType": "address",
          "name": "account",
          "type": "address"
        }
      ],
      "name": "revokeRole",
      "outputs": [],
      "stateMutability": "nonpayable",
      "type": "function"
    },
    {
      "inputs": [],
      "name": "rollbackDefaultAdminDelay",
      "outputs": [],
      "stateMutability": "nonpayable",
      "type": "function"
    },
    {
      "inputs": [
        {
          "internalType": "contract INameManager",
          "name": "_newNameManagerAddress",
          "type": "address"
        }
      ],
      "name": "setNameManagerAddress",
      "outputs": [],
      "stateMutability": "nonpayable",
      "type": "function"
    },
    {
      "inputs": [
        {
          "internalType": "uint256[]",
          "name": "prices",
          "type": "uint256[]"
        }
      ],
      "name": "setRentPrices",
      "outputs": [],
      "stateMutability": "nonpayable",
      "type": "function"
    },
    {
      "inputs": [
        {
          "internalType": "bytes4",
          "name": "interfaceId",
          "type": "bytes4"
        }
      ],
      "name": "supportsInterface",
      "outputs": [
        {
          "internalType": "bool",
          "name": "",
          "type": "bool"
        }
      ],
      "stateMutability": "view",
      "type": "function"
    },
    {
      "stateMutability": "payable",
      "type": "receive"
    }
  ],
  "transactionHash": "0xe978de79b2bbbe88f3f10802dfea44e20ca9dac9d8cd2c674422c940481c21d0",
  "args": [
    "0x26c0d1c4F49C59ACc3E818749758917bBe946d06",
    "0x26c0d1c4F49C59ACc3E818749758917bBe946d06",
    "0x26c0d1c4F49C59ACc3E818749758917bBe946d06",
    "0x26c0d1c4F49C59ACc3E818749758917bBe946d06",
    [
      0,
      0,
      "39999900000000",
      "9999900000000",
      "299900000000"
    ]
  ],
  "numDeployments": 1,
  "solcInputHash": "d69af7ebb9af7866df34efb40b2e6557",
  "bytecode": "0x60806040523480156200001157600080fd5b5060405162002293380380620022938339810160408190526200003491620003e9565b6203f48033806200008c5760405162461bcd60e51b815260206004820152601e60248201527f416363657373436f6e74726f6c3a20302064656661756c742061646d696e000060448201526064015b60405180910390fd5b600180546001600160d01b0316600160d01b65ffffffffffff851602179055620000b860008262000191565b50620000c690508562000250565b620000d18462000250565b600380546001600160a01b0319166001600160a01b03841617905580516200010190600690602084019062000356565b506200012e7fc8e5ca0eda1de78f2f6340a1132bff23209e8c4bba4d459489c150b87785d2238662000191565b6200015a7f570ccc4c621469f68ad7125775b739610881b6ddf6cf3bd3523d628c78a12a1a8562000191565b620001867f6ae19fd703cb304b53d5f09f6a0ce96b7c6a7edd912859ca6c4ed719bcab610d8462000191565b50505050506200050c565b8162000235576000620001ac6002546001600160a01b031690565b6001600160a01b031614620002195760405162461bcd60e51b815260206004820152602c60248201527f416363657373436f6e74726f6c3a2064656661756c742061646d696e20616c7260448201526b1958591e4819dc985b9d195960a21b606482015260840162000083565b600280546001600160a01b0319166001600160a01b0383161790555b6200024c8282620002b660201b62000e9a1760201c565b5050565b6001600160a01b038116620002b35760405162461bcd60e51b815260206004820152602260248201527f416464726573732063616e6e6f7420626520746865207a65726f206164647265604482015261737360f01b606482015260840162000083565b50565b6000828152602081815260408083206001600160a01b038516845290915290205460ff166200024c576000828152602081815260408083206001600160a01b03851684529091529020805460ff19166001179055620003123390565b6001600160a01b0316816001600160a01b0316837f2f8788117e7eff1d82e926ec794901d17c78024a50270940304540a733656f0d60405160405180910390a45050565b82805482825590600052602060002090810192821562000394579160200282015b828111156200039457825182559160200191906001019062000377565b50620003a2929150620003a6565b5090565b5b80821115620003a25760008155600101620003a7565b6001600160a01b0381168114620002b357600080fd5b634e487b7160e01b600052604160045260246000fd5b600080600080600060a086880312156200040257600080fd5b85516200040f81620003bd565b809550506020808701516200042481620003bd565b60408801519095506200043781620003bd565b60608801519094506200044a81620003bd565b60808801519093506001600160401b03808211156200046857600080fd5b818901915089601f8301126200047d57600080fd5b815181811115620004925762000492620003d3565b8060051b604051601f19603f83011681018181108582111715620004ba57620004ba620003d3565b60405291825284820192508381018501918c831115620004d957600080fd5b938501935b82851015620004f957845184529385019392850192620004de565b8096505050505050509295509295909350565b611d77806200051c6000396000f3fe6080604052600436106101c65760003560e01c80637eded5d3116100f7578063a89ae4ba11610095578063cfccedfd11610064578063cfccedfd146106b3578063d547741f146106d3578063d602b9fd146106f3578063fb349dbd1461070857600080fd5b8063a89ae4ba1461062e578063cc8463c81461064e578063cefc142914610663578063cf6eefb71461067857600080fd5b80638da5cb5b116100d15780638da5cb5b1461058c57806391d14854146105a1578063a1eda53c146105e5578063a217fddf1461061957600080fd5b80637eded5d31461051a57806384ef8ffc1461053a5780638c9cd6951461055857600080fd5b806336568abe116101645780635aff59991161013e5780635aff59991461046e578063634e93da146104a6578063649a5ec7146104c65780636aef947f146104e657600080fd5b806336568abe1461040e5780633c044fc01461042e5780634bf9407f1461044e57600080fd5b80631be0e195116101a05780631be0e1951461035a578063248a9ca31461039c5780632f2ff15d146103cc57806336371996146103ec57600080fd5b806301ffc9a7146102e5578063022d63fb1461031a5780630aa6220b1461034357600080fd5b366102e0576003546001600160a01b031661020d576040517fcd452d7800000000000000000000000000000000000000000000000000000000815260040160405180910390fd5b6003546040516000916001600160a01b03169034908381818185875af1925050503d806000811461025a576040519150601f19603f3d011682016040523d82523d6000602084013e61025f565b606091505b505090508061029a576040517fdf36512f00000000000000000000000000000000000000000000000000000000815260040160405180910390fd5b6003546040513481526001600160a01b039091169033907f92bec299340ebbe82b2de9f6624537f592852d870373b5f3e2fcf30ee21af4929060200160405180910390a3005b600080fd5b3480156102f157600080fd5b506103056103003660046119c9565b610728565b60405190151581526020015b60405180910390f35b34801561032657600080fd5b50620697805b60405165ffffffffffff9091168152602001610311565b34801561034f57600080fd5b5061035861076c565b005b34801561036657600080fd5b5061038e7f6ae19fd703cb304b53d5f09f6a0ce96b7c6a7edd912859ca6c4ed719bcab610d81565b604051908152602001610311565b3480156103a857600080fd5b5061038e6103b73660046119f3565b60009081526020819052604090206001015490565b3480156103d857600080fd5b506103586103e7366004611a21565b610782565b3480156103f857600080fd5b50610401610808565b6040516103119190611a51565b34801561041a57600080fd5b50610358610429366004611a21565b610860565b34801561043a57600080fd5b50610358610449366004611a95565b61096c565b34801561045a57600080fd5b50610358610469366004611b0a565b610a57565b34801561047a57600080fd5b5060035461048e906001600160a01b031681565b6040516001600160a01b039091168152602001610311565b3480156104b257600080fd5b506103586104c1366004611b0a565b610ae9565b3480156104d257600080fd5b506103586104e1366004611b27565b610afd565b3480156104f257600080fd5b5061038e7fc8e5ca0eda1de78f2f6340a1132bff23209e8c4bba4d459489c150b87785d22381565b34801561052657600080fd5b50610358610535366004611b0a565b610b11565b34801561054657600080fd5b506002546001600160a01b031661048e565b34801561056457600080fd5b5061038e7f570ccc4c621469f68ad7125775b739610881b6ddf6cf3bd3523d628c78a12a1a81565b34801561059857600080fd5b5061048e610c22565b3480156105ad57600080fd5b506103056105bc366004611a21565b6000918252602082815260408084206001600160a01b0393909316845291905290205460ff1690565b3480156105f157600080fd5b506105fa610c3b565b6040805165ffffffffffff938416815292909116602083015201610311565b34801561062557600080fd5b5061038e600081565b34801561063a57600080fd5b5060045461048e906001600160a01b031681565b34801561065a57600080fd5b5061032c610c8f565b34801561066f57600080fd5b50610358610cee565b34801561068457600080fd5b50600154604080516001600160a01b0383168152600160a01b90920465ffffffffffff16602083015201610311565b3480156106bf57600080fd5b5060055461048e906001600160a01b031681565b3480156106df57600080fd5b506103586106ee366004611a21565b610d77565b3480156106ff57600080fd5b50610358610df4565b34801561071457600080fd5b50610358610723366004611b0a565b610e07565b60006001600160e01b031982167f31498786000000000000000000000000000000000000000000000000000000001480610766575061076682610f38565b92915050565b600061077781610f9f565b61077f610fa9565b50565b816107fa5760405162461bcd60e51b815260206004820152603660248201527f416363657373436f6e74726f6c3a2063616e2774206469726563746c7920677260448201527f616e742064656661756c742061646d696e20726f6c650000000000000000000060648201526084015b60405180910390fd5b6108048282610fb6565b5050565b6060600680548060200260200160405190810160405280929190818152602001828054801561085657602002820191906000526020600020905b815481526020019060010190808311610842575b5050505050905090565b8115801561087b57506002546001600160a01b038281169116145b15610962576001546001600160a01b03811690600160a01b900465ffffffffffff16811580156108b2575065ffffffffffff811615155b80156108c557504265ffffffffffff8216105b6109375760405162461bcd60e51b815260206004820152603560248201527f416363657373436f6e74726f6c3a206f6e6c792063616e2072656e6f756e636560448201527f20696e2074776f2064656c61796564207374657073000000000000000000000060648201526084016107f1565b5050600180547fffffffffffff000000000000ffffffffffffffffffffffffffffffffffffffff1690555b6108048282610fdb565b7f570ccc4c621469f68ad7125775b739610881b6ddf6cf3bd3523d628c78a12a1a61099681610f9f565b60058214610a0c5760405162461bcd60e51b815260206004820152602760248201527f507269636573206172726179206c656e677468206d757374206265206f66206c60448201527f656e67746820350000000000000000000000000000000000000000000000000060648201526084016107f1565b610a1860068484611972565b507f73422d94aedd596c2d4d39f27a01033adc390a9054efaf259afefd95ef7331df8383604051610a4a929190611b4f565b60405180910390a1505050565b7fc8e5ca0eda1de78f2f6340a1132bff23209e8c4bba4d459489c150b87785d223610a8181610f9f565b610a8a82611063565b600380546001600160a01b0384811673ffffffffffffffffffffffffffffffffffffffff19831681179093556040519116919082907e3127e9b6a11612441daf54bfc1b4821908e7a969fdd378a8a4912538ad358b90600090a3505050565b6000610af481610f9f565b610804826110df565b6000610b0881610f9f565b61080482611152565b6000610b1c81610f9f565b6001600160a01b038216610b985760405162461bcd60e51b815260206004820152602a60248201527f4e6577204e616d654d616e616765722063616e6e6f7420626520746865207a6560448201527f726f20616464726573730000000000000000000000000000000000000000000060648201526084016107f1565b600580546001600160a01b0384811673ffffffffffffffffffffffffffffffffffffffff19831681179093556040519116919082907f8fb4edcd5435c6463585639a9953b1b0c1c731dbe271ff8d3287b37729734af590600090a3610c1d7f6ae19fd703cb304b53d5f09f6a0ce96b7c6a7edd912859ca6c4ed719bcab610d846111c2565b505050565b6000610c366002546001600160a01b031690565b905090565b600254600090600160d01b900465ffffffffffff168015158015610c6757504265ffffffffffff821610155b610c7357600080610c87565b600254600160a01b900465ffffffffffff16815b915091509091565b600254600090600160d01b900465ffffffffffff168015158015610cba57504265ffffffffffff8216105b610cd557600154600160d01b900465ffffffffffff16610ce8565b600254600160a01b900465ffffffffffff165b91505090565b6001546001600160a01b0316338114610d6f5760405162461bcd60e51b815260206004820152602860248201527f416363657373436f6e74726f6c3a2070656e64696e672061646d696e206d757360448201527f742061636365707400000000000000000000000000000000000000000000000060648201526084016107f1565b61077f61128a565b81610dea5760405162461bcd60e51b815260206004820152603760248201527f416363657373436f6e74726f6c3a2063616e2774206469726563746c7920726560448201527f766f6b652064656661756c742061646d696e20726f6c6500000000000000000060648201526084016107f1565b6108048282611382565b6000610dff81610f9f565b61077f6113a7565b7f570ccc4c621469f68ad7125775b739610881b6ddf6cf3bd3523d628c78a12a1a610e3181610f9f565b610e3a82611063565b600480546001600160a01b0384811673ffffffffffffffffffffffffffffffffffffffff19831681179093556040519116919082907f39206e6a16d6663e5a80ef081a32ce35bc314fe842cc614df23e92da300729df90600090a3505050565b6000828152602081815260408083206001600160a01b038516845290915290205460ff16610804576000828152602081815260408083206001600160a01b03851684529091529020805460ff19166001179055610ef43390565b6001600160a01b0316816001600160a01b0316837f2f8788117e7eff1d82e926ec794901d17c78024a50270940304540a733656f0d60405160405180910390a45050565b60006001600160e01b031982167f7965db0b00000000000000000000000000000000000000000000000000000000148061076657507f01ffc9a7000000000000000000000000000000000000000000000000000000006001600160e01b0319831614610766565b61077f81336113b2565b610fb4600080611425565b565b600082815260208190526040902060010154610fd181610f9f565b610c1d83836111c2565b6001600160a01b03811633146110595760405162461bcd60e51b815260206004820152602f60248201527f416363657373436f6e74726f6c3a2063616e206f6e6c792072656e6f756e636560448201527f20726f6c657320666f722073656c66000000000000000000000000000000000060648201526084016107f1565b610804828261150b565b6001600160a01b03811661077f5760405162461bcd60e51b815260206004820152602260248201527f416464726573732063616e6e6f7420626520746865207a65726f20616464726560448201527f737300000000000000000000000000000000000000000000000000000000000060648201526084016107f1565b60006110e9610c8f565b6110f242611553565b6110fc9190611bb7565b905061110882826115d5565b60405165ffffffffffff821681526001600160a01b038316907f3377dc44241e779dd06afab5b788a35ca5f3b778836e2990bdb26a2a4b2e5ed69060200160405180910390a25050565b600061115d82611653565b61116642611553565b6111709190611bb7565b905061117c8282611425565b6040805165ffffffffffff8085168252831660208201527ff1038c18cf84a56e432fdbfaf746924b7ea511dfe03a6506a0ceba4888788d9b910160405180910390a15050565b816112805760006111db6002546001600160a01b031690565b6001600160a01b0316146112575760405162461bcd60e51b815260206004820152602c60248201527f416363657373436f6e74726f6c3a2064656661756c742061646d696e20616c7260448201527f65616479206772616e746564000000000000000000000000000000000000000060648201526084016107f1565b6002805473ffffffffffffffffffffffffffffffffffffffff19166001600160a01b0383161790555b6108048282610e9a565b6001546001600160a01b03811690600160a01b900465ffffffffffff1680151580156112bd57504265ffffffffffff8216105b61132f5760405162461bcd60e51b815260206004820152602860248201527f416363657373436f6e74726f6c3a207472616e736665722064656c6179206e6f60448201527f742070617373656400000000000000000000000000000000000000000000000060648201526084016107f1565b61134b60006113466002546001600160a01b031690565b61150b565b6113566000836111c2565b5050600180547fffffffffffff0000000000000000000000000000000000000000000000000000169055565b60008281526020819052604090206001015461139d81610f9f565b610c1d838361150b565b610fb46000806115d5565b6000828152602081815260408083206001600160a01b038516845290915290205460ff16610804576113e3816116a2565b6113ee8360206116b4565b6040516020016113ff929190611c01565b60408051601f198184030181529082905262461bcd60e51b82526107f191600401611c82565b600254600160d01b900465ffffffffffff1680156114bb574265ffffffffffff82161015611491576002546001805479ffffffffffffffffffffffffffffffffffffffffffffffffffff16600160a01b90920465ffffffffffff16600160d01b029190911790556114bb565b6040517f2b1fa2edafe6f7b9e97c1a9e0c3660e645beb2dcaa2d45bdbf9beaf5472e1ec590600090a15b50600280546001600160a01b0316600160a01b65ffffffffffff9485160279ffffffffffffffffffffffffffffffffffffffffffffffffffff1617600160d01b9290931691909102919091179055565b8115801561152657506002546001600160a01b038281169116145b15611549576002805473ffffffffffffffffffffffffffffffffffffffff191690555b61080482826118dd565b600065ffffffffffff8211156115d15760405162461bcd60e51b815260206004820152602660248201527f53616665436173743a2076616c756520646f65736e27742066697420696e203460448201527f382062697473000000000000000000000000000000000000000000000000000060648201526084016107f1565b5090565b60018054600160a01b65ffffffffffff84811682027fffffffffffff000000000000000000000000000000000000000000000000000084166001600160a01b03881617179093559004168015610c1d576040517f8886ebfc4259abdbc16601dd8fb5678e54878f47b3c34836cfc51154a960510990600090a1505050565b60008061165e610c8f565b90508065ffffffffffff168365ffffffffffff1611611686576116818382611cb5565b61169b565b61169b65ffffffffffff84166206978061195c565b9392505050565b60606107666001600160a01b03831660145b606060006116c3836002611cd4565b6116ce906002611ceb565b67ffffffffffffffff8111156116e6576116e6611cfe565b6040519080825280601f01601f191660200182016040528015611710576020820181803683370190505b5090507f30000000000000000000000000000000000000000000000000000000000000008160008151811061174757611747611d14565b60200101907effffffffffffffffffffffffffffffffffffffffffffffffffffffffffffff1916908160001a9053507f7800000000000000000000000000000000000000000000000000000000000000816001815181106117aa576117aa611d14565b60200101907effffffffffffffffffffffffffffffffffffffffffffffffffffffffffffff1916908160001a90535060006117e6846002611cd4565b6117f1906001611ceb565b90505b600181111561188e577f303132333435363738396162636465660000000000000000000000000000000085600f166010811061183257611832611d14565b1a60f81b82828151811061184857611848611d14565b60200101907effffffffffffffffffffffffffffffffffffffffffffffffffffffffffffff1916908160001a90535060049490941c9361188781611d2a565b90506117f4565b50831561169b5760405162461bcd60e51b815260206004820181905260248201527f537472696e67733a20686578206c656e67746820696e73756666696369656e7460448201526064016107f1565b6000828152602081815260408083206001600160a01b038516845290915290205460ff1615610804576000828152602081815260408083206001600160a01b0385168085529252808320805460ff1916905551339285917ff6391f5c32d9c69d2a47ea670b442974b53935d1edc7fd64eb21e047a839171b9190a45050565b600081831061196b578161169b565b5090919050565b8280548282559060005260206000209081019282156119ad579160200282015b828111156119ad578235825591602001919060010190611992565b506115d19291505b808211156115d157600081556001016119b5565b6000602082840312156119db57600080fd5b81356001600160e01b03198116811461169b57600080fd5b600060208284031215611a0557600080fd5b5035919050565b6001600160a01b038116811461077f57600080fd5b60008060408385031215611a3457600080fd5b823591506020830135611a4681611a0c565b809150509250929050565b6020808252825182820181905260009190848201906040850190845b81811015611a8957835183529284019291840191600101611a6d565b50909695505050505050565b60008060208385031215611aa857600080fd5b823567ffffffffffffffff80821115611ac057600080fd5b818501915085601f830112611ad457600080fd5b813581811115611ae357600080fd5b8660208260051b8501011115611af857600080fd5b60209290920196919550909350505050565b600060208284031215611b1c57600080fd5b813561169b81611a0c565b600060208284031215611b3957600080fd5b813565ffffffffffff8116811461169b57600080fd5b6020815281602082015260007f07ffffffffffffffffffffffffffffffffffffffffffffffffffffffffffffff831115611b8857600080fd5b8260051b80856040850137919091016040019392505050565b634e487b7160e01b600052601160045260246000fd5b65ffffffffffff818116838216019080821115611bd657611bd6611ba1565b5092915050565b60005b83811015611bf8578181015183820152602001611be0565b50506000910152565b7f416363657373436f6e74726f6c3a206163636f756e7420000000000000000000815260008351611c39816017850160208801611bdd565b7f206973206d697373696e6720726f6c65200000000000000000000000000000006017918401918201528351611c76816028840160208801611bdd565b01602801949350505050565b6020815260008251806020840152611ca1816040850160208701611bdd565b601f01601f19169190910160400192915050565b65ffffffffffff828116828216039080821115611bd657611bd6611ba1565b808202811582820484141761076657610766611ba1565b8082018082111561076657610766611ba1565b634e487b7160e01b600052604160045260246000fd5b634e487b7160e01b600052603260045260246000fd5b600081611d3957611d39611ba1565b50600019019056fea26469706673582212207c8c0040aaf203c952f6d15e77235476a884e197561934ef9d745d0ac0537f4d64736f6c63430008110033",
  "devdoc": {
    "kind": "dev",
    "methods": {
      "acceptDefaultAdminTransfer()": {
        "details": "Completes a {defaultAdmin} transfer previously started with {beginDefaultAdminTransfer}. After calling the function: - `DEFAULT_ADMIN_ROLE` should be granted to the caller. - `DEFAULT_ADMIN_ROLE` should be revoked from the previous holder. - {pendingDefaultAdmin} should be reset to zero values. Requirements: - Only can be called by the {pendingDefaultAdmin}'s `newAdmin`. - The {pendingDefaultAdmin}'s `acceptSchedule` should've passed."
      },
      "beginDefaultAdminTransfer(address)": {
        "details": "Starts a {defaultAdmin} transfer by setting a {pendingDefaultAdmin} scheduled for acceptance after the current timestamp plus a {defaultAdminDelay}. Requirements: - Only can be called by the current {defaultAdmin}. Emits a DefaultAdminRoleChangeStarted event."
      },
      "cancelDefaultAdminTransfer()": {
        "details": "Cancels a {defaultAdmin} transfer previously started with {beginDefaultAdminTransfer}. A {pendingDefaultAdmin} not yet accepted can also be cancelled with this function. Requirements: - Only can be called by the current {defaultAdmin}. May emit a DefaultAdminTransferCanceled event."
      },
      "changeDefaultAdminDelay(uint48)": {
        "details": "Initiates a {defaultAdminDelay} update by setting a {pendingDefaultAdminDelay} scheduled for getting into effect after the current timestamp plus a {defaultAdminDelay}. This function guarantees that any call to {beginDefaultAdminTransfer} done between the timestamp this method is called and the {pendingDefaultAdminDelay} effect schedule will use the current {defaultAdminDelay} set before calling. The {pendingDefaultAdminDelay}'s effect schedule is defined in a way that waiting until the schedule and then calling {beginDefaultAdminTransfer} with the new delay will take at least the same as another {defaultAdmin} complete transfer (including acceptance). The schedule is designed for two scenarios: - When the delay is changed for a larger one the schedule is `block.timestamp + newDelay` capped by {defaultAdminDelayIncreaseWait}. - When the delay is changed for a shorter one, the schedule is `block.timestamp + (current delay - new delay)`. A {pendingDefaultAdminDelay} that never got into effect will be canceled in favor of a new scheduled change. Requirements: - Only can be called by the current {defaultAdmin}. Emits a DefaultAdminDelayChangeScheduled event and may emit a DefaultAdminDelayChangeCanceled event."
      },
      "defaultAdmin()": {
        "details": "Returns the address of the current `DEFAULT_ADMIN_ROLE` holder."
      },
      "defaultAdminDelay()": {
        "details": "Returns the delay required to schedule the acceptance of a {defaultAdmin} transfer started. This delay will be added to the current timestamp when calling {beginDefaultAdminTransfer} to set the acceptance schedule. NOTE: If a delay change has been scheduled, it will take effect as soon as the schedule passes, making this function returns the new delay. See {changeDefaultAdminDelay}."
      },
      "defaultAdminDelayIncreaseWait()": {
        "details": "Maximum time in seconds for an increase to {defaultAdminDelay} (that is scheduled using {changeDefaultAdminDelay}) to take effect. Default to 5 days. When the {defaultAdminDelay} is scheduled to be increased, it goes into effect after the new delay has passed with the purpose of giving enough time for reverting any accidental change (i.e. using milliseconds instead of seconds) that may lock the contract. However, to avoid excessive schedules, the wait is capped by this function and it can be overrode for a custom {defaultAdminDelay} increase scheduling. IMPORTANT: Make sure to add a reasonable amount of time while overriding this value, otherwise, there's a risk of setting a high new delay that goes into effect almost immediately without the possibility of human intervention in the case of an input error (eg. set milliseconds instead of seconds)."
      },
      "getRoleAdmin(bytes32)": {
        "details": "Returns the admin role that controls `role`. See {grantRole} and {revokeRole}. To change a role's admin, use {_setRoleAdmin}."
      },
      "grantRole(bytes32,address)": {
        "details": "See {AccessControl-grantRole}. Reverts for `DEFAULT_ADMIN_ROLE`."
      },
      "hasRole(bytes32,address)": {
        "details": "Returns `true` if `account` has been granted `role`."
      },
      "owner()": {
        "details": "See {IERC5313-owner}."
      },
      "pendingDefaultAdmin()": {
        "details": "Returns a tuple of a `newAdmin` and an accept schedule. After the `schedule` passes, the `newAdmin` will be able to accept the {defaultAdmin} role by calling {acceptDefaultAdminTransfer}, completing the role transfer. A zero value only in `acceptSchedule` indicates no pending admin transfer. NOTE: A zero address `newAdmin` means that {defaultAdmin} is being renounced."
      },
      "pendingDefaultAdminDelay()": {
        "details": "Returns a tuple of `newDelay` and an effect schedule. After the `schedule` passes, the `newDelay` will get into effect immediately for every new {defaultAdmin} transfer started with {beginDefaultAdminTransfer}. A zero value only in `effectSchedule` indicates no pending delay change. NOTE: A zero value only for `newDelay` means that the next {defaultAdminDelay} will be zero after the effect schedule."
      },
      "renounceRole(bytes32,address)": {
        "details": "See {AccessControl-renounceRole}. For the `DEFAULT_ADMIN_ROLE`, it only allows renouncing in two steps by first calling {beginDefaultAdminTransfer} to the `address(0)`, so it's required that the {pendingDefaultAdmin} schedule has also passed when calling this function. After its execution, it will not be possible to call `onlyRole(DEFAULT_ADMIN_ROLE)` functions. NOTE: Renouncing `DEFAULT_ADMIN_ROLE` will leave the contract without a {defaultAdmin}, thereby disabling any functionality that is only available for it, and the possibility of reassigning a non-administrated role."
      },
      "revokeRole(bytes32,address)": {
        "details": "See {AccessControl-revokeRole}. Reverts for `DEFAULT_ADMIN_ROLE`."
      },
      "rollbackDefaultAdminDelay()": {
        "details": "Cancels a scheduled {defaultAdminDelay} change. Requirements: - Only can be called by the current {defaultAdmin}. May emit a DefaultAdminDelayChangeCanceled event."
      },
      "supportsInterface(bytes4)": {
        "details": "See {IERC165-supportsInterface}."
      }
    },
    "version": 1
  },
  "userdoc": {
    "kind": "user",
    "methods": {},
    "version": 1
  },
  "storageLayout": {
    "storage": [
      {
        "astId": 461,
        "contract": "jns-admin-contract/contracts/JNSAdminContract.sol:JNSAdminContract",
        "label": "_roles",
        "offset": 0,
        "slot": "0",
        "type": "t_mapping(t_bytes32,t_struct(RoleData)456_storage)"
      },
      {
        "astId": 767,
        "contract": "jns-admin-contract/contracts/JNSAdminContract.sol:JNSAdminContract",
        "label": "_pendingDefaultAdmin",
        "offset": 0,
        "slot": "1",
        "type": "t_address"
      },
      {
        "astId": 769,
        "contract": "jns-admin-contract/contracts/JNSAdminContract.sol:JNSAdminContract",
        "label": "_pendingDefaultAdminSchedule",
        "offset": 20,
        "slot": "1",
        "type": "t_uint48"
      },
      {
        "astId": 771,
        "contract": "jns-admin-contract/contracts/JNSAdminContract.sol:JNSAdminContract",
        "label": "_currentDelay",
        "offset": 26,
        "slot": "1",
        "type": "t_uint48"
      },
      {
        "astId": 773,
        "contract": "jns-admin-contract/contracts/JNSAdminContract.sol:JNSAdminContract",
        "label": "_currentDefaultAdmin",
        "offset": 0,
        "slot": "2",
        "type": "t_address"
      },
      {
        "astId": 775,
        "contract": "jns-admin-contract/contracts/JNSAdminContract.sol:JNSAdminContract",
        "label": "_pendingDelay",
        "offset": 20,
        "slot": "2",
        "type": "t_uint48"
      },
      {
        "astId": 777,
        "contract": "jns-admin-contract/contracts/JNSAdminContract.sol:JNSAdminContract",
        "label": "_pendingDelaySchedule",
        "offset": 26,
        "slot": "2",
        "type": "t_uint48"
      },
      {
        "astId": 30076,
        "contract": "jns-admin-contract/contracts/JNSAdminContract.sol:JNSAdminContract",
        "label": "recipientAddress",
        "offset": 0,
        "slot": "3",
        "type": "t_address_payable"
      },
      {
        "astId": 30078,
        "contract": "jns-admin-contract/contracts/JNSAdminContract.sol:JNSAdminContract",
        "label": "oracleAddress",
        "offset": 0,
        "slot": "4",
        "type": "t_address"
      },
      {
        "astId": 30081,
        "contract": "jns-admin-contract/contracts/JNSAdminContract.sol:JNSAdminContract",
        "label": "nameManagerAddress",
        "offset": 0,
        "slot": "5",
        "type": "t_contract(INameManager)30052"
      },
      {
        "astId": 30084,
        "contract": "jns-admin-contract/contracts/JNSAdminContract.sol:JNSAdminContract",
        "label": "rentPrices",
        "offset": 0,
        "slot": "6",
        "type": "t_array(t_uint256)dyn_storage"
      }
    ],
    "types": {
      "t_address": {
        "encoding": "inplace",
        "label": "address",
        "numberOfBytes": "20"
      },
      "t_address_payable": {
        "encoding": "inplace",
        "label": "address payable",
        "numberOfBytes": "20"
      },
      "t_array(t_uint256)dyn_storage": {
        "base": "t_uint256",
        "encoding": "dynamic_array",
        "label": "uint256[]",
        "numberOfBytes": "32"
      },
      "t_bool": {
        "encoding": "inplace",
        "label": "bool",
        "numberOfBytes": "1"
      },
      "t_bytes32": {
        "encoding": "inplace",
        "label": "bytes32",
        "numberOfBytes": "32"
      },
      "t_contract(INameManager)30052": {
        "encoding": "inplace",
        "label": "contract INameManager",
        "numberOfBytes": "20"
      },
      "t_mapping(t_address,t_bool)": {
        "encoding": "mapping",
        "key": "t_address",
        "label": "mapping(address => bool)",
        "numberOfBytes": "32",
        "value": "t_bool"
      },
      "t_mapping(t_bytes32,t_struct(RoleData)456_storage)": {
        "encoding": "mapping",
        "key": "t_bytes32",
        "label": "mapping(bytes32 => struct AccessControl.RoleData)",
        "numberOfBytes": "32",
        "value": "t_struct(RoleData)456_storage"
      },
      "t_struct(RoleData)456_storage": {
        "encoding": "inplace",
        "label": "struct AccessControl.RoleData",
        "members": [
          {
            "astId": 453,
            "contract": "jns-admin-contract/contracts/JNSAdminContract.sol:JNSAdminContract",
            "label": "members",
            "offset": 0,
            "slot": "0",
            "type": "t_mapping(t_address,t_bool)"
          },
          {
            "astId": 455,
            "contract": "jns-admin-contract/contracts/JNSAdminContract.sol:JNSAdminContract",
            "label": "adminRole",
            "offset": 0,
            "slot": "1",
            "type": "t_bytes32"
          }
        ],
        "numberOfBytes": "64"
      },
      "t_uint256": {
        "encoding": "inplace",
        "label": "uint256",
        "numberOfBytes": "32"
      },
      "t_uint48": {
        "encoding": "inplace",
        "label": "uint48",
        "numberOfBytes": "6"
      }
    }
  }
}