{
  "address": "0xfF56E6C947b48134e25231666A3e12ea70CEbfC7",
  "abi": [
    {
      "inputs": [
        {
          "internalType": "address",
          "name": "_recipientAdminAddress",
          "type": "address"
        },
        {
          "internalType": "address",
          "name": "_oracleAdminAddress",
          "type": "address"
        },
        {
          "internalType": "address",
          "name": "_recipientAddress",
          "type": "address"
        }
      ],
      "stateMutability": "nonpayable",
      "type": "constructor"
    },
    {
      "anonymous": false,
      "inputs": [
        {
          "indexed": false,
          "internalType": "uint256",
          "name": "charCode",
          "type": "uint256"
        }
      ],
      "name": "CharacterRemovedFromWhitelist",
      "type": "event"
    },
    {
      "anonymous": false,
      "inputs": [
        {
          "indexed": false,
          "internalType": "uint256",
          "name": "charCode",
          "type": "uint256"
        }
      ],
      "name": "CharacterWhitelisted",
      "type": "event"
    },
    {
      "anonymous": false,
      "inputs": [],
      "name": "DefaultAdminDelayChangeCanceled",
      "type": "event"
    },
    {
      "anonymous": false,
      "inputs": [
        {
          "indexed": false,
          "internalType": "uint48",
          "name": "newDelay",
          "type": "uint48"
        },
        {
          "indexed": false,
          "internalType": "uint48",
          "name": "effectSchedule",
          "type": "uint48"
        }
      ],
      "name": "DefaultAdminDelayChangeScheduled",
      "type": "event"
    },
    {
      "anonymous": false,
      "inputs": [],
      "name": "DefaultAdminTransferCanceled",
      "type": "event"
    },
    {
      "anonymous": false,
      "inputs": [
        {
          "indexed": true,
          "internalType": "address",
          "name": "newAdmin",
          "type": "address"
        },
        {
          "indexed": false,
          "internalType": "uint48",
          "name": "acceptSchedule",
          "type": "uint48"
        }
      ],
      "name": "DefaultAdminTransferScheduled",
      "type": "event"
    },
    {
      "anonymous": false,
      "inputs": [
        {
          "indexed": true,
          "internalType": "address",
          "name": "from",
          "type": "address"
        },
        {
          "indexed": true,
          "internalType": "address",
          "name": "to",
          "type": "address"
        },
        {
          "indexed": false,
          "internalType": "uint256",
          "name": "amount",
          "type": "uint256"
        }
      ],
      "name": "EtherForwarded",
      "type": "event"
    },
    {
      "anonymous": false,
      "inputs": [
        {
          "indexed": true,
          "internalType": "address",
          "name": "from",
          "type": "address"
        },
        {
          "indexed": true,
          "internalType": "address",
          "name": "to",
          "type": "address"
        }
      ],
      "name": "OracleAddressChanged",
      "type": "event"
    },
    {
      "anonymous": false,
      "inputs": [
        {
          "indexed": true,
          "internalType": "address",
          "name": "from",
          "type": "address"
        },
        {
          "indexed": true,
          "internalType": "address",
          "name": "to",
          "type": "address"
        }
      ],
      "name": "RecipientAddressChanged",
      "type": "event"
    },
    {
      "anonymous": false,
      "inputs": [
        {
          "indexed": true,
          "internalType": "bytes32",
          "name": "role",
          "type": "bytes32"
        },
        {
          "indexed": true,
          "internalType": "bytes32",
          "name": "previousAdminRole",
          "type": "bytes32"
        },
        {
          "indexed": true,
          "internalType": "bytes32",
          "name": "newAdminRole",
          "type": "bytes32"
        }
      ],
      "name": "RoleAdminChanged",
      "type": "event"
    },
    {
      "anonymous": false,
      "inputs": [
        {
          "indexed": true,
          "internalType": "bytes32",
          "name": "role",
          "type": "bytes32"
        },
        {
          "indexed": true,
          "internalType": "address",
          "name": "account",
          "type": "address"
        },
        {
          "indexed": true,
          "internalType": "address",
          "name": "sender",
          "type": "address"
        }
      ],
      "name": "RoleGranted",
      "type": "event"
    },
    {
      "anonymous": false,
      "inputs": [
        {
          "indexed": true,
          "internalType": "bytes32",
          "name": "role",
          "type": "bytes32"
        },
        {
          "indexed": true,
          "internalType": "address",
          "name": "account",
          "type": "address"
        },
        {
          "indexed": true,
          "internalType": "address",
          "name": "sender",
          "type": "address"
        }
      ],
      "name": "RoleRevoked",
      "type": "event"
    },
    {
      "anonymous": false,
      "inputs": [
        {
          "indexed": false,
          "internalType": "string",
          "name": "tokenId",
          "type": "string"
        }
      ],
      "name": "TakedownAdded",
      "type": "event"
    },
    {
      "anonymous": false,
      "inputs": [
        {
          "indexed": false,
          "internalType": "string",
          "name": "tokenId",
          "type": "string"
        }
      ],
      "name": "TakedownRemoved",
      "type": "event"
    },
    {
      "inputs": [],
      "name": "CHANGE_ORACLE_ADMIN_ADDRESS_ROLE",
      "outputs": [
        {
          "internalType": "bytes32",
          "name": "",
          "type": "bytes32"
        }
      ],
      "stateMutability": "view",
      "type": "function"
    },
    {
      "inputs": [],
      "name": "CHANGE_RECIPIENT_ADMIN_ADDRESS_ROLE",
      "outputs": [
        {
          "internalType": "bytes32",
          "name": "",
          "type": "bytes32"
        }
      ],
      "stateMutability": "view",
      "type": "function"
    },
    {
      "inputs": [],
      "name": "DEFAULT_ADMIN_ROLE",
      "outputs": [
        {
          "internalType": "bytes32",
          "name": "",
          "type": "bytes32"
        }
      ],
      "stateMutability": "view",
      "type": "function"
    },
    {
      "inputs": [],
      "name": "NAME_MANAGER_ROLE",
      "outputs": [
        {
          "internalType": "bytes32",
          "name": "",
          "type": "bytes32"
        }
      ],
      "stateMutability": "view",
      "type": "function"
    },
    {
      "inputs": [],
      "name": "acceptDefaultAdminTransfer",
      "outputs": [],
      "stateMutability": "nonpayable",
      "type": "function"
    },
    {
      "inputs": [
        {
          "internalType": "string[]",
          "name": "tokenIds",
          "type": "string[]"
        }
      ],
      "name": "addToTakedownList",
      "outputs": [],
      "stateMutability": "nonpayable",
      "type": "function"
    },
    {
      "inputs": [
        {
          "internalType": "uint32[]",
          "name": "charCodes",
          "type": "uint32[]"
        }
      ],
      "name": "addToWhitelistCharacters",
      "outputs": [],
      "stateMutability": "nonpayable",
      "type": "function"
    },
    {
      "inputs": [
        {
          "internalType": "address",
          "name": "newAdmin",
          "type": "address"
        }
      ],
      "name": "beginDefaultAdminTransfer",
      "outputs": [],
      "stateMutability": "nonpayable",
      "type": "function"
    },
    {
      "inputs": [],
      "name": "cancelDefaultAdminTransfer",
      "outputs": [],
      "stateMutability": "nonpayable",
      "type": "function"
    },
    {
      "inputs": [
        {
          "internalType": "uint48",
          "name": "newDelay",
          "type": "uint48"
        }
      ],
      "name": "changeDefaultAdminDelay",
      "outputs": [],
      "stateMutability": "nonpayable",
      "type": "function"
    },
    {
      "inputs": [
        {
          "internalType": "address",
          "name": "_newOracleAddress",
          "type": "address"
        }
      ],
      "name": "changeOracleAddress",
      "outputs": [],
      "stateMutability": "nonpayable",
      "type": "function"
    },
    {
      "inputs": [
        {
          "internalType": "address",
          "name": "_newRecipientAddress",
          "type": "address"
        }
      ],
      "name": "changeRecipientAddress",
      "outputs": [],
      "stateMutability": "nonpayable",
      "type": "function"
    },
    {
      "inputs": [],
      "name": "defaultAdmin",
      "outputs": [
        {
          "internalType": "address",
          "name": "",
          "type": "address"
        }
      ],
      "stateMutability": "view",
      "type": "function"
    },
    {
      "inputs": [],
      "name": "defaultAdminDelay",
      "outputs": [
        {
          "internalType": "uint48",
          "name": "",
          "type": "uint48"
        }
      ],
      "stateMutability": "view",
      "type": "function"
    },
    {
      "inputs": [],
      "name": "defaultAdminDelayIncreaseWait",
      "outputs": [
        {
          "internalType": "uint48",
          "name": "",
          "type": "uint48"
        }
      ],
      "stateMutability": "view",
      "type": "function"
    },
    {
      "inputs": [
        {
          "internalType": "bytes32",
          "name": "role",
          "type": "bytes32"
        }
      ],
      "name": "getRoleAdmin",
      "outputs": [
        {
          "internalType": "bytes32",
          "name": "",
          "type": "bytes32"
        }
      ],
      "stateMutability": "view",
      "type": "function"
    },
    {
      "inputs": [],
      "name": "getTakedownCount",
      "outputs": [
        {
          "internalType": "uint256",
          "name": "",
          "type": "uint256"
        }
      ],
      "stateMutability": "view",
      "type": "function"
    },
    {
      "inputs": [],
      "name": "getTakedownList",
      "outputs": [
        {
          "internalType": "string[]",
          "name": "",
          "type": "string[]"
        }
      ],
      "stateMutability": "view",
      "type": "function"
    },
    {
      "inputs": [
        {
          "internalType": "bytes32",
          "name": "role",
          "type": "bytes32"
        },
        {
          "internalType": "address",
          "name": "account",
          "type": "address"
        }
      ],
      "name": "grantRole",
      "outputs": [],
      "stateMutability": "nonpayable",
      "type": "function"
    },
    {
      "inputs": [
        {
          "internalType": "bytes32",
          "name": "role",
          "type": "bytes32"
        },
        {
          "internalType": "address",
          "name": "account",
          "type": "address"
        }
      ],
      "name": "hasRole",
      "outputs": [
        {
          "internalType": "bool",
          "name": "",
          "type": "bool"
        }
      ],
      "stateMutability": "view",
      "type": "function"
    },
    {
      "inputs": [
        {
          "internalType": "string",
          "name": "word",
          "type": "string"
        }
      ],
      "name": "isWordWhitelisted",
      "outputs": [
        {
          "internalType": "bool",
          "name": "",
          "type": "bool"
        }
      ],
      "stateMutability": "view",
      "type": "function"
    },
    {
      "inputs": [],
      "name": "oracleAdminAddress",
      "outputs": [
        {
          "internalType": "address",
          "name": "",
          "type": "address"
        }
      ],
      "stateMutability": "view",
      "type": "function"
    },
    {
      "inputs": [],
      "name": "owner",
      "outputs": [
        {
          "internalType": "address",
          "name": "",
          "type": "address"
        }
      ],
      "stateMutability": "view",
      "type": "function"
    },
    {
      "inputs": [],
      "name": "pendingDefaultAdmin",
      "outputs": [
        {
          "internalType": "address",
          "name": "newAdmin",
          "type": "address"
        },
        {
          "internalType": "uint48",
          "name": "schedule",
          "type": "uint48"
        }
      ],
      "stateMutability": "view",
      "type": "function"
    },
    {
      "inputs": [],
      "name": "pendingDefaultAdminDelay",
      "outputs": [
        {
          "internalType": "uint48",
          "name": "newDelay",
          "type": "uint48"
        },
        {
          "internalType": "uint48",
          "name": "schedule",
          "type": "uint48"
        }
      ],
      "stateMutability": "view",
      "type": "function"
    },
    {
      "inputs": [],
      "name": "recipientAdminAddress",
      "outputs": [
        {
          "internalType": "address",
          "name": "",
          "type": "address"
        }
      ],
      "stateMutability": "view",
      "type": "function"
    },
    {
      "inputs": [
        {
          "internalType": "string[]",
          "name": "tokenIds",
          "type": "string[]"
        }
      ],
      "name": "removeFromTakedownList",
      "outputs": [],
      "stateMutability": "nonpayable",
      "type": "function"
    },
    {
      "inputs": [
        {
          "internalType": "uint32[]",
          "name": "charCodes",
          "type": "uint32[]"
        }
      ],
      "name": "removeFromWhitelistCharacters",
      "outputs": [],
      "stateMutability": "nonpayable",
      "type": "function"
    },
    {
      "inputs": [
        {
          "internalType": "bytes32",
          "name": "role",
          "type": "bytes32"
        },
        {
          "internalType": "address",
          "name": "account",
          "type": "address"
        }
      ],
      "name": "renounceRole",
      "outputs": [],
      "stateMutability": "nonpayable",
      "type": "function"
    },
    {
      "inputs": [
        {
          "internalType": "bytes32",
          "name": "role",
          "type": "bytes32"
        },
        {
          "internalType": "address",
          "name": "account",
          "type": "address"
        }
      ],
      "name": "revokeRole",
      "outputs": [],
      "stateMutability": "nonpayable",
      "type": "function"
    },
    {
      "inputs": [],
      "name": "rollbackDefaultAdminDelay",
      "outputs": [],
      "stateMutability": "nonpayable",
      "type": "function"
    },
    {
      "inputs": [
        {
          "internalType": "bytes4",
          "name": "interfaceId",
          "type": "bytes4"
        }
      ],
      "name": "supportsInterface",
      "outputs": [
        {
          "internalType": "bool",
          "name": "",
          "type": "bool"
        }
      ],
      "stateMutability": "view",
      "type": "function"
    },
    {
      "inputs": [
        {
          "internalType": "string",
          "name": "",
          "type": "string"
        }
      ],
      "name": "takedownMapping",
      "outputs": [
        {
          "internalType": "bool",
          "name": "",
          "type": "bool"
        }
      ],
      "stateMutability": "view",
      "type": "function"
    },
    {
      "inputs": [
        {
          "internalType": "uint32",
          "name": "",
          "type": "uint32"
        }
      ],
      "name": "whitelistCharacters",
      "outputs": [
        {
          "internalType": "bool",
          "name": "",
          "type": "bool"
        }
      ],
      "stateMutability": "view",
      "type": "function"
    },
    {
      "stateMutability": "payable",
      "type": "receive"
    }
  ],
  "transactionHash": "0x154aecb8e8bec7c4cfbe1a2bd232605dfe86106de7daa14775e14b9f943763fd",
  "args": [
    "0x2676fE976530646376733529816F7168681Fa09f",
    "0x2676fE976530646376733529816F7168681Fa09f",
    "0x2676fE976530646376733529816F7168681Fa09f"
  ],
  "numDeployments": 1,
  "solcInputHash": "a17a5b3a3a74d1f77a0613f67c5f8481",
  "bytecode": "0x60c06040523480156200001157600080fd5b5060405162002efb38038062002efb8339810160408190526200003491620004b5565b6203f48033806200008c5760405162461bcd60e51b815260206004820152601e60248201527f416363657373436f6e74726f6c3a20302064656661756c742061646d696e000060448201526064015b60405180910390fd5b600180546001600160d01b0316600160d01b65ffffffffffff851602179055620000b860008262000193565b50620000c690508362000252565b620000d18262000252565b6001600160a01b0383811660805282811660a052600380546001600160a01b031916918316919091179055620001287fc8e5ca0eda1de78f2f6340a1132bff23209e8c4bba4d459489c150b87785d2233362000193565b620001547f570ccc4c621469f68ad7125775b739610881b6ddf6cf3bd3523d628c78a12a1a3362000193565b620001807f6ae19fd703cb304b53d5f09f6a0ce96b7c6a7edd912859ca6c4ed719bcab610d3362000193565b6200018a620002b8565b50505062000531565b8162000237576000620001ae6002546001600160a01b031690565b6001600160a01b0316146200021b5760405162461bcd60e51b815260206004820152602c60248201527f416363657373436f6e74726f6c3a2064656661756c742061646d696e20616c7260448201526b1958591e4819dc985b9d195960a21b606482015260840162000083565b600280546001600160a01b0319166001600160a01b0383161790555b6200024e8282620003f860201b620016eb1760201c565b5050565b6001600160a01b038116620002b55760405162461bcd60e51b815260206004820152602260248201527f416464726573732063616e6e6f7420626520746865207a65726f206164647265604482015261737360f01b606482015260840162000083565b50565b60415b605a8163ffffffff1611620003225763ffffffff8116600081815260056020908152604091829020805460ff19166001179055905191825260008051602062002edb833981519152910160405180910390a1806200031981620004ff565b915050620002bb565b5060615b607a8163ffffffff16116200038d5763ffffffff8116600081815260056020908152604091829020805460ff19166001179055905191825260008051602062002edb833981519152910160405180910390a1806200038481620004ff565b91505062000326565b5060305b60398163ffffffff1611620002b55763ffffffff8116600081815260056020908152604091829020805460ff19166001179055905191825260008051602062002edb833981519152910160405180910390a180620003ef81620004ff565b91505062000391565b6000828152602081815260408083206001600160a01b038516845290915290205460ff166200024e576000828152602081815260408083206001600160a01b03851684529091529020805460ff19166001179055620004543390565b6001600160a01b0316816001600160a01b0316837f2f8788117e7eff1d82e926ec794901d17c78024a50270940304540a733656f0d60405160405180910390a45050565b80516001600160a01b0381168114620004b057600080fd5b919050565b600080600060608486031215620004cb57600080fd5b620004d68462000498565b9250620004e66020850162000498565b9150620004f66040850162000498565b90509250925092565b600063ffffffff8083168181036200052757634e487b7160e01b600052601160045260246000fd5b6001019392505050565b60805160a0516129846200055760003960006105ea015260006107bc01526129846000f3fe60806040526004361061021d5760003560e01c80637fed94971161011d578063a217fddf116100b0578063cefc14291161007f578063d547741f11610064578063d547741f14610843578063d602b9fd14610863578063fb349dbd1461087857600080fd5b8063cefc1429146107f3578063cf6eefb71461080857600080fd5b8063a217fddf14610775578063adab8a961461078a578063b874f37d146107aa578063cc8463c8146107de57600080fd5b806391d14854116100ec57806391d14854146106ab5780639da5cb63146106ef578063a0aded221461071f578063a1eda53c1461074157600080fd5b80637fed94971461062457806384ef8ffc146106445780638c9cd695146106625780638da5cb5b1461069657600080fd5b80634548e2ee116101b0578063626465931161017f578063649a5ec711610164578063649a5ec7146105845780636aef947f146105a457806374e44d86146105d857600080fd5b80636264659314610544578063634e93da1461056457600080fd5b80634548e2ee146104b457806349d563f5146104c95780634bf9407f146105045780635558ad821461052457600080fd5b8063248a9ca3116101ec578063248a9ca3146104245780632f2ff15d1461045457806336568abe1461047457806345367f561461049457600080fd5b806301ffc9a71461036d578063022d63fb146103a25780630aa6220b146103cb5780631be0e195146103e257600080fd5b36610368576003546001600160a01b031661027f5760405162461bcd60e51b815260206004820152601960248201527f524543495049454e545f414444524553535f4e4f545f5345540000000000000060448201526064015b60405180910390fd5b6003546040516000916001600160a01b03169034908381818185875af1925050503d80600081146102cc576040519150601f19603f3d011682016040523d82523d6000602084013e6102d1565b606091505b50509050806103225760405162461bcd60e51b815260206004820152600d60248201527f4e4f545f464f52574152444544000000000000000000000000000000000000006044820152606401610276565b6003546040513481526001600160a01b039091169033907f92bec299340ebbe82b2de9f6624537f592852d870373b5f3e2fcf30ee21af4929060200160405180910390a3005b600080fd5b34801561037957600080fd5b5061038d61038836600461220d565b610898565b60405190151581526020015b60405180910390f35b3480156103ae57600080fd5b50620697805b60405165ffffffffffff9091168152602001610399565b3480156103d757600080fd5b506103e06108dc565b005b3480156103ee57600080fd5b506104167f6ae19fd703cb304b53d5f09f6a0ce96b7c6a7edd912859ca6c4ed719bcab610d81565b604051908152602001610399565b34801561043057600080fd5b5061041661043f366004612237565b60009081526020819052604090206001015490565b34801561046057600080fd5b506103e061046f36600461226c565b6108f2565b34801561048057600080fd5b506103e061048f36600461226c565b610973565b3480156104a057600080fd5b506103e06104af36600461234f565b610a7f565b3480156104c057600080fd5b50600654610416565b3480156104d557600080fd5b5061038d6104e4366004612412565b805160208183018101805160078252928201919093012091525460ff1681565b34801561051057600080fd5b506103e061051f36600461244f565b610d78565b34801561053057600080fd5b506103e061053f36600461246a565b610e04565b34801561055057600080fd5b5061038d61055f3660046124df565b610f95565b34801561057057600080fd5b506103e061057f36600461244f565b611048565b34801561059057600080fd5b506103e061059f36600461253f565b61105c565b3480156105b057600080fd5b506104167fc8e5ca0eda1de78f2f6340a1132bff23209e8c4bba4d459489c150b87785d22381565b3480156105e457600080fd5b5061060c7f000000000000000000000000000000000000000000000000000000000000000081565b6040516001600160a01b039091168152602001610399565b34801561063057600080fd5b506103e061063f36600461234f565b611070565b34801561065057600080fd5b506002546001600160a01b031661060c565b34801561066e57600080fd5b506104167f570ccc4c621469f68ad7125775b739610881b6ddf6cf3bd3523d628c78a12a1a81565b3480156106a257600080fd5b5061060c611216565b3480156106b757600080fd5b5061038d6106c636600461226c565b6000918252602082815260408084206001600160a01b0393909316845291905290205460ff1690565b3480156106fb57600080fd5b5061038d61070a366004612567565b60056020526000908152604090205460ff1681565b34801561072b57600080fd5b5061073461122f565b60405161039991906125dd565b34801561074d57600080fd5b50610756611308565b6040805165ffffffffffff938416815292909116602083015201610399565b34801561078157600080fd5b50610416600081565b34801561079657600080fd5b506103e06107a536600461246a565b61135c565b3480156107b657600080fd5b5061060c7f000000000000000000000000000000000000000000000000000000000000000081565b3480156107ea57600080fd5b506103b46114e6565b3480156107ff57600080fd5b506103e0611545565b34801561081457600080fd5b50600154604080516001600160a01b0383168152600160a01b90920465ffffffffffff16602083015201610399565b34801561084f57600080fd5b506103e061085e36600461226c565b6115ce565b34801561086f57600080fd5b506103e061164b565b34801561088457600080fd5b506103e061089336600461244f565b61165e565b60006001600160e01b031982167f314987860000000000000000000000000000000000000000000000000000000014806108d657506108d682611789565b92915050565b60006108e7816117f0565b6108ef6117fa565b50565b816109655760405162461bcd60e51b815260206004820152603660248201527f416363657373436f6e74726f6c3a2063616e2774206469726563746c7920677260448201527f616e742064656661756c742061646d696e20726f6c65000000000000000000006064820152608401610276565b61096f8282611807565b5050565b8115801561098e57506002546001600160a01b038281169116145b15610a75576001546001600160a01b03811690600160a01b900465ffffffffffff16811580156109c5575065ffffffffffff811615155b80156109d857504265ffffffffffff8216105b610a4a5760405162461bcd60e51b815260206004820152603560248201527f416363657373436f6e74726f6c3a206f6e6c792063616e2072656e6f756e636560448201527f20696e2074776f2064656c6179656420737465707300000000000000000000006064820152608401610276565b5050600180547fffffffffffff000000000000ffffffffffffffffffffffffffffffffffffffff1690555b61096f828261182c565b7f6ae19fd703cb304b53d5f09f6a0ce96b7c6a7edd912859ca6c4ed719bcab610d610aa9816117f0565b60005b8251811015610d73576007838281518110610ac957610ac961263f565b6020026020010151604051610ade9190612655565b9081526040519081900360200190205460ff1615610d635760006007848381518110610b0c57610b0c61263f565b6020026020010151604051610b219190612655565b908152604051908190036020019020805491151560ff19909216919091179055600654600090610b5390600190612687565b9050600060016008868581518110610b6d57610b6d61263f565b6020026020010151604051610b829190612655565b908152602001604051809103902054610b9b9190612687565b9050818114610ca657600060068381548110610bb957610bb961263f565b906000526020600020018054610bce9061269a565b80601f0160208091040260200160405190810160405280929190818152602001828054610bfa9061269a565b8015610c475780601f10610c1c57610100808354040283529160200191610c47565b820191906000526020600020905b815481529060010190602001808311610c2a57829003601f168201915b505050505090508060068381548110610c6257610c6261263f565b906000526020600020019081610c789190612722565b50610c848260016127e2565b600882604051610c949190612655565b90815260405190819003602001902055505b6006805480610cb757610cb76127f5565b600190038181906000526020600020016000610cd391906121c3565b90556008858481518110610ce957610ce961263f565b6020026020010151604051610cfe9190612655565b9081526020016040518091039020600090557f807f6e1fa4229ee97982c88e3b3fafbd549fafbb5d5e12245694b550a2d52481858481518110610d4357610d4361263f565b6020026020010151604051610d58919061280b565b60405180910390a150505b610d6c8161281e565b9050610aac565b505050565b7fc8e5ca0eda1de78f2f6340a1132bff23209e8c4bba4d459489c150b87785d223610da2816117f0565b610dab826118b4565b6003805473ffffffffffffffffffffffffffffffffffffffff19166001600160a01b03841690811790915560405181907e3127e9b6a11612441daf54bfc1b4821908e7a969fdd378a8a4912538ad358b90600090a35050565b7f6ae19fd703cb304b53d5f09f6a0ce96b7c6a7edd912859ca6c4ed719bcab610d610e2e816117f0565b60005b82811015610f8f5760056000858584818110610e4f57610e4f61263f565b9050602002016020810190610e649190612567565b63ffffffff16815260208101919091526040016000205460ff1615610ecb5760405162461bcd60e51b815260206004820152601d60248201527f43686172616374657220616c72656164792077686974656c69737465640000006044820152606401610276565b600160056000868685818110610ee357610ee361263f565b9050602002016020810190610ef89190612567565b63ffffffff1681526020810191909152604001600020805460ff19169115159190911790557f6d2886f90141c813869853ca97aba5ea6c180c8b9b5e052e223ebf4e260e482d848483818110610f5057610f5061263f565b9050602002016020810190610f659190612567565b60405163ffffffff909116815260200160405180910390a180610f878161281e565b915050610e31565b50505050565b60008083838080601f01602080910402602001604051908101604052809392919081815260200183838082843760009201829052509394505050505b81518163ffffffff16101561103d576000828263ffffffff1681518110610ffa57610ffa61263f565b0160209081015160f81c6000818152600590925260409091205490915060ff1661102a57600093505050506108d6565b508061103581612837565b915050610fd1565b506001949350505050565b6000611053816117f0565b61096f82611930565b6000611067816117f0565b61096f826119a3565b7f6ae19fd703cb304b53d5f09f6a0ce96b7c6a7edd912859ca6c4ed719bcab610d61109a816117f0565b60005b8251811015610d735760078382815181106110ba576110ba61263f565b60200260200101516040516110cf9190612655565b9081526040519081900360200190205460ff1661120657600160078483815181106110fc576110fc61263f565b60200260200101516040516111119190612655565b908152602001604051809103902060006101000a81548160ff021916908315150217905550600683828151811061114a5761114a61263f565b602090810291909101810151825460018101845560009384529190922001906111739082612722565b50600680549050600884838151811061118e5761118e61263f565b60200260200101516040516111a39190612655565b9081526020016040518091039020819055507f5c1aedbd68a3ba77c093f693ee402fd4c7f76873b5e0a202395a0abe329700578382815181106111e8576111e861263f565b60200260200101516040516111fd919061280b565b60405180910390a15b61120f8161281e565b905061109d565b600061122a6002546001600160a01b031690565b905090565b60606006805480602002602001604051908101604052809291908181526020016000905b828210156112ff5783829060005260206000200180546112729061269a565b80601f016020809104026020016040519081016040528092919081815260200182805461129e9061269a565b80156112eb5780601f106112c0576101008083540402835291602001916112eb565b820191906000526020600020905b8154815290600101906020018083116112ce57829003601f168201915b505050505081526020019060010190611253565b50505050905090565b600254600090600160d01b900465ffffffffffff16801515801561133457504265ffffffffffff821610155b61134057600080611354565b600254600160a01b900465ffffffffffff16815b915091509091565b7f6ae19fd703cb304b53d5f09f6a0ce96b7c6a7edd912859ca6c4ed719bcab610d611386816117f0565b60005b82811015610f8f57600560008585848181106113a7576113a761263f565b90506020020160208101906113bc9190612567565b63ffffffff16815260208101919091526040016000205460ff166114225760405162461bcd60e51b815260206004820152601a60248201527f436861726163746572206e6f7420696e2077686974656c6973740000000000006044820152606401610276565b60006005600086868581811061143a5761143a61263f565b905060200201602081019061144f9190612567565b63ffffffff1681526020810191909152604001600020805460ff19169115159190911790557f3a0b7579295799604cd96f22c08f8cf0827d64c0e5cb0364cfdee681a8acdee58484838181106114a7576114a761263f565b90506020020160208101906114bc9190612567565b60405163ffffffff909116815260200160405180910390a1806114de8161281e565b915050611389565b600254600090600160d01b900465ffffffffffff16801515801561151157504265ffffffffffff8216105b61152c57600154600160d01b900465ffffffffffff1661153f565b600254600160a01b900465ffffffffffff165b91505090565b6001546001600160a01b03163381146115c65760405162461bcd60e51b815260206004820152602860248201527f416363657373436f6e74726f6c3a2070656e64696e672061646d696e206d757360448201527f74206163636570740000000000000000000000000000000000000000000000006064820152608401610276565b6108ef611a13565b816116415760405162461bcd60e51b815260206004820152603760248201527f416363657373436f6e74726f6c3a2063616e2774206469726563746c7920726560448201527f766f6b652064656661756c742061646d696e20726f6c650000000000000000006064820152608401610276565b61096f8282611b0b565b6000611656816117f0565b6108ef611b30565b7f570ccc4c621469f68ad7125775b739610881b6ddf6cf3bd3523d628c78a12a1a611688816117f0565b611691826118b4565b6004805473ffffffffffffffffffffffffffffffffffffffff19166001600160a01b03841690811790915560405181907f39206e6a16d6663e5a80ef081a32ce35bc314fe842cc614df23e92da300729df90600090a35050565b6000828152602081815260408083206001600160a01b038516845290915290205460ff1661096f576000828152602081815260408083206001600160a01b03851684529091529020805460ff191660011790556117453390565b6001600160a01b0316816001600160a01b0316837f2f8788117e7eff1d82e926ec794901d17c78024a50270940304540a733656f0d60405160405180910390a45050565b60006001600160e01b031982167f7965db0b0000000000000000000000000000000000000000000000000000000014806108d657507f01ffc9a7000000000000000000000000000000000000000000000000000000006001600160e01b03198316146108d6565b6108ef8133611b3b565b611805600080611bae565b565b600082815260208190526040902060010154611822816117f0565b610d738383611c94565b6001600160a01b03811633146118aa5760405162461bcd60e51b815260206004820152602f60248201527f416363657373436f6e74726f6c3a2063616e206f6e6c792072656e6f756e636560448201527f20726f6c657320666f722073656c6600000000000000000000000000000000006064820152608401610276565b61096f8282611d5c565b6001600160a01b0381166108ef5760405162461bcd60e51b815260206004820152602260248201527f416464726573732063616e6e6f7420626520746865207a65726f20616464726560448201527f73730000000000000000000000000000000000000000000000000000000000006064820152608401610276565b600061193a6114e6565b61194342611da4565b61194d919061285a565b90506119598282611e26565b60405165ffffffffffff821681526001600160a01b038316907f3377dc44241e779dd06afab5b788a35ca5f3b778836e2990bdb26a2a4b2e5ed69060200160405180910390a25050565b60006119ae82611ea4565b6119b742611da4565b6119c1919061285a565b90506119cd8282611bae565b6040805165ffffffffffff8085168252831660208201527ff1038c18cf84a56e432fdbfaf746924b7ea511dfe03a6506a0ceba4888788d9b910160405180910390a15050565b6001546001600160a01b03811690600160a01b900465ffffffffffff168015158015611a4657504265ffffffffffff8216105b611ab85760405162461bcd60e51b815260206004820152602860248201527f416363657373436f6e74726f6c3a207472616e736665722064656c6179206e6f60448201527f74207061737365640000000000000000000000000000000000000000000000006064820152608401610276565b611ad46000611acf6002546001600160a01b031690565b611d5c565b611adf600083611c94565b5050600180547fffffffffffff0000000000000000000000000000000000000000000000000000169055565b600082815260208190526040902060010154611b26816117f0565b610d738383611d5c565b611805600080611e26565b6000828152602081815260408083206001600160a01b038516845290915290205460ff1661096f57611b6c81611ef3565b611b77836020611f05565b604051602001611b88929190612880565b60408051601f198184030181529082905262461bcd60e51b82526102769160040161280b565b600254600160d01b900465ffffffffffff168015611c44574265ffffffffffff82161015611c1a576002546001805479ffffffffffffffffffffffffffffffffffffffffffffffffffff16600160a01b90920465ffffffffffff16600160d01b02919091179055611c44565b6040517f2b1fa2edafe6f7b9e97c1a9e0c3660e645beb2dcaa2d45bdbf9beaf5472e1ec590600090a15b50600280546001600160a01b0316600160a01b65ffffffffffff9485160279ffffffffffffffffffffffffffffffffffffffffffffffffffff1617600160d01b9290931691909102919091179055565b81611d52576000611cad6002546001600160a01b031690565b6001600160a01b031614611d295760405162461bcd60e51b815260206004820152602c60248201527f416363657373436f6e74726f6c3a2064656661756c742061646d696e20616c7260448201527f65616479206772616e74656400000000000000000000000000000000000000006064820152608401610276565b6002805473ffffffffffffffffffffffffffffffffffffffff19166001600160a01b0383161790555b61096f82826116eb565b81158015611d7757506002546001600160a01b038281169116145b15611d9a576002805473ffffffffffffffffffffffffffffffffffffffff191690555b61096f828261212e565b600065ffffffffffff821115611e225760405162461bcd60e51b815260206004820152602660248201527f53616665436173743a2076616c756520646f65736e27742066697420696e203460448201527f38206269747300000000000000000000000000000000000000000000000000006064820152608401610276565b5090565b60018054600160a01b65ffffffffffff84811682027fffffffffffff000000000000000000000000000000000000000000000000000084166001600160a01b03881617179093559004168015610d73576040517f8886ebfc4259abdbc16601dd8fb5678e54878f47b3c34836cfc51154a960510990600090a1505050565b600080611eaf6114e6565b90508065ffffffffffff168365ffffffffffff1611611ed757611ed28382612901565b611eec565b611eec65ffffffffffff8416620697806121ad565b9392505050565b60606108d66001600160a01b03831660145b60606000611f14836002612920565b611f1f9060026127e2565b67ffffffffffffffff811115611f3757611f37612298565b6040519080825280601f01601f191660200182016040528015611f61576020820181803683370190505b5090507f300000000000000000000000000000000000000000000000000000000000000081600081518110611f9857611f9861263f565b60200101907effffffffffffffffffffffffffffffffffffffffffffffffffffffffffffff1916908160001a9053507f780000000000000000000000000000000000000000000000000000000000000081600181518110611ffb57611ffb61263f565b60200101907effffffffffffffffffffffffffffffffffffffffffffffffffffffffffffff1916908160001a9053506000612037846002612920565b6120429060016127e2565b90505b60018111156120df577f303132333435363738396162636465660000000000000000000000000000000085600f16601081106120835761208361263f565b1a60f81b8282815181106120995761209961263f565b60200101907effffffffffffffffffffffffffffffffffffffffffffffffffffffffffffff1916908160001a90535060049490941c936120d881612937565b9050612045565b508315611eec5760405162461bcd60e51b815260206004820181905260248201527f537472696e67733a20686578206c656e67746820696e73756666696369656e746044820152606401610276565b6000828152602081815260408083206001600160a01b038516845290915290205460ff161561096f576000828152602081815260408083206001600160a01b0385168085529252808320805460ff1916905551339285917ff6391f5c32d9c69d2a47ea670b442974b53935d1edc7fd64eb21e047a839171b9190a45050565b60008183106121bc5781611eec565b5090919050565b5080546121cf9061269a565b6000825580601f106121df575050565b601f0160209004906000526020600020908101906108ef91905b80821115611e2257600081556001016121f9565b60006020828403121561221f57600080fd5b81356001600160e01b031981168114611eec57600080fd5b60006020828403121561224957600080fd5b5035919050565b80356001600160a01b038116811461226757600080fd5b919050565b6000806040838503121561227f57600080fd5b8235915061228f60208401612250565b90509250929050565b634e487b7160e01b600052604160045260246000fd5b604051601f8201601f1916810167ffffffffffffffff811182821017156122d7576122d7612298565b604052919050565b600082601f8301126122f057600080fd5b813567ffffffffffffffff81111561230a5761230a612298565b61231d601f8201601f19166020016122ae565b81815284602083860101111561233257600080fd5b816020850160208301376000918101602001919091529392505050565b6000602080838503121561236257600080fd5b823567ffffffffffffffff8082111561237a57600080fd5b818501915085601f83011261238e57600080fd5b8135818111156123a0576123a0612298565b8060051b6123af8582016122ae565b91825283810185019185810190898411156123c957600080fd5b86860192505b83831015612405578235858111156123e75760008081fd5b6123f58b89838a01016122df565b83525091860191908601906123cf565b9998505050505050505050565b60006020828403121561242457600080fd5b813567ffffffffffffffff81111561243b57600080fd5b612447848285016122df565b949350505050565b60006020828403121561246157600080fd5b611eec82612250565b6000806020838503121561247d57600080fd5b823567ffffffffffffffff8082111561249557600080fd5b818501915085601f8301126124a957600080fd5b8135818111156124b857600080fd5b8660208260051b85010111156124cd57600080fd5b60209290920196919550909350505050565b600080602083850312156124f257600080fd5b823567ffffffffffffffff8082111561250a57600080fd5b818501915085601f83011261251e57600080fd5b81358181111561252d57600080fd5b8660208285010111156124cd57600080fd5b60006020828403121561255157600080fd5b813565ffffffffffff81168114611eec57600080fd5b60006020828403121561257957600080fd5b813563ffffffff81168114611eec57600080fd5b60005b838110156125a8578181015183820152602001612590565b50506000910152565b600081518084526125c981602086016020860161258d565b601f01601f19169290920160200192915050565b6000602080830181845280855180835260408601915060408160051b870101925083870160005b8281101561263257603f198886030184526126208583516125b1565b94509285019290850190600101612604565b5092979650505050505050565b634e487b7160e01b600052603260045260246000fd5b6000825161266781846020870161258d565b9190910192915050565b634e487b7160e01b600052601160045260246000fd5b818103818111156108d6576108d6612671565b600181811c908216806126ae57607f821691505b6020821081036126ce57634e487b7160e01b600052602260045260246000fd5b50919050565b601f821115610d7357600081815260208120601f850160051c810160208610156126fb5750805b601f850160051c820191505b8181101561271a57828155600101612707565b505050505050565b815167ffffffffffffffff81111561273c5761273c612298565b6127508161274a845461269a565b846126d4565b602080601f831160018114612785576000841561276d5750858301515b600019600386901b1c1916600185901b17855561271a565b600085815260208120601f198616915b828110156127b457888601518255948401946001909101908401612795565b50858210156127d25787850151600019600388901b60f8161c191681555b5050505050600190811b01905550565b808201808211156108d6576108d6612671565b634e487b7160e01b600052603160045260246000fd5b602081526000611eec60208301846125b1565b60006001820161283057612830612671565b5060010190565b600063ffffffff80831681810361285057612850612671565b6001019392505050565b65ffffffffffff81811683821601908082111561287957612879612671565b5092915050565b7f416363657373436f6e74726f6c3a206163636f756e74200000000000000000008152600083516128b881601785016020880161258d565b7f206973206d697373696e6720726f6c652000000000000000000000000000000060179184019182015283516128f581602884016020880161258d565b01602801949350505050565b65ffffffffffff82811682821603908082111561287957612879612671565b80820281158282048414176108d6576108d6612671565b60008161294657612946612671565b50600019019056fea264697066735822122094bdd760a36c097a7873046bfdace8accfef505fcc47e00abc407169206d9cc764736f6c634300081100336d2886f90141c813869853ca97aba5ea6c180c8b9b5e052e223ebf4e260e482d",
  "devdoc": {
    "kind": "dev",
    "methods": {
      "acceptDefaultAdminTransfer()": {
        "details": "Completes a {defaultAdmin} transfer previously started with {beginDefaultAdminTransfer}. After calling the function: - `DEFAULT_ADMIN_ROLE` should be granted to the caller. - `DEFAULT_ADMIN_ROLE` should be revoked from the previous holder. - {pendingDefaultAdmin} should be reset to zero values. Requirements: - Only can be called by the {pendingDefaultAdmin}'s `newAdmin`. - The {pendingDefaultAdmin}'s `acceptSchedule` should've passed."
      },
      "beginDefaultAdminTransfer(address)": {
        "details": "Starts a {defaultAdmin} transfer by setting a {pendingDefaultAdmin} scheduled for acceptance after the current timestamp plus a {defaultAdminDelay}. Requirements: - Only can be called by the current {defaultAdmin}. Emits a DefaultAdminRoleChangeStarted event."
      },
      "cancelDefaultAdminTransfer()": {
        "details": "Cancels a {defaultAdmin} transfer previously started with {beginDefaultAdminTransfer}. A {pendingDefaultAdmin} not yet accepted can also be cancelled with this function. Requirements: - Only can be called by the current {defaultAdmin}. May emit a DefaultAdminTransferCanceled event."
      },
      "changeDefaultAdminDelay(uint48)": {
        "details": "Initiates a {defaultAdminDelay} update by setting a {pendingDefaultAdminDelay} scheduled for getting into effect after the current timestamp plus a {defaultAdminDelay}. This function guarantees that any call to {beginDefaultAdminTransfer} done between the timestamp this method is called and the {pendingDefaultAdminDelay} effect schedule will use the current {defaultAdminDelay} set before calling. The {pendingDefaultAdminDelay}'s effect schedule is defined in a way that waiting until the schedule and then calling {beginDefaultAdminTransfer} with the new delay will take at least the same as another {defaultAdmin} complete transfer (including acceptance). The schedule is designed for two scenarios: - When the delay is changed for a larger one the schedule is `block.timestamp + newDelay` capped by {defaultAdminDelayIncreaseWait}. - When the delay is changed for a shorter one, the schedule is `block.timestamp + (current delay - new delay)`. A {pendingDefaultAdminDelay} that never got into effect will be canceled in favor of a new scheduled change. Requirements: - Only can be called by the current {defaultAdmin}. Emits a DefaultAdminDelayChangeScheduled event and may emit a DefaultAdminDelayChangeCanceled event."
      },
      "defaultAdmin()": {
        "details": "Returns the address of the current `DEFAULT_ADMIN_ROLE` holder."
      },
      "defaultAdminDelay()": {
        "details": "Returns the delay required to schedule the acceptance of a {defaultAdmin} transfer started. This delay will be added to the current timestamp when calling {beginDefaultAdminTransfer} to set the acceptance schedule. NOTE: If a delay change has been scheduled, it will take effect as soon as the schedule passes, making this function returns the new delay. See {changeDefaultAdminDelay}."
      },
      "defaultAdminDelayIncreaseWait()": {
        "details": "Maximum time in seconds for an increase to {defaultAdminDelay} (that is scheduled using {changeDefaultAdminDelay}) to take effect. Default to 5 days. When the {defaultAdminDelay} is scheduled to be increased, it goes into effect after the new delay has passed with the purpose of giving enough time for reverting any accidental change (i.e. using milliseconds instead of seconds) that may lock the contract. However, to avoid excessive schedules, the wait is capped by this function and it can be overrode for a custom {defaultAdminDelay} increase scheduling. IMPORTANT: Make sure to add a reasonable amount of time while overriding this value, otherwise, there's a risk of setting a high new delay that goes into effect almost immediately without the possibility of human intervention in the case of an input error (eg. set milliseconds instead of seconds)."
      },
      "getRoleAdmin(bytes32)": {
        "details": "Returns the admin role that controls `role`. See {grantRole} and {revokeRole}. To change a role's admin, use {_setRoleAdmin}."
      },
      "grantRole(bytes32,address)": {
        "details": "See {AccessControl-grantRole}. Reverts for `DEFAULT_ADMIN_ROLE`."
      },
      "hasRole(bytes32,address)": {
        "details": "Returns `true` if `account` has been granted `role`."
      },
      "owner()": {
        "details": "See {IERC5313-owner}."
      },
      "pendingDefaultAdmin()": {
        "details": "Returns a tuple of a `newAdmin` and an accept schedule. After the `schedule` passes, the `newAdmin` will be able to accept the {defaultAdmin} role by calling {acceptDefaultAdminTransfer}, completing the role transfer. A zero value only in `acceptSchedule` indicates no pending admin transfer. NOTE: A zero address `newAdmin` means that {defaultAdmin} is being renounced."
      },
      "pendingDefaultAdminDelay()": {
        "details": "Returns a tuple of `newDelay` and an effect schedule. After the `schedule` passes, the `newDelay` will get into effect immediately for every new {defaultAdmin} transfer started with {beginDefaultAdminTransfer}. A zero value only in `effectSchedule` indicates no pending delay change. NOTE: A zero value only for `newDelay` means that the next {defaultAdminDelay} will be zero after the effect schedule."
      },
      "renounceRole(bytes32,address)": {
        "details": "See {AccessControl-renounceRole}. For the `DEFAULT_ADMIN_ROLE`, it only allows renouncing in two steps by first calling {beginDefaultAdminTransfer} to the `address(0)`, so it's required that the {pendingDefaultAdmin} schedule has also passed when calling this function. After its execution, it will not be possible to call `onlyRole(DEFAULT_ADMIN_ROLE)` functions. NOTE: Renouncing `DEFAULT_ADMIN_ROLE` will leave the contract without a {defaultAdmin}, thereby disabling any functionality that is only available for it, and the possibility of reassigning a non-administrated role."
      },
      "revokeRole(bytes32,address)": {
        "details": "See {AccessControl-revokeRole}. Reverts for `DEFAULT_ADMIN_ROLE`."
      },
      "rollbackDefaultAdminDelay()": {
        "details": "Cancels a scheduled {defaultAdminDelay} change. Requirements: - Only can be called by the current {defaultAdmin}. May emit a DefaultAdminDelayChangeCanceled event."
      },
      "supportsInterface(bytes4)": {
        "details": "See {IERC165-supportsInterface}."
      }
    },
    "version": 1
  },
  "userdoc": {
    "kind": "user",
    "methods": {},
    "version": 1
  },
  "storageLayout": {
    "storage": [
      {
        "astId": 461,
        "contract": "jns-admin-contract/contracts/JNSAdminContract.sol:JNSAdminContract",
        "label": "_roles",
        "offset": 0,
        "slot": "0",
        "type": "t_mapping(t_bytes32,t_struct(RoleData)456_storage)"
      },
      {
        "astId": 767,
        "contract": "jns-admin-contract/contracts/JNSAdminContract.sol:JNSAdminContract",
        "label": "_pendingDefaultAdmin",
        "offset": 0,
        "slot": "1",
        "type": "t_address"
      },
      {
        "astId": 769,
        "contract": "jns-admin-contract/contracts/JNSAdminContract.sol:JNSAdminContract",
        "label": "_pendingDefaultAdminSchedule",
        "offset": 20,
        "slot": "1",
        "type": "t_uint48"
      },
      {
        "astId": 771,
        "contract": "jns-admin-contract/contracts/JNSAdminContract.sol:JNSAdminContract",
        "label": "_currentDelay",
        "offset": 26,
        "slot": "1",
        "type": "t_uint48"
      },
      {
        "astId": 773,
        "contract": "jns-admin-contract/contracts/JNSAdminContract.sol:JNSAdminContract",
        "label": "_currentDefaultAdmin",
        "offset": 0,
        "slot": "2",
        "type": "t_address"
      },
      {
        "astId": 775,
        "contract": "jns-admin-contract/contracts/JNSAdminContract.sol:JNSAdminContract",
        "label": "_pendingDelay",
        "offset": 20,
        "slot": "2",
        "type": "t_uint48"
      },
      {
        "astId": 777,
        "contract": "jns-admin-contract/contracts/JNSAdminContract.sol:JNSAdminContract",
        "label": "_pendingDelaySchedule",
        "offset": 26,
        "slot": "2",
        "type": "t_uint48"
      },
      {
        "astId": 29313,
        "contract": "jns-admin-contract/contracts/JNSAdminContract.sol:JNSAdminContract",
        "label": "recipientAddress",
        "offset": 0,
        "slot": "3",
        "type": "t_address"
      },
      {
        "astId": 29315,
        "contract": "jns-admin-contract/contracts/JNSAdminContract.sol:JNSAdminContract",
        "label": "oracleAddress",
        "offset": 0,
        "slot": "4",
        "type": "t_address"
      },
      {
        "astId": 29319,
        "contract": "jns-admin-contract/contracts/JNSAdminContract.sol:JNSAdminContract",
        "label": "whitelistCharacters",
        "offset": 0,
        "slot": "5",
        "type": "t_mapping(t_uint32,t_bool)"
      },
      {
        "astId": 29322,
        "contract": "jns-admin-contract/contracts/JNSAdminContract.sol:JNSAdminContract",
        "label": "takedownList",
        "offset": 0,
        "slot": "6",
        "type": "t_array(t_string_storage)dyn_storage"
      },
      {
        "astId": 29326,
        "contract": "jns-admin-contract/contracts/JNSAdminContract.sol:JNSAdminContract",
        "label": "takedownMapping",
        "offset": 0,
        "slot": "7",
        "type": "t_mapping(t_string_memory_ptr,t_bool)"
      },
      {
        "astId": 29330,
        "contract": "jns-admin-contract/contracts/JNSAdminContract.sol:JNSAdminContract",
        "label": "takedownIndex",
        "offset": 0,
        "slot": "8",
        "type": "t_mapping(t_string_memory_ptr,t_uint256)"
      }
    ],
    "types": {
      "t_address": {
        "encoding": "inplace",
        "label": "address",
        "numberOfBytes": "20"
      },
      "t_array(t_string_storage)dyn_storage": {
        "base": "t_string_storage",
        "encoding": "dynamic_array",
        "label": "string[]",
        "numberOfBytes": "32"
      },
      "t_bool": {
        "encoding": "inplace",
        "label": "bool",
        "numberOfBytes": "1"
      },
      "t_bytes32": {
        "encoding": "inplace",
        "label": "bytes32",
        "numberOfBytes": "32"
      },
      "t_mapping(t_address,t_bool)": {
        "encoding": "mapping",
        "key": "t_address",
        "label": "mapping(address => bool)",
        "numberOfBytes": "32",
        "value": "t_bool"
      },
      "t_mapping(t_bytes32,t_struct(RoleData)456_storage)": {
        "encoding": "mapping",
        "key": "t_bytes32",
        "label": "mapping(bytes32 => struct AccessControl.RoleData)",
        "numberOfBytes": "32",
        "value": "t_struct(RoleData)456_storage"
      },
      "t_mapping(t_string_memory_ptr,t_bool)": {
        "encoding": "mapping",
        "key": "t_string_memory_ptr",
        "label": "mapping(string => bool)",
        "numberOfBytes": "32",
        "value": "t_bool"
      },
      "t_mapping(t_string_memory_ptr,t_uint256)": {
        "encoding": "mapping",
        "key": "t_string_memory_ptr",
        "label": "mapping(string => uint256)",
        "numberOfBytes": "32",
        "value": "t_uint256"
      },
      "t_mapping(t_uint32,t_bool)": {
        "encoding": "mapping",
        "key": "t_uint32",
        "label": "mapping(uint32 => bool)",
        "numberOfBytes": "32",
        "value": "t_bool"
      },
      "t_string_memory_ptr": {
        "encoding": "bytes",
        "label": "string",
        "numberOfBytes": "32"
      },
      "t_string_storage": {
        "encoding": "bytes",
        "label": "string",
        "numberOfBytes": "32"
      },
      "t_struct(RoleData)456_storage": {
        "encoding": "inplace",
        "label": "struct AccessControl.RoleData",
        "members": [
          {
            "astId": 453,
            "contract": "jns-admin-contract/contracts/JNSAdminContract.sol:JNSAdminContract",
            "label": "members",
            "offset": 0,
            "slot": "0",
            "type": "t_mapping(t_address,t_bool)"
          },
          {
            "astId": 455,
            "contract": "jns-admin-contract/contracts/JNSAdminContract.sol:JNSAdminContract",
            "label": "adminRole",
            "offset": 0,
            "slot": "1",
            "type": "t_bytes32"
          }
        ],
        "numberOfBytes": "64"
      },
      "t_uint256": {
        "encoding": "inplace",
        "label": "uint256",
        "numberOfBytes": "32"
      },
      "t_uint32": {
        "encoding": "inplace",
        "label": "uint32",
        "numberOfBytes": "4"
      },
      "t_uint48": {
        "encoding": "inplace",
        "label": "uint48",
        "numberOfBytes": "6"
      }
    }
  }
}