{
  "address": "0xcB9C6fDf14f7a40981b2372078e59b4a3E53Ec00",
  "abi": [
    {
      "inputs": [
        {
          "internalType": "address",
          "name": "_adminContractAddress",
          "type": "address"
        }
      ],
      "stateMutability": "nonpayable",
      "type": "constructor"
    },
    {
      "anonymous": false,
      "inputs": [
        {
          "indexed": false,
          "internalType": "uint32",
          "name": "charCode",
          "type": "uint32"
        }
      ],
      "name": "CharacterRemovedFromWhitelist",
      "type": "event"
    },
    {
      "anonymous": false,
      "inputs": [
        {
          "indexed": false,
          "internalType": "uint32",
          "name": "charCode",
          "type": "uint32"
        }
      ],
      "name": "CharacterWhitelisted",
      "type": "event"
    },
    {
      "anonymous": false,
      "inputs": [
        {
          "indexed": false,
          "internalType": "string",
          "name": "word",
          "type": "string"
        }
      ],
      "name": "RestrictWordAdded",
      "type": "event"
    },
    {
      "anonymous": false,
      "inputs": [
        {
          "indexed": false,
          "internalType": "string",
          "name": "word",
          "type": "string"
        }
      ],
      "name": "RestrictWordRemoved",
      "type": "event"
    },
    {
      "anonymous": false,
      "inputs": [
        {
          "indexed": false,
          "internalType": "string",
          "name": "tokenId",
          "type": "string"
        }
      ],
      "name": "TakedownAdded",
      "type": "event"
    },
    {
      "anonymous": false,
      "inputs": [
        {
          "indexed": false,
          "internalType": "string",
          "name": "tokenId",
          "type": "string"
        }
      ],
      "name": "TakedownRemoved",
      "type": "event"
    },
    {
      "inputs": [],
      "name": "NAME_MANAGER_ROLE",
      "outputs": [
        {
          "internalType": "bytes32",
          "name": "",
          "type": "bytes32"
        }
      ],
      "stateMutability": "view",
      "type": "function"
    },
    {
      "inputs": [
        {
          "internalType": "string[]",
          "name": "words",
          "type": "string[]"
        }
      ],
      "name": "addToRestrictWords",
      "outputs": [],
      "stateMutability": "nonpayable",
      "type": "function"
    },
    {
      "inputs": [
        {
          "internalType": "string[]",
          "name": "tokenIds",
          "type": "string[]"
        }
      ],
      "name": "addToTakedownList",
      "outputs": [],
      "stateMutability": "nonpayable",
      "type": "function"
    },
    {
      "inputs": [
        {
          "internalType": "uint32[]",
          "name": "charCodes",
          "type": "uint32[]"
        }
      ],
      "name": "addToWhitelistCharacters",
      "outputs": [],
      "stateMutability": "nonpayable",
      "type": "function"
    },
    {
      "inputs": [],
      "name": "adminContract",
      "outputs": [
        {
          "internalType": "contract IJNSAdminContract",
          "name": "",
          "type": "address"
        }
      ],
      "stateMutability": "view",
      "type": "function"
    },
    {
      "inputs": [],
      "name": "getRestrictWords",
      "outputs": [
        {
          "internalType": "string[]",
          "name": "",
          "type": "string[]"
        }
      ],
      "stateMutability": "view",
      "type": "function"
    },
    {
      "inputs": [],
      "name": "getTakedownList",
      "outputs": [
        {
          "internalType": "string[]",
          "name": "",
          "type": "string[]"
        }
      ],
      "stateMutability": "view",
      "type": "function"
    },
    {
      "inputs": [],
      "name": "hashRestrictWords",
      "outputs": [
        {
          "internalType": "bytes32[]",
          "name": "",
          "type": "bytes32[]"
        }
      ],
      "stateMutability": "view",
      "type": "function"
    },
    {
      "inputs": [],
      "name": "hashTakedownList",
      "outputs": [
        {
          "internalType": "bytes32[]",
          "name": "",
          "type": "bytes32[]"
        }
      ],
      "stateMutability": "view",
      "type": "function"
    },
    {
      "inputs": [
        {
          "internalType": "string",
          "name": "tokenId",
          "type": "string"
        }
      ],
      "name": "isInTakedownList",
      "outputs": [
        {
          "internalType": "bool",
          "name": "",
          "type": "bool"
        }
      ],
      "stateMutability": "view",
      "type": "function"
    },
    {
      "inputs": [
        {
          "internalType": "string",
          "name": "word",
          "type": "string"
        }
      ],
      "name": "isWordRestricted",
      "outputs": [
        {
          "internalType": "bool",
          "name": "",
          "type": "bool"
        }
      ],
      "stateMutability": "view",
      "type": "function"
    },
    {
      "inputs": [
        {
          "internalType": "string",
          "name": "word",
          "type": "string"
        }
      ],
      "name": "isWordWhitelisted",
      "outputs": [
        {
          "internalType": "bool",
          "name": "",
          "type": "bool"
        }
      ],
      "stateMutability": "view",
      "type": "function"
    },
    {
      "inputs": [
        {
          "internalType": "string[]",
          "name": "words",
          "type": "string[]"
        }
      ],
      "name": "removeFromRestrictWords",
      "outputs": [],
      "stateMutability": "nonpayable",
      "type": "function"
    },
    {
      "inputs": [
        {
          "internalType": "string[]",
          "name": "tokenIds",
          "type": "string[]"
        }
      ],
      "name": "removeFromTakedownList",
      "outputs": [],
      "stateMutability": "nonpayable",
      "type": "function"
    },
    {
      "inputs": [
        {
          "internalType": "uint32[]",
          "name": "charCodes",
          "type": "uint32[]"
        }
      ],
      "name": "removeFromWhitelistCharacters",
      "outputs": [],
      "stateMutability": "nonpayable",
      "type": "function"
    },
    {
      "inputs": [
        {
          "internalType": "uint32",
          "name": "",
          "type": "uint32"
        }
      ],
      "name": "whitelistCharacters",
      "outputs": [
        {
          "internalType": "bool",
          "name": "",
          "type": "bool"
        }
      ],
      "stateMutability": "view",
      "type": "function"
    }
  ],
  "transactionHash": "0x93c91fe8baeecac889ff845f287f1538d8597de891dca0a63e9bc85c39690ebe",
  "args": [
    "0xbcda9CBB169993F78f3d265e2318a25b2966D182"
  ],
  "numDeployments": 1,
  "solcInputHash": "98405d5ede56ec822403c54e3b4f424c",
  "bytecode": "0x60806040523480156200001157600080fd5b5060405162001e5038038062001e508339810160408190526200003491620001af565b6001600160a01b038116620000a95760405162461bcd60e51b815260206004820152603160248201527f41646d696e20636f6e747261637420616464726573732063616e6e6f7420626560448201527020746865207a65726f206164647265737360781b606482015260840160405180910390fd5b600080546001600160a01b0319166001600160a01b038316179055620000ce620000d5565b5062000213565b60615b607a8163ffffffff1611620001405763ffffffff8116600081815260016020818152604092839020805460ff1916909217909155905191825260008051602062001e30833981519152910160405180910390a1806200013781620001e1565b915050620000d8565b5060305b60398163ffffffff1611620001ac5763ffffffff8116600081815260016020818152604092839020805460ff1916909217909155905191825260008051602062001e30833981519152910160405180910390a180620001a381620001e1565b91505062000144565b50565b600060208284031215620001c257600080fd5b81516001600160a01b0381168114620001da57600080fd5b9392505050565b600063ffffffff8083168181036200020957634e487b7160e01b600052601160045260246000fd5b6001019392505050565b611c0d80620002236000396000f3fe608060405234801561001057600080fd5b50600436106101005760003560e01c80639da5cb6311610097578063c05c5e9411610066578063c05c5e9414610229578063d58bc93f14610254578063e82ac1fd14610269578063eb00d1641461027157600080fd5b80639da5cb63146101d85780639efa1310146101fb578063a0aded221461020e578063adab8a961461021657600080fd5b806375aea76d116100d357806375aea76d1461018a5780637e9ac7e11461019f5780637fed9497146101b25780638c6e9d66146101c557600080fd5b80631be0e1951461010557806345367f561461013f5780635558ad82146101545780636264659314610167575b600080fd5b61012c7f6ae19fd703cb304b53d5f09f6a0ce96b7c6a7edd912859ca6c4ed719bcab610d81565b6040519081526020015b60405180910390f35b61015261014d366004611563565b610284565b005b610152610162366004611563565b6104af565b61017a6101753660046115a5565b6106ed565b6040519015158152602001610136565b6101926107a2565b604051610136919061163b565b6101526101ad366004611563565b61087b565b6101526101c0366004611563565b610a50565b6101526101d3366004611563565b610c55565b61017a6101e63660046116b5565b60016020526000908152604090205460ff1681565b61017a6102093660046116f1565b610e5a565b610192610e96565b610152610224366004611563565b610f66565b60005461023c906001600160a01b031681565b6040516001600160a01b039091168152602001610136565b61025c6111a4565b60405161013691906117a2565b61025c6111b5565b61017a61027f3660046116f1565b6111c1565b600054604051632474521560e21b81527f6ae19fd703cb304b53d5f09f6a0ce96b7c6a7edd912859ca6c4ed719bcab610d60048201523360248201526001600160a01b03909116906391d1485490604401602060405180830381865afa1580156102f2573d6000803e3d6000fd5b505050506040513d601f19601f8201168201806040525081019061031691906117e6565b6103675760405162461bcd60e51b815260206004820152601c60248201527f43616c6c6572206973206e6f742061206e616d65206d616e616765720000000060448201526064015b60405180910390fd5b60005b818110156104aa57600083838381811061038657610386611808565b9050602002810190610398919061181e565b6040516020016103a9929190611865565b60408051601f198184030181529190528051602090910120905060006103d06003836111fd565b905080156104975761043b60028686868181106103ef576103ef611808565b9050602002810190610401919061181e565b8080601f01602080910402602001604051908101604052809392919081815260200183838082843760009201919091525061121092505050565b7f807f6e1fa4229ee97982c88e3b3fafbd549fafbb5d5e12245694b550a2d5248185858581811061046e5761046e611808565b9050602002810190610480919061181e565b60405161048e929190611875565b60405180910390a15b5050806104a3906118ba565b905061036a565b505050565b600054604051632474521560e21b81527f6ae19fd703cb304b53d5f09f6a0ce96b7c6a7edd912859ca6c4ed719bcab610d60048201523360248201526001600160a01b03909116906391d1485490604401602060405180830381865afa15801561051d573d6000803e3d6000fd5b505050506040513d601f19601f8201168201806040525081019061054191906117e6565b61058d5760405162461bcd60e51b815260206004820152601c60248201527f43616c6c6572206973206e6f742061206e616d65206d616e6167657200000000604482015260640161035e565b60005b818110156104aa57600160008484848181106105ae576105ae611808565b90506020020160208101906105c391906116b5565b63ffffffff16815260208101919091526040016000205460ff161561062a5760405162461bcd60e51b815260206004820152601d60248201527f43686172616374657220616c72656164792077686974656c6973746564000000604482015260640161035e565b600180600085858581811061064157610641611808565b905060200201602081019061065691906116b5565b63ffffffff1681526020810191909152604001600020805460ff19169115159190911790557f0a1d1daec80458b176d8be862934e3e6abd7bafe3a21e1eeb638e65bebbffdd58383838181106106ae576106ae611808565b90506020020160208101906106c391906116b5565b60405163ffffffff909116815260200160405180910390a1806106e5816118ba565b915050610590565b60008083838080601f01602080910402602001604051908101604052809392919081815260200183838082843760009201829052509394505050505b81518163ffffffff161015610795576000828263ffffffff168151811061075257610752611808565b0160209081015160f81c6000818152600190925260409091205490915060ff16610782576000935050505061079c565b508061078d816118d3565b915050610729565b5060019150505b92915050565b60606005805480602002602001604051908101604052809291908181526020016000905b828210156108725783829060005260206000200180546107e5906118f6565b80601f0160208091040260200160405190810160405280929190818152602001828054610811906118f6565b801561085e5780601f106108335761010080835404028352916020019161085e565b820191906000526020600020905b81548152906001019060200180831161084157829003601f168201915b5050505050815260200190600101906107c6565b50505050905090565b600054604051632474521560e21b81527f6ae19fd703cb304b53d5f09f6a0ce96b7c6a7edd912859ca6c4ed719bcab610d60048201523360248201526001600160a01b03909116906391d1485490604401602060405180830381865afa1580156108e9573d6000803e3d6000fd5b505050506040513d601f19601f8201168201806040525081019061090d91906117e6565b6109595760405162461bcd60e51b815260206004820152601c60248201527f43616c6c6572206973206e6f742061206e616d65206d616e6167657200000000604482015260640161035e565b60005b818110156104aa57600083838381811061097857610978611808565b905060200281019061098a919061181e565b60405160200161099b929190611865565b60408051601f198184030181529190528051602090910120905060006109c26006836111fd565b90508015610a3d576109e160058686868181106103ef576103ef611808565b7f9afa2d6232d54dff0f9c85dd348a90507d3cf41c2233b301a01ab1e8b7cf3191858585818110610a1457610a14611808565b9050602002810190610a26919061181e565b604051610a34929190611875565b60405180910390a15b505080610a49906118ba565b905061095c565b600054604051632474521560e21b81527f6ae19fd703cb304b53d5f09f6a0ce96b7c6a7edd912859ca6c4ed719bcab610d60048201523360248201526001600160a01b03909116906391d1485490604401602060405180830381865afa158015610abe573d6000803e3d6000fd5b505050506040513d601f19601f82011682018060405250810190610ae291906117e6565b610b2e5760405162461bcd60e51b815260206004820152601c60248201527f43616c6c6572206973206e6f742061206e616d65206d616e6167657200000000604482015260640161035e565b60005b818110156104aa576000838383818110610b4d57610b4d611808565b9050602002810190610b5f919061181e565b604051602001610b70929190611865565b60408051601f19818403018152919052805160209091012090506000610b976003836112f2565b90508015610c42576002858585818110610bb357610bb3611808565b9050602002810190610bc5919061181e565b82546001810184556000938452602090932090920191610be5918361197e565b507f5c1aedbd68a3ba77c093f693ee402fd4c7f76873b5e0a202395a0abe32970057858585818110610c1957610c19611808565b9050602002810190610c2b919061181e565b604051610c39929190611875565b60405180910390a15b505080610c4e906118ba565b9050610b31565b600054604051632474521560e21b81527f6ae19fd703cb304b53d5f09f6a0ce96b7c6a7edd912859ca6c4ed719bcab610d60048201523360248201526001600160a01b03909116906391d1485490604401602060405180830381865afa158015610cc3573d6000803e3d6000fd5b505050506040513d601f19601f82011682018060405250810190610ce791906117e6565b610d335760405162461bcd60e51b815260206004820152601c60248201527f43616c6c6572206973206e6f742061206e616d65206d616e6167657200000000604482015260640161035e565b60005b818110156104aa576000838383818110610d5257610d52611808565b9050602002810190610d64919061181e565b604051602001610d75929190611865565b60408051601f19818403018152919052805160209091012090506000610d9c6006836112f2565b90508015610e47576005858585818110610db857610db8611808565b9050602002810190610dca919061181e565b82546001810184556000938452602090932090920191610dea918361197e565b507f8559884e4e4b77362c97f3968f548c581c8d1a8953fe2afcb84f5b34032c2a88858585818110610e1e57610e1e611808565b9050602002810190610e30919061181e565b604051610e3e929190611875565b60405180910390a15b505080610e53906118ba565b9050610d36565b600061079c82604051602001610e709190611a3f565b6040516020818303038152906040528051906020012060036112fe90919063ffffffff16565b60606002805480602002602001604051908101604052809291908181526020016000905b82821015610872578382906000526020600020018054610ed9906118f6565b80601f0160208091040260200160405190810160405280929190818152602001828054610f05906118f6565b8015610f525780601f10610f2757610100808354040283529160200191610f52565b820191906000526020600020905b815481529060010190602001808311610f3557829003601f168201915b505050505081526020019060010190610eba565b600054604051632474521560e21b81527f6ae19fd703cb304b53d5f09f6a0ce96b7c6a7edd912859ca6c4ed719bcab610d60048201523360248201526001600160a01b03909116906391d1485490604401602060405180830381865afa158015610fd4573d6000803e3d6000fd5b505050506040513d601f19601f82011682018060405250810190610ff891906117e6565b6110445760405162461bcd60e51b815260206004820152601c60248201527f43616c6c6572206973206e6f742061206e616d65206d616e6167657200000000604482015260640161035e565b60005b818110156104aa576001600084848481811061106557611065611808565b905060200201602081019061107a91906116b5565b63ffffffff16815260208101919091526040016000205460ff166110e05760405162461bcd60e51b815260206004820152601a60248201527f436861726163746572206e6f7420696e2077686974656c697374000000000000604482015260640161035e565b6000600160008585858181106110f8576110f8611808565b905060200201602081019061110d91906116b5565b63ffffffff1681526020810191909152604001600020805460ff19169115159190911790557f4f741c47f94dee1010d9edfc67737a1c7c51eb4f8c817892d9fd2dae69def28d83838381811061116557611165611808565b905060200201602081019061117a91906116b5565b60405163ffffffff909116815260200160405180910390a18061119c816118ba565b915050611047565b60606111b06006611316565b905090565b60606111b06003611316565b600061079c826040516020016111d79190611a3f565b6040516020818303038152906040528051906020012060066112fe90919063ffffffff16565b60006112098383611323565b9392505050565b60005b82548110156104aa57818051906020012083828154811061123657611236611808565b9060005260206000200160405161124d9190611a5b565b6040518091039020036112e0578254839061126a90600190611ad1565b8154811061127a5761127a611808565b9060005260206000200183828154811061129657611296611808565b9060005260206000200190816112ac9190611ae4565b50828054806112bd576112bd611bc1565b6001900381819060005260206000200160006112d991906114c1565b9055505050565b806112ea816118ba565b915050611213565b60006112098383611416565b60008181526001830160205260408120541515611209565b6060600061120983611465565b6000818152600183016020526040812054801561140c576000611347600183611ad1565b855490915060009061135b90600190611ad1565b90508181146113c057600086600001828154811061137b5761137b611808565b906000526020600020015490508087600001848154811061139e5761139e611808565b6000918252602080832090910192909255918252600188019052604090208390555b85548690806113d1576113d1611bc1565b60019003818190600052602060002001600090559055856001016000868152602001908152602001600020600090556001935050505061079c565b600091505061079c565b600081815260018301602052604081205461145d5750815460018181018455600084815260208082209093018490558454848252828601909352604090209190915561079c565b50600061079c565b6060816000018054806020026020016040519081016040528092919081815260200182805480156114b557602002820191906000526020600020905b8154815260200190600101908083116114a1575b50505050509050919050565b5080546114cd906118f6565b6000825580601f106114dd575050565b601f0160209004906000526020600020908101906114fb91906114fe565b50565b5b8082111561151357600081556001016114ff565b5090565b60008083601f84011261152957600080fd5b50813567ffffffffffffffff81111561154157600080fd5b6020830191508360208260051b850101111561155c57600080fd5b9250929050565b6000806020838503121561157657600080fd5b823567ffffffffffffffff81111561158d57600080fd5b61159985828601611517565b90969095509350505050565b600080602083850312156115b857600080fd5b823567ffffffffffffffff808211156115d057600080fd5b818501915085601f8301126115e457600080fd5b8135818111156115f357600080fd5b86602082850101111561160557600080fd5b60209290920196919550909350505050565b60005b8381101561163257818101518382015260200161161a565b50506000910152565b6000602080830181845280855180835260408601915060408160051b870101925083870160005b828110156116a857878503603f1901845281518051808752611689818989018a8501611617565b601f01601f191695909501860194509285019290850190600101611662565b5092979650505050505050565b6000602082840312156116c757600080fd5b813563ffffffff8116811461120957600080fd5b634e487b7160e01b600052604160045260246000fd5b60006020828403121561170357600080fd5b813567ffffffffffffffff8082111561171b57600080fd5b818401915084601f83011261172f57600080fd5b813581811115611741576117416116db565b604051601f8201601f19908116603f01168101908382118183101715611769576117696116db565b8160405282815287602084870101111561178257600080fd5b826020860160208301376000928101602001929092525095945050505050565b6020808252825182820181905260009190848201906040850190845b818110156117da578351835292840192918401916001016117be565b50909695505050505050565b6000602082840312156117f857600080fd5b8151801515811461120957600080fd5b634e487b7160e01b600052603260045260246000fd5b6000808335601e1984360301811261183557600080fd5b83018035915067ffffffffffffffff82111561185057600080fd5b60200191503681900382131561155c57600080fd5b8183823760009101908152919050565b60208152816020820152818360408301376000818301604090810191909152601f909201601f19160101919050565b634e487b7160e01b600052601160045260246000fd5b6000600182016118cc576118cc6118a4565b5060010190565b600063ffffffff8083168181036118ec576118ec6118a4565b6001019392505050565b600181811c9082168061190a57607f821691505b60208210810361192a57634e487b7160e01b600052602260045260246000fd5b50919050565b601f8211156104aa57600081815260208120601f850160051c810160208610156119575750805b601f850160051c820191505b8181101561197657828155600101611963565b505050505050565b67ffffffffffffffff831115611996576119966116db565b6119aa836119a483546118f6565b83611930565b6000601f8411600181146119de57600085156119c65750838201355b600019600387901b1c1916600186901b178355611a38565b600083815260209020601f19861690835b82811015611a0f57868501358255602094850194600190920191016119ef565b5086821015611a2c5760001960f88860031b161c19848701351681555b505060018560011b0183555b5050505050565b60008251611a51818460208701611617565b9190910192915050565b6000808354611a69816118f6565b60018281168015611a815760018114611a9657611ac5565b60ff1984168752821515830287019450611ac5565b8760005260208060002060005b85811015611abc5781548a820152908401908201611aa3565b50505082870194505b50929695505050505050565b8181038181111561079c5761079c6118a4565b818103611aef575050565b611af982546118f6565b67ffffffffffffffff811115611b1157611b116116db565b611b2581611b1f84546118f6565b84611930565b6000601f821160018114611b595760008315611b415750848201545b600019600385901b1c1916600184901b178455611a38565b600085815260209020601f19841690600086815260209020845b83811015611b935782860154825560019586019590910190602001611b73565b5085831015611bb15781850154600019600388901b60f8161c191681555b5050505050600190811b01905550565b634e487b7160e01b600052603160045260246000fdfea2646970667358221220452e3ea2777912654e90b1850ee88e674e56df044160e4931cd0632d0b92379a64736f6c634300081100330a1d1daec80458b176d8be862934e3e6abd7bafe3a21e1eeb638e65bebbffdd5",
  "devdoc": {
    "kind": "dev",
    "methods": {},
    "version": 1
  },
  "userdoc": {
    "kind": "user",
    "methods": {},
    "version": 1
  },
  "storageLayout": {
    "storage": [
      {
        "astId": 30387,
        "contract": "jns-admin-contract/contracts/NameManager.sol:NameManager",
        "label": "adminContract",
        "offset": 0,
        "slot": "0",
        "type": "t_contract(IJNSAdminContract)29985"
      },
      {
        "astId": 30391,
        "contract": "jns-admin-contract/contracts/NameManager.sol:NameManager",
        "label": "whitelistCharacters",
        "offset": 0,
        "slot": "1",
        "type": "t_mapping(t_uint32,t_bool)"
      },
      {
        "astId": 30394,
        "contract": "jns-admin-contract/contracts/NameManager.sol:NameManager",
        "label": "takedownList",
        "offset": 0,
        "slot": "2",
        "type": "t_array(t_string_storage)dyn_storage"
      },
      {
        "astId": 30397,
        "contract": "jns-admin-contract/contracts/NameManager.sol:NameManager",
        "label": "takedownSet",
        "offset": 0,
        "slot": "3",
        "type": "t_struct(Bytes32Set)7019_storage"
      },
      {
        "astId": 30400,
        "contract": "jns-admin-contract/contracts/NameManager.sol:NameManager",
        "label": "restrictWords",
        "offset": 0,
        "slot": "5",
        "type": "t_array(t_string_storage)dyn_storage"
      },
      {
        "astId": 30403,
        "contract": "jns-admin-contract/contracts/NameManager.sol:NameManager",
        "label": "restrictWordSet",
        "offset": 0,
        "slot": "6",
        "type": "t_struct(Bytes32Set)7019_storage"
      }
    ],
    "types": {
      "t_array(t_bytes32)dyn_storage": {
        "base": "t_bytes32",
        "encoding": "dynamic_array",
        "label": "bytes32[]",
        "numberOfBytes": "32"
      },
      "t_array(t_string_storage)dyn_storage": {
        "base": "t_string_storage",
        "encoding": "dynamic_array",
        "label": "string[]",
        "numberOfBytes": "32"
      },
      "t_bool": {
        "encoding": "inplace",
        "label": "bool",
        "numberOfBytes": "1"
      },
      "t_bytes32": {
        "encoding": "inplace",
        "label": "bytes32",
        "numberOfBytes": "32"
      },
      "t_contract(IJNSAdminContract)29985": {
        "encoding": "inplace",
        "label": "contract IJNSAdminContract",
        "numberOfBytes": "20"
      },
      "t_mapping(t_bytes32,t_uint256)": {
        "encoding": "mapping",
        "key": "t_bytes32",
        "label": "mapping(bytes32 => uint256)",
        "numberOfBytes": "32",
        "value": "t_uint256"
      },
      "t_mapping(t_uint32,t_bool)": {
        "encoding": "mapping",
        "key": "t_uint32",
        "label": "mapping(uint32 => bool)",
        "numberOfBytes": "32",
        "value": "t_bool"
      },
      "t_string_storage": {
        "encoding": "bytes",
        "label": "string",
        "numberOfBytes": "32"
      },
      "t_struct(Bytes32Set)7019_storage": {
        "encoding": "inplace",
        "label": "struct EnumerableSet.Bytes32Set",
        "members": [
          {
            "astId": 7018,
            "contract": "jns-admin-contract/contracts/NameManager.sol:NameManager",
            "label": "_inner",
            "offset": 0,
            "slot": "0",
            "type": "t_struct(Set)6825_storage"
          }
        ],
        "numberOfBytes": "64"
      },
      "t_struct(Set)6825_storage": {
        "encoding": "inplace",
        "label": "struct EnumerableSet.Set",
        "members": [
          {
            "astId": 6820,
            "contract": "jns-admin-contract/contracts/NameManager.sol:NameManager",
            "label": "_values",
            "offset": 0,
            "slot": "0",
            "type": "t_array(t_bytes32)dyn_storage"
          },
          {
            "astId": 6824,
            "contract": "jns-admin-contract/contracts/NameManager.sol:NameManager",
            "label": "_indexes",
            "offset": 0,
            "slot": "1",
            "type": "t_mapping(t_bytes32,t_uint256)"
          }
        ],
        "numberOfBytes": "64"
      },
      "t_uint256": {
        "encoding": "inplace",
        "label": "uint256",
        "numberOfBytes": "32"
      },
      "t_uint32": {
        "encoding": "inplace",
        "label": "uint32",
        "numberOfBytes": "4"
      }
    }
  }
}