{
  "address": "0x8bE7B6F784C89beB5Fa107B2Bd021D31F8B1BABB",
  "abi": [
    {
      "inputs": [
        {
          "internalType": "address",
          "name": "_adminContractAddress",
          "type": "address"
        }
      ],
      "stateMutability": "nonpayable",
      "type": "constructor"
    },
    {
      "inputs": [],
      "name": "NAME_MANAGER_ROLE",
      "outputs": [
        {
          "internalType": "bytes32",
          "name": "",
          "type": "bytes32"
        }
      ],
      "stateMutability": "view",
      "type": "function"
    },
    {
      "inputs": [
        {
          "internalType": "bytes32",
          "name": "hash",
          "type": "bytes32"
        }
      ],
      "name": "addRestrictedWord",
      "outputs": [],
      "stateMutability": "nonpayable",
      "type": "function"
    },
    {
      "inputs": [
        {
          "internalType": "bytes32",
          "name": "hash",
          "type": "bytes32"
        }
      ],
      "name": "addTakedown",
      "outputs": [],
      "stateMutability": "nonpayable",
      "type": "function"
    },
    {
      "inputs": [
        {
          "internalType": "uint32",
          "name": "character",
          "type": "uint32"
        }
      ],
      "name": "addWhitelistCharacter",
      "outputs": [],
      "stateMutability": "nonpayable",
      "type": "function"
    },
    {
      "inputs": [],
      "name": "adminContract",
      "outputs": [
        {
          "internalType": "contract IJNSAdminContract",
          "name": "",
          "type": "address"
        }
      ],
      "stateMutability": "view",
      "type": "function"
    },
    {
      "inputs": [],
      "name": "getHashedRestrictedWords",
      "outputs": [
        {
          "internalType": "bytes32[]",
          "name": "",
          "type": "bytes32[]"
        }
      ],
      "stateMutability": "view",
      "type": "function"
    },
    {
      "inputs": [],
      "name": "getHashedTakenDownList",
      "outputs": [
        {
          "internalType": "bytes32[]",
          "name": "",
          "type": "bytes32[]"
        }
      ],
      "stateMutability": "view",
      "type": "function"
    },
    {
      "inputs": [
        {
          "internalType": "bytes32",
          "name": "hash",
          "type": "bytes32"
        }
      ],
      "name": "isRestrictedWord",
      "outputs": [
        {
          "internalType": "bool",
          "name": "",
          "type": "bool"
        }
      ],
      "stateMutability": "view",
      "type": "function"
    },
    {
      "inputs": [
        {
          "internalType": "bytes32",
          "name": "hash",
          "type": "bytes32"
        }
      ],
      "name": "isTakedown",
      "outputs": [
        {
          "internalType": "bool",
          "name": "",
          "type": "bool"
        }
      ],
      "stateMutability": "view",
      "type": "function"
    },
    {
      "inputs": [
        {
          "internalType": "uint32",
          "name": "character",
          "type": "uint32"
        }
      ],
      "name": "isWhitelistCharacter",
      "outputs": [
        {
          "internalType": "bool",
          "name": "",
          "type": "bool"
        }
      ],
      "stateMutability": "view",
      "type": "function"
    },
    {
      "inputs": [
        {
          "internalType": "bytes32",
          "name": "hash",
          "type": "bytes32"
        }
      ],
      "name": "removeRestrictedWord",
      "outputs": [],
      "stateMutability": "nonpayable",
      "type": "function"
    },
    {
      "inputs": [
        {
          "internalType": "bytes32",
          "name": "hash",
          "type": "bytes32"
        }
      ],
      "name": "removeTakedown",
      "outputs": [],
      "stateMutability": "nonpayable",
      "type": "function"
    },
    {
      "inputs": [
        {
          "internalType": "uint32",
          "name": "character",
          "type": "uint32"
        }
      ],
      "name": "removeWhitelistCharacter",
      "outputs": [],
      "stateMutability": "nonpayable",
      "type": "function"
    },
    {
      "inputs": [
        {
          "internalType": "uint32",
          "name": "",
          "type": "uint32"
        }
      ],
      "name": "whitelistCharacters",
      "outputs": [
        {
          "internalType": "bool",
          "name": "",
          "type": "bool"
        }
      ],
      "stateMutability": "view",
      "type": "function"
    }
  ],
  "transactionHash": "0x7ebcdf2ac657c87c9623da326b8d64ceb05468edfe3b1ef5f7ae3a7c9a36b5e0",
  "args": [
    "0x1A18C4699273746c335d2d97fBa51E638f080B2E"
  ],
  "numDeployments": 1,
  "solcInputHash": "d69af7ebb9af7866df34efb40b2e6557",
  "bytecode": "0x608060405234801561001057600080fd5b50604051610d18380380610d1883398101604081905261002f91610156565b6001600160a01b0381166100a35760405162461bcd60e51b815260206004820152603160248201527f41646d696e20636f6e747261637420616464726573732063616e6e6f7420626560448201527020746865207a65726f206164647265737360781b606482015260840160405180910390fd5b600580546001600160a01b0319166001600160a01b0383161790556100c66100cc565b506101b7565b60305b60398163ffffffff161161010f5763ffffffff81166000908152602081905260409020805460ff191660011790558061010781610186565b9150506100cf565b5060615b607a8163ffffffff16116101535763ffffffff81166000908152602081905260409020805460ff191660011790558061014b81610186565b915050610113565b50565b60006020828403121561016857600080fd5b81516001600160a01b038116811461017f57600080fd5b9392505050565b600063ffffffff8083168181036101ad57634e487b7160e01b600052601160045260246000fd5b6001019392505050565b610b52806101c66000396000f3fe608060405234801561001057600080fd5b50600436106100ea5760003560e01c80638dc465b21161008c578063deb68ebd11610066578063deb68ebd14610226578063e1e403e114610239578063ea8fc6001461024c578063f6371ce31461025457600080fd5b80638dc465b2146101c55780639da5cb63146101d8578063c05c5e94146101fb57600080fd5b806325f67485116100c857806325f6748514610175578063610ece951461018a57806374d542d31461019f5780638aba607d146101b257600080fd5b80630393533e146100ef578063165c05ad146101175780631be0e19514610140575b600080fd5b6101026100fd366004610a2a565b610267565b60405190151581526020015b60405180910390f35b610102610125366004610a43565b63ffffffff1660009081526020819052604090205460ff1690565b6101677f6ae19fd703cb304b53d5f09f6a0ce96b7c6a7edd912859ca6c4ed719bcab610d81565b60405190815260200161010e565b61017d61027a565b60405161010e9190610a69565b61019d610198366004610a2a565b61028b565b005b61019d6101ad366004610a43565b61037d565b61019d6101c0366004610a2a565b61047c565b61019d6101d3366004610a2a565b610565565b6101026101e6366004610a43565b60006020819052908152604090205460ff1681565b60055461020e906001600160a01b031681565b6040516001600160a01b03909116815260200161010e565b610102610234366004610a2a565b61064e565b61019d610247366004610a2a565b61065b565b61017d610744565b61019d610262366004610a43565b610750565b600061027460018361084c565b92915050565b60606102866001610867565b905090565b600554604051632474521560e21b81527f6ae19fd703cb304b53d5f09f6a0ce96b7c6a7edd912859ca6c4ed719bcab610d60048201523360248201526001600160a01b03909116906391d1485490604401602060405180830381865afa1580156102f9573d6000803e3d6000fd5b505050506040513d601f19601f8201168201806040525081019061031d9190610aad565b61036e5760405162461bcd60e51b815260206004820152601c60248201527f43616c6c6572206973206e6f742061206e616d65206d616e616765720000000060448201526064015b60405180910390fd5b610379600182610874565b5050565b600554604051632474521560e21b81527f6ae19fd703cb304b53d5f09f6a0ce96b7c6a7edd912859ca6c4ed719bcab610d60048201523360248201526001600160a01b03909116906391d1485490604401602060405180830381865afa1580156103eb573d6000803e3d6000fd5b505050506040513d601f19601f8201168201806040525081019061040f9190610aad565b61045b5760405162461bcd60e51b815260206004820152601c60248201527f43616c6c6572206973206e6f742061206e616d65206d616e61676572000000006044820152606401610365565b63ffffffff166000908152602081905260409020805460ff19166001179055565b600554604051632474521560e21b81527f6ae19fd703cb304b53d5f09f6a0ce96b7c6a7edd912859ca6c4ed719bcab610d60048201523360248201526001600160a01b03909116906391d1485490604401602060405180830381865afa1580156104ea573d6000803e3d6000fd5b505050506040513d601f19601f8201168201806040525081019061050e9190610aad565b61055a5760405162461bcd60e51b815260206004820152601c60248201527f43616c6c6572206973206e6f742061206e616d65206d616e61676572000000006044820152606401610365565b610379600382610880565b600554604051632474521560e21b81527f6ae19fd703cb304b53d5f09f6a0ce96b7c6a7edd912859ca6c4ed719bcab610d60048201523360248201526001600160a01b03909116906391d1485490604401602060405180830381865afa1580156105d3573d6000803e3d6000fd5b505050506040513d601f19601f820116820180604052508101906105f79190610aad565b6106435760405162461bcd60e51b815260206004820152601c60248201527f43616c6c6572206973206e6f742061206e616d65206d616e61676572000000006044820152606401610365565b610379600182610880565b600061027460038361084c565b600554604051632474521560e21b81527f6ae19fd703cb304b53d5f09f6a0ce96b7c6a7edd912859ca6c4ed719bcab610d60048201523360248201526001600160a01b03909116906391d1485490604401602060405180830381865afa1580156106c9573d6000803e3d6000fd5b505050506040513d601f19601f820116820180604052508101906106ed9190610aad565b6107395760405162461bcd60e51b815260206004820152601c60248201527f43616c6c6572206973206e6f742061206e616d65206d616e61676572000000006044820152606401610365565b610379600382610874565b60606102866003610867565b600554604051632474521560e21b81527f6ae19fd703cb304b53d5f09f6a0ce96b7c6a7edd912859ca6c4ed719bcab610d60048201523360248201526001600160a01b03909116906391d1485490604401602060405180830381865afa1580156107be573d6000803e3d6000fd5b505050506040513d601f19601f820116820180604052508101906107e29190610aad565b61082e5760405162461bcd60e51b815260206004820152601c60248201527f43616c6c6572206973206e6f742061206e616d65206d616e61676572000000006044820152606401610365565b63ffffffff166000908152602081905260409020805460ff19169055565b600081815260018301602052604081205415155b9392505050565b606060006108608361088c565b600061086083836108e8565b60006108608383610937565b6060816000018054806020026020016040519081016040528092919081815260200182805480156108dc57602002820191906000526020600020905b8154815260200190600101908083116108c8575b50505050509050919050565b600081815260018301602052604081205461092f57508154600181810184556000848152602080822090930184905584548482528286019093526040902091909155610274565b506000610274565b60008181526001830160205260408120548015610a2057600061095b600183610acf565b855490915060009061096f90600190610acf565b90508181146109d457600086600001828154811061098f5761098f610af0565b90600052602060002001549050808760000184815481106109b2576109b2610af0565b6000918252602080832090910192909255918252600188019052604090208390555b85548690806109e5576109e5610b06565b600190038181906000526020600020016000905590558560010160008681526020019081526020016000206000905560019350505050610274565b6000915050610274565b600060208284031215610a3c57600080fd5b5035919050565b600060208284031215610a5557600080fd5b813563ffffffff8116811461086057600080fd5b6020808252825182820181905260009190848201906040850190845b81811015610aa157835183529284019291840191600101610a85565b50909695505050505050565b600060208284031215610abf57600080fd5b8151801515811461086057600080fd5b8181038181111561027457634e487b7160e01b600052601160045260246000fd5b634e487b7160e01b600052603260045260246000fd5b634e487b7160e01b600052603160045260246000fdfea264697066735822122099218bf9900cd60df5c6a69c6a754fa37bb906ff7a3dc3cbfcfcfb94f481148a64736f6c63430008110033",
  "devdoc": {
    "kind": "dev",
    "methods": {},
    "version": 1
  },
  "userdoc": {
    "kind": "user",
    "methods": {},
    "version": 1
  },
  "storageLayout": {
    "storage": [
      {
        "astId": 30850,
        "contract": "jns-admin-contract/contracts/NameManagerDataStore.sol:NameManagerDataStore",
        "label": "whitelistCharacters",
        "offset": 0,
        "slot": "0",
        "type": "t_mapping(t_uint32,t_bool)"
      },
      {
        "astId": 30853,
        "contract": "jns-admin-contract/contracts/NameManagerDataStore.sol:NameManagerDataStore",
        "label": "takedownSet",
        "offset": 0,
        "slot": "1",
        "type": "t_struct(Bytes32Set)7019_storage"
      },
      {
        "astId": 30856,
        "contract": "jns-admin-contract/contracts/NameManagerDataStore.sol:NameManagerDataStore",
        "label": "restrictWordSet",
        "offset": 0,
        "slot": "3",
        "type": "t_struct(Bytes32Set)7019_storage"
      },
      {
        "astId": 30859,
        "contract": "jns-admin-contract/contracts/NameManagerDataStore.sol:NameManagerDataStore",
        "label": "adminContract",
        "offset": 0,
        "slot": "5",
        "type": "t_contract(IJNSAdminContract)29985"
      }
    ],
    "types": {
      "t_array(t_bytes32)dyn_storage": {
        "base": "t_bytes32",
        "encoding": "dynamic_array",
        "label": "bytes32[]",
        "numberOfBytes": "32"
      },
      "t_bool": {
        "encoding": "inplace",
        "label": "bool",
        "numberOfBytes": "1"
      },
      "t_bytes32": {
        "encoding": "inplace",
        "label": "bytes32",
        "numberOfBytes": "32"
      },
      "t_contract(IJNSAdminContract)29985": {
        "encoding": "inplace",
        "label": "contract IJNSAdminContract",
        "numberOfBytes": "20"
      },
      "t_mapping(t_bytes32,t_uint256)": {
        "encoding": "mapping",
        "key": "t_bytes32",
        "label": "mapping(bytes32 => uint256)",
        "numberOfBytes": "32",
        "value": "t_uint256"
      },
      "t_mapping(t_uint32,t_bool)": {
        "encoding": "mapping",
        "key": "t_uint32",
        "label": "mapping(uint32 => bool)",
        "numberOfBytes": "32",
        "value": "t_bool"
      },
      "t_struct(Bytes32Set)7019_storage": {
        "encoding": "inplace",
        "label": "struct EnumerableSet.Bytes32Set",
        "members": [
          {
            "astId": 7018,
            "contract": "jns-admin-contract/contracts/NameManagerDataStore.sol:NameManagerDataStore",
            "label": "_inner",
            "offset": 0,
            "slot": "0",
            "type": "t_struct(Set)6825_storage"
          }
        ],
        "numberOfBytes": "64"
      },
      "t_struct(Set)6825_storage": {
        "encoding": "inplace",
        "label": "struct EnumerableSet.Set",
        "members": [
          {
            "astId": 6820,
            "contract": "jns-admin-contract/contracts/NameManagerDataStore.sol:NameManagerDataStore",
            "label": "_values",
            "offset": 0,
            "slot": "0",
            "type": "t_array(t_bytes32)dyn_storage"
          },
          {
            "astId": 6824,
            "contract": "jns-admin-contract/contracts/NameManagerDataStore.sol:NameManagerDataStore",
            "label": "_indexes",
            "offset": 0,
            "slot": "1",
            "type": "t_mapping(t_bytes32,t_uint256)"
          }
        ],
        "numberOfBytes": "64"
      },
      "t_uint256": {
        "encoding": "inplace",
        "label": "uint256",
        "numberOfBytes": "32"
      },
      "t_uint32": {
        "encoding": "inplace",
        "label": "uint32",
        "numberOfBytes": "4"
      }
    }
  }
}