{
  "address": "0x14BCA1D72D3d63185db1E8B42C1E4752e9dEe11C",
  "abi": [
    {
      "inputs": [
        {
          "internalType": "address",
          "name": "_adminContractAddress",
          "type": "address"
        }
      ],
      "stateMutability": "nonpayable",
      "type": "constructor"
    },
    {
      "inputs": [],
      "name": "NAME_MANAGER_ROLE",
      "outputs": [
        {
          "internalType": "bytes32",
          "name": "",
          "type": "bytes32"
        }
      ],
      "stateMutability": "view",
      "type": "function"
    },
    {
      "inputs": [
        {
          "internalType": "string[]",
          "name": "words",
          "type": "string[]"
        }
      ],
      "name": "addToRestrictWords",
      "outputs": [],
      "stateMutability": "nonpayable",
      "type": "function"
    },
    {
      "inputs": [
        {
          "internalType": "string[]",
          "name": "tokenIds",
          "type": "string[]"
        }
      ],
      "name": "addToTakedownList",
      "outputs": [],
      "stateMutability": "nonpayable",
      "type": "function"
    },
    {
      "inputs": [],
      "name": "adminContract",
      "outputs": [
        {
          "internalType": "contract IJNSAdminContract",
          "name": "",
          "type": "address"
        }
      ],
      "stateMutability": "view",
      "type": "function"
    },
    {
      "inputs": [],
      "name": "hashRestrictWords",
      "outputs": [
        {
          "internalType": "bytes32[]",
          "name": "",
          "type": "bytes32[]"
        }
      ],
      "stateMutability": "view",
      "type": "function"
    },
    {
      "inputs": [],
      "name": "hashTakedownList",
      "outputs": [
        {
          "internalType": "bytes32[]",
          "name": "",
          "type": "bytes32[]"
        }
      ],
      "stateMutability": "view",
      "type": "function"
    },
    {
      "inputs": [
        {
          "internalType": "string",
          "name": "tokenId",
          "type": "string"
        }
      ],
      "name": "isInTakedownList",
      "outputs": [
        {
          "internalType": "bool",
          "name": "",
          "type": "bool"
        }
      ],
      "stateMutability": "view",
      "type": "function"
    },
    {
      "inputs": [
        {
          "internalType": "string",
          "name": "name",
          "type": "string"
        }
      ],
      "name": "isValid",
      "outputs": [
        {
          "internalType": "bool",
          "name": "",
          "type": "bool"
        }
      ],
      "stateMutability": "view",
      "type": "function"
    },
    {
      "inputs": [
        {
          "internalType": "string",
          "name": "word",
          "type": "string"
        }
      ],
      "name": "isWordRestricted",
      "outputs": [
        {
          "internalType": "bool",
          "name": "",
          "type": "bool"
        }
      ],
      "stateMutability": "view",
      "type": "function"
    },
    {
      "inputs": [
        {
          "internalType": "string",
          "name": "word",
          "type": "string"
        }
      ],
      "name": "isWordWhitelisted",
      "outputs": [
        {
          "internalType": "bool",
          "name": "",
          "type": "bool"
        }
      ],
      "stateMutability": "view",
      "type": "function"
    },
    {
      "inputs": [
        {
          "internalType": "string[]",
          "name": "words",
          "type": "string[]"
        }
      ],
      "name": "removeFromRestrictWords",
      "outputs": [],
      "stateMutability": "nonpayable",
      "type": "function"
    },
    {
      "inputs": [
        {
          "internalType": "string[]",
          "name": "tokenIds",
          "type": "string[]"
        }
      ],
      "name": "removeFromTakedownList",
      "outputs": [],
      "stateMutability": "nonpayable",
      "type": "function"
    },
    {
      "inputs": [
        {
          "internalType": "uint32",
          "name": "",
          "type": "uint32"
        }
      ],
      "name": "whitelistCharacters",
      "outputs": [
        {
          "internalType": "bool",
          "name": "",
          "type": "bool"
        }
      ],
      "stateMutability": "view",
      "type": "function"
    }
  ],
  "transactionHash": "0x5c5943da581db057af3f634dcd7131675dffc433f514b595b67fde1216641cf3",
  "args": [
    "0x49eb98E878b2CEceA4aF34406b3Fb0475c80De36"
  ],
  "numDeployments": 1,
  "solcInputHash": "92c55bd66c3f577a8ba7d970be13107b",
  "bytecode": "0x60806040523480156200001157600080fd5b506040516200107a3803806200107a83398101604081905262000034916200016d565b6001600160a01b038116620000a95760405162461bcd60e51b815260206004820152603160248201527f41646d696e20636f6e747261637420616464726573732063616e6e6f7420626560448201527020746865207a65726f206164647265737360781b606482015260840160405180910390fd5b600080546001600160a01b0319166001600160a01b038316179055620000ce620000d5565b50620001d1565b60615b607a8163ffffffff16116200011f5763ffffffff81166000908152600160208190526040909120805460ff191690911790558062000116816200019f565b915050620000d8565b5060305b60398163ffffffff16116200016a5763ffffffff81166000908152600160208190526040909120805460ff191690911790558062000161816200019f565b91505062000123565b50565b6000602082840312156200018057600080fd5b81516001600160a01b03811681146200019857600080fd5b9392505050565b600063ffffffff808316818103620001c757634e487b7160e01b600052601160045260246000fd5b6001019392505050565b610e9980620001e16000396000f3fe608060405234801561001057600080fd5b50600436106100df5760003560e01c80639da5cb631161008c578063d58bc93f11610066578063d58bc93f146101f0578063e82ac1fd14610205578063eb00d1641461020d578063f1dfaefb1461022057600080fd5b80639da5cb631461018f5780639efa1310146101b2578063c05c5e94146101c557600080fd5b80637e9ac7e1116100bd5780637e9ac7e1146101565780637fed9497146101695780638c6e9d661461017c57600080fd5b80631be0e195146100e457806345367f561461011e5780636264659314610133575b600080fd5b61010b7f6ae19fd703cb304b53d5f09f6a0ce96b7c6a7edd912859ca6c4ed719bcab610d81565b6040519081526020015b60405180910390f35b61013161012c366004610b1d565b610233565b005b610146610141366004610b92565b610395565b6040519015158152602001610115565b610131610164366004610b1d565b61044a565b610131610177366004610b1d565b6105a2565b61013161018a366004610b1d565b6106fa565b61014661019d366004610bf2565b60016020526000908152604090205460ff1681565b6101466101c0366004610c2e565b610852565b6000546101d8906001600160a01b031681565b6040516001600160a01b039091168152602001610115565b6101f861088e565b6040516101159190610cdf565b6101f861089f565b61014661021b366004610c2e565b6108ab565b61014661022e366004610b92565b6108e7565b600054604051632474521560e21b81527f6ae19fd703cb304b53d5f09f6a0ce96b7c6a7edd912859ca6c4ed719bcab610d60048201523360248201526001600160a01b03909116906391d1485490604401602060405180830381865afa1580156102a1573d6000803e3d6000fd5b505050506040513d601f19601f820116820180604052508101906102c59190610d23565b6103165760405162461bcd60e51b815260206004820152601c60248201527f43616c6c6572206973206e6f742061206e616d65206d616e616765720000000060448201526064015b60405180910390fd5b60005b8181101561039057600083838381811061033557610335610d45565b90506020028101906103479190610d5b565b604051602001610358929190610da9565b60408051601f198184030181529190528051602090910120905061037d600282610942565b50508061038990610dcf565b9050610319565b505050565b60008083838080601f01602080910402602001604051908101604052809392919081815260200183838082843760009201829052509394505050505b81518163ffffffff16101561043d576000828263ffffffff16815181106103fa576103fa610d45565b0160209081015160f81c6000818152600190925260409091205490915060ff1661042a5760009350505050610444565b508061043581610de8565b9150506103d1565b5060019150505b92915050565b600054604051632474521560e21b81527f6ae19fd703cb304b53d5f09f6a0ce96b7c6a7edd912859ca6c4ed719bcab610d60048201523360248201526001600160a01b03909116906391d1485490604401602060405180830381865afa1580156104b8573d6000803e3d6000fd5b505050506040513d601f19601f820116820180604052508101906104dc9190610d23565b6105285760405162461bcd60e51b815260206004820152601c60248201527f43616c6c6572206973206e6f742061206e616d65206d616e6167657200000000604482015260640161030d565b60005b8181101561039057600083838381811061054757610547610d45565b90506020028101906105599190610d5b565b60405160200161056a929190610da9565b60408051601f198184030181529190528051602090910120905061058f600482610942565b50508061059b90610dcf565b905061052b565b600054604051632474521560e21b81527f6ae19fd703cb304b53d5f09f6a0ce96b7c6a7edd912859ca6c4ed719bcab610d60048201523360248201526001600160a01b03909116906391d1485490604401602060405180830381865afa158015610610573d6000803e3d6000fd5b505050506040513d601f19601f820116820180604052508101906106349190610d23565b6106805760405162461bcd60e51b815260206004820152601c60248201527f43616c6c6572206973206e6f742061206e616d65206d616e6167657200000000604482015260640161030d565b60005b8181101561039057600083838381811061069f5761069f610d45565b90506020028101906106b19190610d5b565b6040516020016106c2929190610da9565b60408051601f19818403018152919052805160209091012090506106e760028261094e565b5050806106f390610dcf565b9050610683565b600054604051632474521560e21b81527f6ae19fd703cb304b53d5f09f6a0ce96b7c6a7edd912859ca6c4ed719bcab610d60048201523360248201526001600160a01b03909116906391d1485490604401602060405180830381865afa158015610768573d6000803e3d6000fd5b505050506040513d601f19601f8201168201806040525081019061078c9190610d23565b6107d85760405162461bcd60e51b815260206004820152601c60248201527f43616c6c6572206973206e6f742061206e616d65206d616e6167657200000000604482015260640161030d565b60005b818110156103905760008383838181106107f7576107f7610d45565b90506020028101906108099190610d5b565b60405160200161081a929190610da9565b60408051601f198184030181529190528051602090910120905061083f60048261094e565b50508061084b90610dcf565b90506107db565b6000610444826040516020016108689190610e0b565b60405160208183030381529060405280519060200120600261095a90919063ffffffff16565b606061089a6004610972565b905090565b606061089a6002610972565b6000610444826040516020016108c19190610e0b565b60405160208183030381529060405280519060200120600461095a90919063ffffffff16565b60006108f38383610395565b801561093b575061093983838080601f0160208091040260200160405190810160405280939291908181526020018383808284376000920191909152506108ab92505050565b155b9392505050565b600061093b838361097f565b600061093b8383610a72565b6000818152600183016020526040812054151561093b565b6060600061093b83610ac1565b60008181526001830160205260408120548015610a685760006109a3600183610e3a565b85549091506000906109b790600190610e3a565b9050818114610a1c5760008660000182815481106109d7576109d7610d45565b90600052602060002001549050808760000184815481106109fa576109fa610d45565b6000918252602080832090910192909255918252600188019052604090208390555b8554869080610a2d57610a2d610e4d565b600190038181906000526020600020016000905590558560010160008681526020019081526020016000206000905560019350505050610444565b6000915050610444565b6000818152600183016020526040812054610ab957508154600181810184556000848152602080822090930184905584548482528286019093526040902091909155610444565b506000610444565b606081600001805480602002602001604051908101604052809291908181526020018280548015610b1157602002820191906000526020600020905b815481526020019060010190808311610afd575b50505050509050919050565b60008060208385031215610b3057600080fd5b823567ffffffffffffffff80821115610b4857600080fd5b818501915085601f830112610b5c57600080fd5b813581811115610b6b57600080fd5b8660208260051b8501011115610b8057600080fd5b60209290920196919550909350505050565b60008060208385031215610ba557600080fd5b823567ffffffffffffffff80821115610bbd57600080fd5b818501915085601f830112610bd157600080fd5b813581811115610be057600080fd5b866020828501011115610b8057600080fd5b600060208284031215610c0457600080fd5b813563ffffffff8116811461093b57600080fd5b634e487b7160e01b600052604160045260246000fd5b600060208284031215610c4057600080fd5b813567ffffffffffffffff80821115610c5857600080fd5b818401915084601f830112610c6c57600080fd5b813581811115610c7e57610c7e610c18565b604051601f8201601f19908116603f01168101908382118183101715610ca657610ca6610c18565b81604052828152876020848701011115610cbf57600080fd5b826020860160208301376000928101602001929092525095945050505050565b6020808252825182820181905260009190848201906040850190845b81811015610d1757835183529284019291840191600101610cfb565b50909695505050505050565b600060208284031215610d3557600080fd5b8151801515811461093b57600080fd5b634e487b7160e01b600052603260045260246000fd5b6000808335601e19843603018112610d7257600080fd5b83018035915067ffffffffffffffff821115610d8d57600080fd5b602001915036819003821315610da257600080fd5b9250929050565b8183823760009101908152919050565b634e487b7160e01b600052601160045260246000fd5b600060018201610de157610de1610db9565b5060010190565b600063ffffffff808316818103610e0157610e01610db9565b6001019392505050565b6000825160005b81811015610e2c5760208186018101518583015201610e12565b506000920191825250919050565b8181038181111561044457610444610db9565b634e487b7160e01b600052603160045260246000fdfea26469706673582212203863f976378d55dd122d4529023e117b4b5b4eafec16c050259d420d7c7f9e7364736f6c63430008110033",
  "devdoc": {
    "kind": "dev",
    "methods": {},
    "version": 1
  },
  "userdoc": {
    "kind": "user",
    "methods": {},
    "version": 1
  },
  "storageLayout": {
    "storage": [
      {
        "astId": 30370,
        "contract": "jns-admin-contract/contracts/NameManager.sol:NameManager",
        "label": "adminContract",
        "offset": 0,
        "slot": "0",
        "type": "t_contract(IJNSAdminContract)29985"
      },
      {
        "astId": 30374,
        "contract": "jns-admin-contract/contracts/NameManager.sol:NameManager",
        "label": "whitelistCharacters",
        "offset": 0,
        "slot": "1",
        "type": "t_mapping(t_uint32,t_bool)"
      },
      {
        "astId": 30377,
        "contract": "jns-admin-contract/contracts/NameManager.sol:NameManager",
        "label": "takedownSet",
        "offset": 0,
        "slot": "2",
        "type": "t_struct(Bytes32Set)7019_storage"
      },
      {
        "astId": 30380,
        "contract": "jns-admin-contract/contracts/NameManager.sol:NameManager",
        "label": "restrictWordSet",
        "offset": 0,
        "slot": "4",
        "type": "t_struct(Bytes32Set)7019_storage"
      }
    ],
    "types": {
      "t_array(t_bytes32)dyn_storage": {
        "base": "t_bytes32",
        "encoding": "dynamic_array",
        "label": "bytes32[]",
        "numberOfBytes": "32"
      },
      "t_bool": {
        "encoding": "inplace",
        "label": "bool",
        "numberOfBytes": "1"
      },
      "t_bytes32": {
        "encoding": "inplace",
        "label": "bytes32",
        "numberOfBytes": "32"
      },
      "t_contract(IJNSAdminContract)29985": {
        "encoding": "inplace",
        "label": "contract IJNSAdminContract",
        "numberOfBytes": "20"
      },
      "t_mapping(t_bytes32,t_uint256)": {
        "encoding": "mapping",
        "key": "t_bytes32",
        "label": "mapping(bytes32 => uint256)",
        "numberOfBytes": "32",
        "value": "t_uint256"
      },
      "t_mapping(t_uint32,t_bool)": {
        "encoding": "mapping",
        "key": "t_uint32",
        "label": "mapping(uint32 => bool)",
        "numberOfBytes": "32",
        "value": "t_bool"
      },
      "t_struct(Bytes32Set)7019_storage": {
        "encoding": "inplace",
        "label": "struct EnumerableSet.Bytes32Set",
        "members": [
          {
            "astId": 7018,
            "contract": "jns-admin-contract/contracts/NameManager.sol:NameManager",
            "label": "_inner",
            "offset": 0,
            "slot": "0",
            "type": "t_struct(Set)6825_storage"
          }
        ],
        "numberOfBytes": "64"
      },
      "t_struct(Set)6825_storage": {
        "encoding": "inplace",
        "label": "struct EnumerableSet.Set",
        "members": [
          {
            "astId": 6820,
            "contract": "jns-admin-contract/contracts/NameManager.sol:NameManager",
            "label": "_values",
            "offset": 0,
            "slot": "0",
            "type": "t_array(t_bytes32)dyn_storage"
          },
          {
            "astId": 6824,
            "contract": "jns-admin-contract/contracts/NameManager.sol:NameManager",
            "label": "_indexes",
            "offset": 0,
            "slot": "1",
            "type": "t_mapping(t_bytes32,t_uint256)"
          }
        ],
        "numberOfBytes": "64"
      },
      "t_uint256": {
        "encoding": "inplace",
        "label": "uint256",
        "numberOfBytes": "32"
      },
      "t_uint32": {
        "encoding": "inplace",
        "label": "uint32",
        "numberOfBytes": "4"
      }
    }
  }
}