{
  "address": "0xC31D9ec590752e891a91b64f1afD03bAED457976",
  "abi": [
    {
      "inputs": [
        {
          "internalType": "address",
          "name": "_adminContractAddress",
          "type": "address"
        },
        {
          "internalType": "address",
          "name": "_dataStoreAddress",
          "type": "address"
        }
      ],
      "stateMutability": "nonpayable",
      "type": "constructor"
    },
    {
      "anonymous": false,
      "inputs": [
        {
          "indexed": true,
          "internalType": "bytes32",
          "name": "tokenId",
          "type": "bytes32"
        },
        {
          "indexed": true,
          "internalType": "bytes32",
          "name": "namehash",
          "type": "bytes32"
        }
      ],
      "name": "TakedownAdded",
      "type": "event"
    },
    {
      "inputs": [],
      "name": "NAME_MANAGER_ROLE",
      "outputs": [
        {
          "internalType": "bytes32",
          "name": "",
          "type": "bytes32"
        }
      ],
      "stateMutability": "view",
      "type": "function"
    },
    {
      "inputs": [
        {
          "internalType": "string[]",
          "name": "words",
          "type": "string[]"
        }
      ],
      "name": "addToRestrictWords",
      "outputs": [],
      "stateMutability": "nonpayable",
      "type": "function"
    },
    {
      "inputs": [
        {
          "components": [
            {
              "internalType": "uint256",
              "name": "tokenId",
              "type": "uint256"
            },
            {
              "internalType": "bytes32",
              "name": "namehash",
              "type": "bytes32"
            }
          ],
          "internalType": "struct INameManager.Takedown[]",
          "name": "takedowns",
          "type": "tuple[]"
        }
      ],
      "name": "addToTakedownList",
      "outputs": [],
      "stateMutability": "nonpayable",
      "type": "function"
    },
    {
      "inputs": [],
      "name": "adminContract",
      "outputs": [
        {
          "internalType": "contract IJNSAdminContract",
          "name": "",
          "type": "address"
        }
      ],
      "stateMutability": "view",
      "type": "function"
    },
    {
      "inputs": [],
      "name": "hashedRestrictWords",
      "outputs": [
        {
          "internalType": "bytes32[]",
          "name": "",
          "type": "bytes32[]"
        }
      ],
      "stateMutability": "view",
      "type": "function"
    },
    {
      "inputs": [],
      "name": "hashedTakedownList",
      "outputs": [
        {
          "internalType": "bytes32[]",
          "name": "",
          "type": "bytes32[]"
        }
      ],
      "stateMutability": "view",
      "type": "function"
    },
    {
      "inputs": [
        {
          "internalType": "bytes32",
          "name": "namehash",
          "type": "bytes32"
        }
      ],
      "name": "isNamehashTakendown",
      "outputs": [
        {
          "internalType": "bool",
          "name": "",
          "type": "bool"
        }
      ],
      "stateMutability": "view",
      "type": "function"
    },
    {
      "inputs": [
        {
          "internalType": "uint256",
          "name": "tokenId",
          "type": "uint256"
        }
      ],
      "name": "isTokenIdTakendown",
      "outputs": [
        {
          "internalType": "bool",
          "name": "",
          "type": "bool"
        }
      ],
      "stateMutability": "view",
      "type": "function"
    },
    {
      "inputs": [
        {
          "internalType": "string",
          "name": "name",
          "type": "string"
        }
      ],
      "name": "isValid",
      "outputs": [
        {
          "internalType": "bool",
          "name": "",
          "type": "bool"
        }
      ],
      "stateMutability": "view",
      "type": "function"
    },
    {
      "inputs": [
        {
          "internalType": "string",
          "name": "word",
          "type": "string"
        }
      ],
      "name": "isWordRestricted",
      "outputs": [
        {
          "internalType": "bool",
          "name": "",
          "type": "bool"
        }
      ],
      "stateMutability": "view",
      "type": "function"
    },
    {
      "inputs": [
        {
          "internalType": "string",
          "name": "word",
          "type": "string"
        }
      ],
      "name": "isWordWhitelisted",
      "outputs": [
        {
          "internalType": "bool",
          "name": "",
          "type": "bool"
        }
      ],
      "stateMutability": "view",
      "type": "function"
    },
    {
      "inputs": [
        {
          "internalType": "string[]",
          "name": "words",
          "type": "string[]"
        }
      ],
      "name": "removeFromRestrictWords",
      "outputs": [],
      "stateMutability": "nonpayable",
      "type": "function"
    },
    {
      "inputs": [
        {
          "components": [
            {
              "internalType": "uint256",
              "name": "tokenId",
              "type": "uint256"
            },
            {
              "internalType": "bytes32",
              "name": "namehash",
              "type": "bytes32"
            }
          ],
          "internalType": "struct INameManager.Takedown[]",
          "name": "takedowns",
          "type": "tuple[]"
        }
      ],
      "name": "removeFromTakedownList",
      "outputs": [],
      "stateMutability": "nonpayable",
      "type": "function"
    }
  ],
  "transactionHash": "0x4f9935b687ca21a3a36d902bed4a04f8cc695abf83857abb04ab2a4d295ab314",
  "args": [
    "0x1A18C4699273746c335d2d97fBa51E638f080B2E",
    "0x8bE7B6F784C89beB5Fa107B2Bd021D31F8B1BABB"
  ],
  "numDeployments": 1,
  "solcInputHash": "d69af7ebb9af7866df34efb40b2e6557",
  "bytecode": "0x608060405234801561001057600080fd5b50604051620013b8380380620013b88339810160408190526100319161015f565b6001600160a01b0382166100a65760405162461bcd60e51b815260206004820152603160248201527f41646d696e20636f6e747261637420616464726573732063616e6e6f7420626560448201527020746865207a65726f206164647265737360781b60648201526084015b60405180910390fd5b6001600160a01b0381166101125760405162461bcd60e51b815260206004820152602d60248201527f446174612073746f726520616464726573732063616e6e6f742062652074686560448201526c207a65726f206164647265737360981b606482015260840161009d565b600080546001600160a01b039384166001600160a01b03199182161790915560018054929093169116179055610192565b80516001600160a01b038116811461015a57600080fd5b919050565b6000806040838503121561017257600080fd5b61017b83610143565b915061018960208401610143565b90509250929050565b61121680620001a26000396000f3fe608060405234801561001057600080fd5b50600436106100df5760003560e01c80638c6e9d661161008c578063c05c5e9411610066578063c05c5e94146101b7578063eb00d164146101e2578063f1dfaefb146101f5578063f824dc0b1461020857600080fd5b80638c6e9d66146101915780638f4e3f2a146101a4578063aee6ac6f1461017e57600080fd5b80636829b652116100bd5780636829b652146101565780637e9ac7e11461016b5780638014a0721461017e57600080fd5b80631be0e195146100e457806343db268d1461011e5780636264659314610133575b600080fd5b61010b7f6ae19fd703cb304b53d5f09f6a0ce96b7c6a7edd912859ca6c4ed719bcab610d81565b6040519081526020015b60405180910390f35b610126610210565b6040516101159190610db2565b610146610141366004610df6565b6102a0565b6040519015158152602001610115565b610169610164366004610e68565b6103c6565b005b610169610179366004610ecb565b610602565b61014661018c366004610f2e565b6107c2565b61016961019f366004610ecb565b61084a565b6101696101b2366004610e68565b610a0a565b6000546101ca906001600160a01b031681565b6040516001600160a01b039091168152602001610115565b6101466101f0366004610f8e565b610c99565b610146610203366004610df6565b610cf4565b610126610d4f565b600154604080517fea8fc60000000000000000000000000000000000000000000000000000000000815290516060926001600160a01b03169163ea8fc6009160048083019260009291908290030181865afa158015610273573d6000803e3d6000fd5b505050506040513d6000823e601f3d908101601f1916820160405261029b9190810190611023565b905090565b60008083838080601f01602080910402602001604051908101604052809392919081815260200183838082843760009201829052509394505050505b81518163ffffffff1610156103b9576000828263ffffffff1681518110610305576103056110c9565b01602001516001546040517f165c05ad00000000000000000000000000000000000000000000000000000000815260f89290921c6004830181905292506001600160a01b03169063165c05ad90602401602060405180830381865afa158015610372573d6000803e3d6000fd5b505050506040513d601f19601f8201168201806040525081019061039691906110df565b6103a657600093505050506103c0565b50806103b181611117565b9150506102dc565b5060019150505b92915050565b600054604051632474521560e21b81527f6ae19fd703cb304b53d5f09f6a0ce96b7c6a7edd912859ca6c4ed719bcab610d60048201523360248201526001600160a01b03909116906391d1485490604401602060405180830381865afa158015610434573d6000803e3d6000fd5b505050506040513d601f19601f8201168201806040525081019061045891906110df565b6104a95760405162461bcd60e51b815260206004820152601c60248201527f43616c6c6572206973206e6f742061206e616d65206d616e616765720000000060448201526064015b60405180910390fd5b60005b818110156105fd576001546001600160a01b0316638dc465b28484848181106104d7576104d76110c9565b6040805160e086901b7fffffffff00000000000000000000000000000000000000000000000000000000168152910290920135600483015250602401600060405180830381600087803b15801561052d57600080fd5b505af1158015610541573d6000803e3d6000fd5b50506001546001600160a01b03169150638dc465b2905084848481811061056a5761056a6110c9565b9050604002016020013560405160200161058691815260200190565b604051602081830303815290604052805190602001206040518263ffffffff1660e01b81526004016105ba91815260200190565b600060405180830381600087803b1580156105d457600080fd5b505af11580156105e8573d6000803e3d6000fd5b50505050806105f69061113a565b90506104ac565b505050565b600054604051632474521560e21b81527f6ae19fd703cb304b53d5f09f6a0ce96b7c6a7edd912859ca6c4ed719bcab610d60048201523360248201526001600160a01b03909116906391d1485490604401602060405180830381865afa158015610670573d6000803e3d6000fd5b505050506040513d601f19601f8201168201806040525081019061069491906110df565b6106e05760405162461bcd60e51b815260206004820152601c60248201527f43616c6c6572206973206e6f742061206e616d65206d616e616765720000000060448201526064016104a0565b60005b818110156105fd5760008383838181106106ff576106ff6110c9565b90506020028101906107119190611153565b6040516020016107229291906111a1565b60408051808303601f190181529082905280516020909101206001547f8aba607d000000000000000000000000000000000000000000000000000000008352600483018290529092506001600160a01b031690638aba607d90602401600060405180830381600087803b15801561079857600080fd5b505af11580156107ac573d6000803e3d6000fd5b5050505050806107bb9061113a565b90506106e3565b6001546040517f0393533e000000000000000000000000000000000000000000000000000000008152600481018390526000916001600160a01b031690630393533e906024015b602060405180830381865afa158015610826573d6000803e3d6000fd5b505050506040513d601f19601f820116820180604052508101906103c091906110df565b600054604051632474521560e21b81527f6ae19fd703cb304b53d5f09f6a0ce96b7c6a7edd912859ca6c4ed719bcab610d60048201523360248201526001600160a01b03909116906391d1485490604401602060405180830381865afa1580156108b8573d6000803e3d6000fd5b505050506040513d601f19601f820116820180604052508101906108dc91906110df565b6109285760405162461bcd60e51b815260206004820152601c60248201527f43616c6c6572206973206e6f742061206e616d65206d616e616765720000000060448201526064016104a0565b60005b818110156105fd576000838383818110610947576109476110c9565b90506020028101906109599190611153565b60405160200161096a9291906111a1565b60408051808303601f190181529082905280516020909101206001547fe1e403e1000000000000000000000000000000000000000000000000000000008352600483018290529092506001600160a01b03169063e1e403e190602401600060405180830381600087803b1580156109e057600080fd5b505af11580156109f4573d6000803e3d6000fd5b505050505080610a039061113a565b905061092b565b600054604051632474521560e21b81527f6ae19fd703cb304b53d5f09f6a0ce96b7c6a7edd912859ca6c4ed719bcab610d60048201523360248201526001600160a01b03909116906391d1485490604401602060405180830381865afa158015610a78573d6000803e3d6000fd5b505050506040513d601f19601f82011682018060405250810190610a9c91906110df565b610ae85760405162461bcd60e51b815260206004820152601c60248201527f43616c6c6572206973206e6f742061206e616d65206d616e616765720000000060448201526064016104a0565b60005b818110156105fd576001546001600160a01b031663610ece95848484818110610b1657610b166110c9565b6040805160e086901b7fffffffff00000000000000000000000000000000000000000000000000000000168152910290920135600483015250602401600060405180830381600087803b158015610b6c57600080fd5b505af1158015610b80573d6000803e3d6000fd5b505050506000838383818110610b9857610b986110c9565b90506040020160200135604051602001610bb491815260200190565b60408051808303601f190181529082905280516020909101206001547f610ece95000000000000000000000000000000000000000000000000000000008352600483018290529092506001600160a01b03169063610ece9590602401600060405180830381600087803b158015610c2a57600080fd5b505af1158015610c3e573d6000803e3d6000fd5b5050505080848484818110610c5557610c556110c9565b6040805191029290920135917fd0b7e0b41631f30106295c83cff43644dafdba6e9f5c27bab5c6b4a8c17ee77c9150600090a350610c928161113a565b9050610aeb565b6001546040516000916001600160a01b03169063deb68ebd90610cc09085906020016111b1565b604051602081830303815290604052805190602001206040518263ffffffff1660e01b815260040161080991815260200190565b6000610d0083836102a0565b8015610d485750610d4683838080601f016020809104026020016040519081016040528093929190818152602001838380828437600092019190915250610c9992505050565b155b9392505050565b600154604080517f25f6748500000000000000000000000000000000000000000000000000000000815290516060926001600160a01b0316916325f674859160048083019260009291908290030181865afa158015610273573d6000803e3d6000fd5b6020808252825182820181905260009190848201906040850190845b81811015610dea57835183529284019291840191600101610dce565b50909695505050505050565b60008060208385031215610e0957600080fd5b823567ffffffffffffffff80821115610e2157600080fd5b818501915085601f830112610e3557600080fd5b813581811115610e4457600080fd5b866020828501011115610e5657600080fd5b60209290920196919550909350505050565b60008060208385031215610e7b57600080fd5b823567ffffffffffffffff80821115610e9357600080fd5b818501915085601f830112610ea757600080fd5b813581811115610eb657600080fd5b8660208260061b8501011115610e5657600080fd5b60008060208385031215610ede57600080fd5b823567ffffffffffffffff80821115610ef657600080fd5b818501915085601f830112610f0a57600080fd5b813581811115610f1957600080fd5b8660208260051b8501011115610e5657600080fd5b600060208284031215610f4057600080fd5b5035919050565b634e487b7160e01b600052604160045260246000fd5b604051601f8201601f1916810167ffffffffffffffff81118282101715610f8657610f86610f47565b604052919050565b60006020808385031215610fa157600080fd5b823567ffffffffffffffff80821115610fb957600080fd5b818501915085601f830112610fcd57600080fd5b813581811115610fdf57610fdf610f47565b610ff1601f8201601f19168501610f5d565b9150808252868482850101111561100757600080fd5b8084840185840137600090820190930192909252509392505050565b6000602080838503121561103657600080fd5b825167ffffffffffffffff8082111561104e57600080fd5b818501915085601f83011261106257600080fd5b81518181111561107457611074610f47565b8060051b9150611085848301610f5d565b818152918301840191848101908884111561109f57600080fd5b938501935b838510156110bd578451825293850193908501906110a4565b98975050505050505050565b634e487b7160e01b600052603260045260246000fd5b6000602082840312156110f157600080fd5b81518015158114610d4857600080fd5b634e487b7160e01b600052601160045260246000fd5b600063ffffffff80831681810361113057611130611101565b6001019392505050565b60006001820161114c5761114c611101565b5060010190565b6000808335601e1984360301811261116a57600080fd5b83018035915067ffffffffffffffff82111561118557600080fd5b60200191503681900382131561119a57600080fd5b9250929050565b8183823760009101908152919050565b6000825160005b818110156111d257602081860181015185830152016111b8565b50600092019182525091905056fea264697066735822122067c9588c0d6489b1b633c975a565a64ae31f58eb7c87b8d9c07ac5038c07fc6464736f6c63430008110033",
  "devdoc": {
    "kind": "dev",
    "methods": {},
    "version": 1
  },
  "userdoc": {
    "kind": "user",
    "methods": {},
    "version": 1
  },
  "storageLayout": {
    "storage": [
      {
        "astId": 30385,
        "contract": "jns-admin-contract/contracts/NameManager.sol:NameManager",
        "label": "adminContract",
        "offset": 0,
        "slot": "0",
        "type": "t_contract(IJNSAdminContract)29985"
      },
      {
        "astId": 30388,
        "contract": "jns-admin-contract/contracts/NameManager.sol:NameManager",
        "label": "dataStore",
        "offset": 0,
        "slot": "1",
        "type": "t_contract(NameManagerDataStore)31083"
      }
    ],
    "types": {
      "t_contract(IJNSAdminContract)29985": {
        "encoding": "inplace",
        "label": "contract IJNSAdminContract",
        "numberOfBytes": "20"
      },
      "t_contract(NameManagerDataStore)31083": {
        "encoding": "inplace",
        "label": "contract NameManagerDataStore",
        "numberOfBytes": "20"
      }
    }
  }
}