{
  "address": "0x68c34bE7101104B4F09de1EFAFDC800f7D0e4aBb",
  "abi": [
    {
      "inputs": [
        {
          "internalType": "address",
          "name": "_adminContractAddress",
          "type": "address"
        },
        {
          "internalType": "address",
          "name": "_dataStoreAddress",
          "type": "address"
        }
      ],
      "stateMutability": "nonpayable",
      "type": "constructor"
    },
    {
      "inputs": [],
      "name": "NAME_MANAGER_ROLE",
      "outputs": [
        {
          "internalType": "bytes32",
          "name": "",
          "type": "bytes32"
        }
      ],
      "stateMutability": "view",
      "type": "function"
    },
    {
      "inputs": [
        {
          "internalType": "string[]",
          "name": "words",
          "type": "string[]"
        }
      ],
      "name": "addToRestrictWords",
      "outputs": [],
      "stateMutability": "nonpayable",
      "type": "function"
    },
    {
      "inputs": [
        {
          "components": [
            {
              "internalType": "uint256",
              "name": "tokenId",
              "type": "uint256"
            },
            {
              "internalType": "string",
              "name": "name",
              "type": "string"
            },
            {
              "internalType": "bytes32",
              "name": "namehash",
              "type": "bytes32"
            }
          ],
          "internalType": "struct INameManager.Takedown[]",
          "name": "takedowns",
          "type": "tuple[]"
        }
      ],
      "name": "addToTakedownList",
      "outputs": [],
      "stateMutability": "nonpayable",
      "type": "function"
    },
    {
      "inputs": [],
      "name": "adminContract",
      "outputs": [
        {
          "internalType": "contract IJNSAdminContract",
          "name": "",
          "type": "address"
        }
      ],
      "stateMutability": "view",
      "type": "function"
    },
    {
      "inputs": [],
      "name": "hashedRestrictWords",
      "outputs": [
        {
          "internalType": "bytes32[]",
          "name": "",
          "type": "bytes32[]"
        }
      ],
      "stateMutability": "view",
      "type": "function"
    },
    {
      "inputs": [],
      "name": "hashedTakedownList",
      "outputs": [
        {
          "internalType": "bytes32[]",
          "name": "",
          "type": "bytes32[]"
        }
      ],
      "stateMutability": "view",
      "type": "function"
    },
    {
      "inputs": [
        {
          "internalType": "string",
          "name": "name",
          "type": "string"
        }
      ],
      "name": "isNameTakendown",
      "outputs": [
        {
          "internalType": "bool",
          "name": "",
          "type": "bool"
        }
      ],
      "stateMutability": "view",
      "type": "function"
    },
    {
      "inputs": [
        {
          "internalType": "bytes32",
          "name": "namehash",
          "type": "bytes32"
        }
      ],
      "name": "isNamehashTakendown",
      "outputs": [
        {
          "internalType": "bool",
          "name": "",
          "type": "bool"
        }
      ],
      "stateMutability": "view",
      "type": "function"
    },
    {
      "inputs": [
        {
          "internalType": "uint256",
          "name": "tokenId",
          "type": "uint256"
        }
      ],
      "name": "isTokenIdTakendown",
      "outputs": [
        {
          "internalType": "bool",
          "name": "",
          "type": "bool"
        }
      ],
      "stateMutability": "view",
      "type": "function"
    },
    {
      "inputs": [
        {
          "internalType": "string",
          "name": "name",
          "type": "string"
        }
      ],
      "name": "isValid",
      "outputs": [
        {
          "internalType": "bool",
          "name": "",
          "type": "bool"
        }
      ],
      "stateMutability": "view",
      "type": "function"
    },
    {
      "inputs": [
        {
          "internalType": "string",
          "name": "word",
          "type": "string"
        }
      ],
      "name": "isWordRestricted",
      "outputs": [
        {
          "internalType": "bool",
          "name": "",
          "type": "bool"
        }
      ],
      "stateMutability": "view",
      "type": "function"
    },
    {
      "inputs": [
        {
          "internalType": "string",
          "name": "word",
          "type": "string"
        }
      ],
      "name": "isWordWhitelisted",
      "outputs": [
        {
          "internalType": "bool",
          "name": "",
          "type": "bool"
        }
      ],
      "stateMutability": "view",
      "type": "function"
    },
    {
      "inputs": [
        {
          "internalType": "string[]",
          "name": "words",
          "type": "string[]"
        }
      ],
      "name": "removeFromRestrictWords",
      "outputs": [],
      "stateMutability": "nonpayable",
      "type": "function"
    },
    {
      "inputs": [
        {
          "components": [
            {
              "internalType": "uint256",
              "name": "tokenId",
              "type": "uint256"
            },
            {
              "internalType": "string",
              "name": "name",
              "type": "string"
            },
            {
              "internalType": "bytes32",
              "name": "namehash",
              "type": "bytes32"
            }
          ],
          "internalType": "struct INameManager.Takedown[]",
          "name": "takedowns",
          "type": "tuple[]"
        }
      ],
      "name": "removeFromTakedownList",
      "outputs": [],
      "stateMutability": "nonpayable",
      "type": "function"
    }
  ],
  "transactionHash": "0x7a8c5d48c88976e2c3bd6b7adcac4eba52f690a242793000bbc054cda0330182",
  "args": [
    "0xE3931c3d7f0BEc38da27F47dff076ba4b534c182",
    "0xc7460fD11A8bFCB86BEB2399Cc8706E7b7c3eff6"
  ],
  "numDeployments": 1,
  "solcInputHash": "16de868579f5f265b67830d866201f11",
  "bytecode": "0x608060405234801561001057600080fd5b5060405161144538038061144583398101604081905261002f9161007c565b600080546001600160a01b039384166001600160a01b031991821617909155600180549290931691161790556100af565b80516001600160a01b038116811461007757600080fd5b919050565b6000806040838503121561008f57600080fd5b61009883610060565b91506100a660208401610060565b90509250929050565b611387806100be6000396000f3fe608060405234801561001057600080fd5b50600436106100ea5760003560e01c80638014a0721161008c578063c05c5e9411610066578063c05c5e94146101d5578063eb00d16414610200578063f1dfaefb14610213578063f824dc0b1461022657600080fd5b80638014a072146101af5780638c6e9d66146101c2578063aee6ac6f146101af57600080fd5b806355859649116100c85780635585964914610161578063564bb6351461017657806362646593146101895780637e9ac7e11461019c57600080fd5b806314fb7f81146100ef5780631be0e1951461011757806343db268d1461014c575b600080fd5b6101026100fd366004610f89565b61022e565b60405190151581526020015b60405180910390f35b61013e7f6ae19fd703cb304b53d5f09f6a0ce96b7c6a7edd912859ca6c4ed719bcab610d81565b60405190815260200161010e565b6101546102d0565b60405161010e919061101e565b61017461016f3660046110ae565b610360565b005b6101746101843660046110ae565b610648565b6101026101973660046110f0565b610926565b6101746101aa3660046110ae565b610a4a565b6101026101bd366004611162565b610c0a565b6101746101d03660046110ae565b610c55565b6000546101e8906001600160a01b031681565b6040516001600160a01b03909116815260200161010e565b61010261020e366004610f89565b610e15565b6101026102213660046110f0565b610e3c565b610154610edf565b6001546040516000916001600160a01b031690630393533e9061025590859060200161117b565b604051602081830303815290604052805190602001206040518263ffffffff1660e01b815260040161028991815260200190565b602060405180830381865afa1580156102a6573d6000803e3d6000fd5b505050506040513d601f19601f820116820180604052508101906102ca91906111aa565b92915050565b600154604080517fea8fc60000000000000000000000000000000000000000000000000000000000815290516060926001600160a01b03169163ea8fc6009160048083019260009291908290030181865afa158015610333573d6000803e3d6000fd5b505050506040513d6000823e601f3d908101601f1916820160405261035b91908101906111cc565b905090565b600054604051632474521560e21b81527f6ae19fd703cb304b53d5f09f6a0ce96b7c6a7edd912859ca6c4ed719bcab610d60048201523360248201526001600160a01b03909116906391d1485490604401602060405180830381865afa1580156103ce573d6000803e3d6000fd5b505050506040513d601f19601f820116820180604052508101906103f291906111aa565b6104435760405162461bcd60e51b815260206004820152601c60248201527f43616c6c6572206973206e6f742061206e616d65206d616e616765720000000060448201526064015b60405180910390fd5b60005b81811015610643576001546001600160a01b0316638dc465b284848481811061047157610471611272565b90506020028101906104839190611288565b60405160e083901b7fffffffff0000000000000000000000000000000000000000000000000000000016815290356004820152602401600060405180830381600087803b1580156104d357600080fd5b505af11580156104e7573d6000803e3d6000fd5b50506001546001600160a01b03169150638dc465b2905084848481811061051057610510611272565b90506020028101906105229190611288565b6105309060208101906112a8565b6040516020016105419291906112ef565b604051602081830303815290604052805190602001206040518263ffffffff1660e01b815260040161057591815260200190565b600060405180830381600087803b15801561058f57600080fd5b505af11580156105a3573d6000803e3d6000fd5b50506001546001600160a01b03169150638dc465b290508484848181106105cc576105cc611272565b90506020028101906105de9190611288565b604001356040518263ffffffff1660e01b815260040161060091815260200190565b600060405180830381600087803b15801561061a57600080fd5b505af115801561062e573d6000803e3d6000fd5b505050508061063c90611315565b9050610446565b505050565b600054604051632474521560e21b81527f6ae19fd703cb304b53d5f09f6a0ce96b7c6a7edd912859ca6c4ed719bcab610d60048201523360248201526001600160a01b03909116906391d1485490604401602060405180830381865afa1580156106b6573d6000803e3d6000fd5b505050506040513d601f19601f820116820180604052508101906106da91906111aa565b6107265760405162461bcd60e51b815260206004820152601c60248201527f43616c6c6572206973206e6f742061206e616d65206d616e6167657200000000604482015260640161043a565b60005b81811015610643576001546001600160a01b031663610ece9584848481811061075457610754611272565b90506020028101906107669190611288565b60405160e083901b7fffffffff0000000000000000000000000000000000000000000000000000000016815290356004820152602401600060405180830381600087803b1580156107b657600080fd5b505af11580156107ca573d6000803e3d6000fd5b50506001546001600160a01b0316915063610ece9590508484848181106107f3576107f3611272565b90506020028101906108059190611288565b6108139060208101906112a8565b6040516020016108249291906112ef565b604051602081830303815290604052805190602001206040518263ffffffff1660e01b815260040161085891815260200190565b600060405180830381600087803b15801561087257600080fd5b505af1158015610886573d6000803e3d6000fd5b50506001546001600160a01b0316915063610ece9590508484848181106108af576108af611272565b90506020028101906108c19190611288565b604001356040518263ffffffff1660e01b81526004016108e391815260200190565b600060405180830381600087803b1580156108fd57600080fd5b505af1158015610911573d6000803e3d6000fd5b505050508061091f90611315565b9050610729565b60008083838080601f01602080910402602001604051908101604052809392919081815260200183838082843760009201829052509394505050505b81518163ffffffff161015610a3f576000828263ffffffff168151811061098b5761098b611272565b01602001516001546040517f165c05ad00000000000000000000000000000000000000000000000000000000815260f89290921c6004830181905292506001600160a01b03169063165c05ad90602401602060405180830381865afa1580156109f8573d6000803e3d6000fd5b505050506040513d601f19601f82011682018060405250810190610a1c91906111aa565b610a2c57600093505050506102ca565b5080610a378161132e565b915050610962565b506001949350505050565b600054604051632474521560e21b81527f6ae19fd703cb304b53d5f09f6a0ce96b7c6a7edd912859ca6c4ed719bcab610d60048201523360248201526001600160a01b03909116906391d1485490604401602060405180830381865afa158015610ab8573d6000803e3d6000fd5b505050506040513d601f19601f82011682018060405250810190610adc91906111aa565b610b285760405162461bcd60e51b815260206004820152601c60248201527f43616c6c6572206973206e6f742061206e616d65206d616e6167657200000000604482015260640161043a565b60005b81811015610643576000838383818110610b4757610b47611272565b9050602002810190610b5991906112a8565b604051602001610b6a9291906112ef565b60408051808303601f190181529082905280516020909101206001547f8aba607d000000000000000000000000000000000000000000000000000000008352600483018290529092506001600160a01b031690638aba607d90602401600060405180830381600087803b158015610be057600080fd5b505af1158015610bf4573d6000803e3d6000fd5b505050505080610c0390611315565b9050610b2b565b6001546040517f0393533e000000000000000000000000000000000000000000000000000000008152600481018390526000916001600160a01b031690630393533e90602401610289565b600054604051632474521560e21b81527f6ae19fd703cb304b53d5f09f6a0ce96b7c6a7edd912859ca6c4ed719bcab610d60048201523360248201526001600160a01b03909116906391d1485490604401602060405180830381865afa158015610cc3573d6000803e3d6000fd5b505050506040513d601f19601f82011682018060405250810190610ce791906111aa565b610d335760405162461bcd60e51b815260206004820152601c60248201527f43616c6c6572206973206e6f742061206e616d65206d616e6167657200000000604482015260640161043a565b60005b81811015610643576000838383818110610d5257610d52611272565b9050602002810190610d6491906112a8565b604051602001610d759291906112ef565b60408051808303601f190181529082905280516020909101206001547fe1e403e1000000000000000000000000000000000000000000000000000000008352600483018290529092506001600160a01b03169063e1e403e190602401600060405180830381600087803b158015610deb57600080fd5b505af1158015610dff573d6000803e3d6000fd5b505050505080610e0e90611315565b9050610d36565b6001546040516000916001600160a01b03169063deb68ebd9061025590859060200161117b565b6000610e488383610926565b8015610e905750610e8e83838080601f016020809104026020016040519081016040528093929190818152602001838380828437600092019190915250610e1592505050565b155b8015610ed85750610ed683838080601f01602080910402602001604051908101604052809392919081815260200183838082843760009201919091525061022e92505050565b155b9392505050565b600154604080517f25f6748500000000000000000000000000000000000000000000000000000000815290516060926001600160a01b0316916325f674859160048083019260009291908290030181865afa158015610333573d6000803e3d6000fd5b634e487b7160e01b600052604160045260246000fd5b604051601f8201601f1916810167ffffffffffffffff81118282101715610f8157610f81610f42565b604052919050565b60006020808385031215610f9c57600080fd5b823567ffffffffffffffff80821115610fb457600080fd5b818501915085601f830112610fc857600080fd5b813581811115610fda57610fda610f42565b610fec601f8201601f19168501610f58565b9150808252868482850101111561100257600080fd5b8084840185840137600090820190930192909252509392505050565b6020808252825182820181905260009190848201906040850190845b818110156110565783518352928401929184019160010161103a565b50909695505050505050565b60008083601f84011261107457600080fd5b50813567ffffffffffffffff81111561108c57600080fd5b6020830191508360208260051b85010111156110a757600080fd5b9250929050565b600080602083850312156110c157600080fd5b823567ffffffffffffffff8111156110d857600080fd5b6110e485828601611062565b90969095509350505050565b6000806020838503121561110357600080fd5b823567ffffffffffffffff8082111561111b57600080fd5b818501915085601f83011261112f57600080fd5b81358181111561113e57600080fd5b86602082850101111561115057600080fd5b60209290920196919550909350505050565b60006020828403121561117457600080fd5b5035919050565b6000825160005b8181101561119c5760208186018101518583015201611182565b506000920191825250919050565b6000602082840312156111bc57600080fd5b81518015158114610ed857600080fd5b600060208083850312156111df57600080fd5b825167ffffffffffffffff808211156111f757600080fd5b818501915085601f83011261120b57600080fd5b81518181111561121d5761121d610f42565b8060051b915061122e848301610f58565b818152918301840191848101908884111561124857600080fd5b938501935b838510156112665784518252938501939085019061124d565b98975050505050505050565b634e487b7160e01b600052603260045260246000fd5b60008235605e1983360301811261129e57600080fd5b9190910192915050565b6000808335601e198436030181126112bf57600080fd5b83018035915067ffffffffffffffff8211156112da57600080fd5b6020019150368190038213156110a757600080fd5b8183823760009101908152919050565b634e487b7160e01b600052601160045260246000fd5b600060018201611327576113276112ff565b5060010190565b600063ffffffff808316818103611347576113476112ff565b600101939250505056fea264697066735822122070d068c349857945fb52e54d3d3cc131cb6d5b1b94ae58eeb091bb2cda4da88f64736f6c63430008110033",
  "devdoc": {
    "kind": "dev",
    "methods": {
      "addToRestrictWords(string[])": {
        "details": "Adds words (without .jfin) to the list of restricted words.",
        "params": {
          "words": "Array of words to add to the restriction list."
        }
      },
      "addToTakedownList((uint256,string,bytes32)[])": {
        "details": "Adds entries to the takedown list for both token ID and namehash.",
        "params": {
          "takedowns": "Array of takedown entries containing tokenId and namehash."
        }
      },
      "constructor": {
        "details": "Initializes contract with addresses of admin and data storage contracts. Also pre-populates the whitelist with characters and numbers.",
        "params": {
          "_adminContractAddress": "Address of the admin contract.",
          "_dataStoreAddress": "Address of the data storage contract."
        }
      },
      "hashedRestrictWords()": {
        "details": "Retrieves the list of all restricted word hashes from the data store.",
        "returns": {
          "_0": "An array of restricted word hashes."
        }
      },
      "hashedTakedownList()": {
        "details": "Retrieves the list of all takedown hashes from the data store.",
        "returns": {
          "_0": "An array of takedown hashes."
        }
      },
      "isNameTakendown(string)": {
        "details": "Checks if a name is currently marked for takedown.",
        "params": {
          "name": "The original name to check (without .jfin)."
        },
        "returns": {
          "_0": "True if the name is on the takedown list."
        }
      },
      "isNamehashTakendown(bytes32)": {
        "details": "Checks if a namehash is currently marked for takedown.",
        "params": {
          "namehash": "The hash of the name to check."
        },
        "returns": {
          "_0": "True if the namehash is on the takedown list."
        }
      },
      "isTokenIdTakendown(uint256)": {
        "details": "Checks if a token ID is currently marked for takedown.",
        "params": {
          "tokenId": "The token ID to check."
        },
        "returns": {
          "_0": "True if the token ID is on the takedown list."
        }
      },
      "isValid(string)": {
        "details": "Determines if a name is valid based on whitelist, restriction and takedown checks.",
        "params": {
          "name": "The name to validate."
        },
        "returns": {
          "_0": "True if the name is valid."
        }
      },
      "isWordRestricted(string)": {
        "details": "Checks if a word (without .jfin) is currently marked as restricted.",
        "params": {
          "word": "The word to check."
        },
        "returns": {
          "_0": "True if the word is on the restricted list."
        }
      },
      "isWordWhitelisted(string)": {
        "details": "Checks if each character of a word is whitelisted.",
        "params": {
          "word": "The word to check."
        },
        "returns": {
          "_0": "True if the word is made only of whitelisted characters."
        }
      },
      "removeFromRestrictWords(string[])": {
        "details": "Removes words (without .jfin) from the list of restricted words.",
        "params": {
          "words": "Array of words to remove from the restriction list."
        }
      },
      "removeFromTakedownList((uint256,string,bytes32)[])": {
        "details": "Removes entries from the takedown list for both token ID and namehash.",
        "params": {
          "takedowns": "Array of takedown entries containing tokenId and namehash."
        }
      }
    },
    "title": "Name Management for a JFIN Name Service",
    "version": 1
  },
  "userdoc": {
    "kind": "user",
    "methods": {},
    "version": 1
  },
  "storageLayout": {
    "storage": [
      {
        "astId": 30449,
        "contract": "jns-admin-contract/contracts/NameManager.sol:NameManager",
        "label": "adminContract",
        "offset": 0,
        "slot": "0",
        "type": "t_contract(IJNSAdminContract)30008"
      },
      {
        "astId": 30452,
        "contract": "jns-admin-contract/contracts/NameManager.sol:NameManager",
        "label": "dataStore",
        "offset": 0,
        "slot": "1",
        "type": "t_contract(NameManagerDataStore)31110"
      }
    ],
    "types": {
      "t_contract(IJNSAdminContract)30008": {
        "encoding": "inplace",
        "label": "contract IJNSAdminContract",
        "numberOfBytes": "20"
      },
      "t_contract(NameManagerDataStore)31110": {
        "encoding": "inplace",
        "label": "contract NameManagerDataStore",
        "numberOfBytes": "20"
      }
    }
  }
}