{
  "address": "0xc7460fD11A8bFCB86BEB2399Cc8706E7b7c3eff6",
  "abi": [
    {
      "inputs": [
        {
          "internalType": "address",
          "name": "_adminContractAddress",
          "type": "address"
        }
      ],
      "stateMutability": "nonpayable",
      "type": "constructor"
    },
    {
      "inputs": [],
      "name": "NAME_MANAGER_ROLE",
      "outputs": [
        {
          "internalType": "bytes32",
          "name": "",
          "type": "bytes32"
        }
      ],
      "stateMutability": "view",
      "type": "function"
    },
    {
      "inputs": [
        {
          "internalType": "bytes32",
          "name": "hash",
          "type": "bytes32"
        }
      ],
      "name": "addRestrictedWord",
      "outputs": [],
      "stateMutability": "nonpayable",
      "type": "function"
    },
    {
      "inputs": [
        {
          "internalType": "bytes32",
          "name": "hash",
          "type": "bytes32"
        }
      ],
      "name": "addTakedown",
      "outputs": [],
      "stateMutability": "nonpayable",
      "type": "function"
    },
    {
      "inputs": [
        {
          "internalType": "uint32",
          "name": "character",
          "type": "uint32"
        }
      ],
      "name": "addWhitelistCharacter",
      "outputs": [],
      "stateMutability": "nonpayable",
      "type": "function"
    },
    {
      "inputs": [],
      "name": "adminContract",
      "outputs": [
        {
          "internalType": "contract IJNSAdminContract",
          "name": "",
          "type": "address"
        }
      ],
      "stateMutability": "view",
      "type": "function"
    },
    {
      "inputs": [],
      "name": "getHashedRestrictedWords",
      "outputs": [
        {
          "internalType": "bytes32[]",
          "name": "",
          "type": "bytes32[]"
        }
      ],
      "stateMutability": "view",
      "type": "function"
    },
    {
      "inputs": [],
      "name": "getHashedTakenDownList",
      "outputs": [
        {
          "internalType": "bytes32[]",
          "name": "",
          "type": "bytes32[]"
        }
      ],
      "stateMutability": "view",
      "type": "function"
    },
    {
      "inputs": [
        {
          "internalType": "bytes32",
          "name": "hash",
          "type": "bytes32"
        }
      ],
      "name": "isRestrictedWord",
      "outputs": [
        {
          "internalType": "bool",
          "name": "",
          "type": "bool"
        }
      ],
      "stateMutability": "view",
      "type": "function"
    },
    {
      "inputs": [
        {
          "internalType": "bytes32",
          "name": "hash",
          "type": "bytes32"
        }
      ],
      "name": "isTakedown",
      "outputs": [
        {
          "internalType": "bool",
          "name": "",
          "type": "bool"
        }
      ],
      "stateMutability": "view",
      "type": "function"
    },
    {
      "inputs": [
        {
          "internalType": "uint32",
          "name": "character",
          "type": "uint32"
        }
      ],
      "name": "isWhitelistCharacter",
      "outputs": [
        {
          "internalType": "bool",
          "name": "",
          "type": "bool"
        }
      ],
      "stateMutability": "view",
      "type": "function"
    },
    {
      "inputs": [
        {
          "internalType": "bytes32",
          "name": "hash",
          "type": "bytes32"
        }
      ],
      "name": "removeRestrictedWord",
      "outputs": [],
      "stateMutability": "nonpayable",
      "type": "function"
    },
    {
      "inputs": [
        {
          "internalType": "bytes32",
          "name": "hash",
          "type": "bytes32"
        }
      ],
      "name": "removeTakedown",
      "outputs": [],
      "stateMutability": "nonpayable",
      "type": "function"
    },
    {
      "inputs": [
        {
          "internalType": "uint32",
          "name": "character",
          "type": "uint32"
        }
      ],
      "name": "removeWhitelistCharacter",
      "outputs": [],
      "stateMutability": "nonpayable",
      "type": "function"
    }
  ],
  "transactionHash": "0xa9723354be3065a9359cb40d545f014ca4721dc900239ea0ab8afcac7f0116a6",
  "args": [
    "0xE3931c3d7f0BEc38da27F47dff076ba4b534c182"
  ],
  "numDeployments": 1,
  "solcInputHash": "16de868579f5f265b67830d866201f11",
  "bytecode": "0x608060405234801561001057600080fd5b50604051610c76380380610c7683398101604081905261002f916100e2565b600580546001600160a01b0319166001600160a01b038316179055610052610058565b50610143565b60305b60398163ffffffff161161009b5763ffffffff81166000908152602081905260409020805460ff191660011790558061009381610112565b91505061005b565b5060615b607a8163ffffffff16116100df5763ffffffff81166000908152602081905260409020805460ff19166001179055806100d781610112565b91505061009f565b50565b6000602082840312156100f457600080fd5b81516001600160a01b038116811461010b57600080fd5b9392505050565b600063ffffffff80831681810361013957634e487b7160e01b600052601160045260246000fd5b6001019392505050565b610b24806101526000396000f3fe608060405234801561001057600080fd5b50600436106100df5760003560e01c80638aba607d1161008c578063deb68ebd11610066578063deb68ebd146101f8578063e1e403e11461020b578063ea8fc6001461021e578063f6371ce31461022657600080fd5b80638aba607d146101a75780638dc465b2146101ba578063c05c5e94146101cd57600080fd5b806325f67485116100bd57806325f674851461016a578063610ece951461017f57806374d542d31461019457600080fd5b80630393533e146100e4578063165c05ad1461010c5780631be0e19514610135575b600080fd5b6100f76100f23660046109fc565b610239565b60405190151581526020015b60405180910390f35b6100f761011a366004610a15565b63ffffffff1660009081526020819052604090205460ff1690565b61015c7f6ae19fd703cb304b53d5f09f6a0ce96b7c6a7edd912859ca6c4ed719bcab610d81565b604051908152602001610103565b61017261024c565b6040516101039190610a3b565b61019261018d3660046109fc565b61025d565b005b6101926101a2366004610a15565b61034f565b6101926101b53660046109fc565b61044e565b6101926101c83660046109fc565b610537565b6005546101e0906001600160a01b031681565b6040516001600160a01b039091168152602001610103565b6100f76102063660046109fc565b610620565b6101926102193660046109fc565b61062d565b610172610716565b610192610234366004610a15565b610722565b600061024660018361081e565b92915050565b60606102586001610839565b905090565b600554604051632474521560e21b81527f6ae19fd703cb304b53d5f09f6a0ce96b7c6a7edd912859ca6c4ed719bcab610d60048201523360248201526001600160a01b03909116906391d1485490604401602060405180830381865afa1580156102cb573d6000803e3d6000fd5b505050506040513d601f19601f820116820180604052508101906102ef9190610a7f565b6103405760405162461bcd60e51b815260206004820152601c60248201527f43616c6c6572206973206e6f742061206e616d65206d616e616765720000000060448201526064015b60405180910390fd5b61034b600182610846565b5050565b600554604051632474521560e21b81527f6ae19fd703cb304b53d5f09f6a0ce96b7c6a7edd912859ca6c4ed719bcab610d60048201523360248201526001600160a01b03909116906391d1485490604401602060405180830381865afa1580156103bd573d6000803e3d6000fd5b505050506040513d601f19601f820116820180604052508101906103e19190610a7f565b61042d5760405162461bcd60e51b815260206004820152601c60248201527f43616c6c6572206973206e6f742061206e616d65206d616e61676572000000006044820152606401610337565b63ffffffff166000908152602081905260409020805460ff19166001179055565b600554604051632474521560e21b81527f6ae19fd703cb304b53d5f09f6a0ce96b7c6a7edd912859ca6c4ed719bcab610d60048201523360248201526001600160a01b03909116906391d1485490604401602060405180830381865afa1580156104bc573d6000803e3d6000fd5b505050506040513d601f19601f820116820180604052508101906104e09190610a7f565b61052c5760405162461bcd60e51b815260206004820152601c60248201527f43616c6c6572206973206e6f742061206e616d65206d616e61676572000000006044820152606401610337565b61034b600382610852565b600554604051632474521560e21b81527f6ae19fd703cb304b53d5f09f6a0ce96b7c6a7edd912859ca6c4ed719bcab610d60048201523360248201526001600160a01b03909116906391d1485490604401602060405180830381865afa1580156105a5573d6000803e3d6000fd5b505050506040513d601f19601f820116820180604052508101906105c99190610a7f565b6106155760405162461bcd60e51b815260206004820152601c60248201527f43616c6c6572206973206e6f742061206e616d65206d616e61676572000000006044820152606401610337565b61034b600182610852565b600061024660038361081e565b600554604051632474521560e21b81527f6ae19fd703cb304b53d5f09f6a0ce96b7c6a7edd912859ca6c4ed719bcab610d60048201523360248201526001600160a01b03909116906391d1485490604401602060405180830381865afa15801561069b573d6000803e3d6000fd5b505050506040513d601f19601f820116820180604052508101906106bf9190610a7f565b61070b5760405162461bcd60e51b815260206004820152601c60248201527f43616c6c6572206973206e6f742061206e616d65206d616e61676572000000006044820152606401610337565b61034b600382610846565b60606102586003610839565b600554604051632474521560e21b81527f6ae19fd703cb304b53d5f09f6a0ce96b7c6a7edd912859ca6c4ed719bcab610d60048201523360248201526001600160a01b03909116906391d1485490604401602060405180830381865afa158015610790573d6000803e3d6000fd5b505050506040513d601f19601f820116820180604052508101906107b49190610a7f565b6108005760405162461bcd60e51b815260206004820152601c60248201527f43616c6c6572206973206e6f742061206e616d65206d616e61676572000000006044820152606401610337565b63ffffffff166000908152602081905260409020805460ff19169055565b600081815260018301602052604081205415155b9392505050565b606060006108328361085e565b600061083283836108ba565b60006108328383610909565b6060816000018054806020026020016040519081016040528092919081815260200182805480156108ae57602002820191906000526020600020905b81548152602001906001019080831161089a575b50505050509050919050565b600081815260018301602052604081205461090157508154600181810184556000848152602080822090930184905584548482528286019093526040902091909155610246565b506000610246565b600081815260018301602052604081205480156109f257600061092d600183610aa1565b855490915060009061094190600190610aa1565b90508181146109a657600086600001828154811061096157610961610ac2565b906000526020600020015490508087600001848154811061098457610984610ac2565b6000918252602080832090910192909255918252600188019052604090208390555b85548690806109b7576109b7610ad8565b600190038181906000526020600020016000905590558560010160008681526020019081526020016000206000905560019350505050610246565b6000915050610246565b600060208284031215610a0e57600080fd5b5035919050565b600060208284031215610a2757600080fd5b813563ffffffff8116811461083257600080fd5b6020808252825182820181905260009190848201906040850190845b81811015610a7357835183529284019291840191600101610a57565b50909695505050505050565b600060208284031215610a9157600080fd5b8151801515811461083257600080fd5b8181038181111561024657634e487b7160e01b600052601160045260246000fd5b634e487b7160e01b600052603260045260246000fd5b634e487b7160e01b600052603160045260246000fdfea26469706673582212205a4d9a71905bcb75f3575077b35d8bc95f2a4c892a48428f5c52967f2634d28164736f6c63430008110033",
  "devdoc": {
    "kind": "dev",
    "methods": {
      "addRestrictedWord(bytes32)": {
        "details": "Adds a word hash to the restricted words set.",
        "params": {
          "hash": "The hash of the word to add to the restriction list."
        }
      },
      "addTakedown(bytes32)": {
        "details": "Adds a hash to the takedown set.",
        "params": {
          "hash": "The hash to add to the takedown list."
        }
      },
      "addWhitelistCharacter(uint32)": {
        "details": "Adds a character to the whitelist.",
        "params": {
          "character": "The Unicode value of the character to whitelist."
        }
      },
      "constructor": {
        "details": "Constructor that initializes the name manager data store.",
        "params": {
          "_adminContractAddress": "The address of the admin contract."
        }
      },
      "getHashedRestrictedWords()": {
        "details": "Retrieves all word hashes from the restricted words set.",
        "returns": {
          "_0": "An array of all restricted word hashes."
        }
      },
      "getHashedTakenDownList()": {
        "details": "Retrieves all hashes from the takedown set.",
        "returns": {
          "_0": "An array of all takedown hashes."
        }
      },
      "isRestrictedWord(bytes32)": {
        "details": "Checks if a word hash is in the restricted words set.",
        "params": {
          "hash": "The hash of the word to check."
        },
        "returns": {
          "_0": "True if the hash is in the restricted set."
        }
      },
      "isTakedown(bytes32)": {
        "details": "Checks if a hash is in the takedown set.",
        "params": {
          "hash": "The hash to check."
        },
        "returns": {
          "_0": "True if the hash is in the takedown list."
        }
      },
      "isWhitelistCharacter(uint32)": {
        "details": "Checks if a character is whitelisted.",
        "params": {
          "character": "The Unicode value of the character to check."
        },
        "returns": {
          "_0": "True if the character is whitelisted."
        }
      },
      "removeRestrictedWord(bytes32)": {
        "details": "Removes a word hash from the restricted words set.",
        "params": {
          "hash": "The hash of the word to remove from the restriction list."
        }
      },
      "removeTakedown(bytes32)": {
        "details": "Removes a hash from the takedown set.",
        "params": {
          "hash": "The hash to remove from the takedown list."
        }
      },
      "removeWhitelistCharacter(uint32)": {
        "details": "Removes a character from the whitelist.",
        "params": {
          "character": "The Unicode value of the character to remove."
        }
      }
    },
    "title": "Data Storage for JFIN Name Service Name Management This contract handles storage and checks for whitelisted characters, takedown hashes, and restricted words within a decentralized naming service.",
    "version": 1
  },
  "userdoc": {
    "kind": "user",
    "methods": {},
    "version": 1
  },
  "storageLayout": {
    "storage": [
      {
        "astId": 30873,
        "contract": "jns-admin-contract/contracts/NameManagerDataStore.sol:NameManagerDataStore",
        "label": "whitelistCharacters",
        "offset": 0,
        "slot": "0",
        "type": "t_mapping(t_uint32,t_bool)"
      },
      {
        "astId": 30876,
        "contract": "jns-admin-contract/contracts/NameManagerDataStore.sol:NameManagerDataStore",
        "label": "takedownSet",
        "offset": 0,
        "slot": "1",
        "type": "t_struct(Bytes32Set)7019_storage"
      },
      {
        "astId": 30879,
        "contract": "jns-admin-contract/contracts/NameManagerDataStore.sol:NameManagerDataStore",
        "label": "restrictWordSet",
        "offset": 0,
        "slot": "3",
        "type": "t_struct(Bytes32Set)7019_storage"
      },
      {
        "astId": 30882,
        "contract": "jns-admin-contract/contracts/NameManagerDataStore.sol:NameManagerDataStore",
        "label": "adminContract",
        "offset": 0,
        "slot": "5",
        "type": "t_contract(IJNSAdminContract)30008"
      }
    ],
    "types": {
      "t_array(t_bytes32)dyn_storage": {
        "base": "t_bytes32",
        "encoding": "dynamic_array",
        "label": "bytes32[]",
        "numberOfBytes": "32"
      },
      "t_bool": {
        "encoding": "inplace",
        "label": "bool",
        "numberOfBytes": "1"
      },
      "t_bytes32": {
        "encoding": "inplace",
        "label": "bytes32",
        "numberOfBytes": "32"
      },
      "t_contract(IJNSAdminContract)30008": {
        "encoding": "inplace",
        "label": "contract IJNSAdminContract",
        "numberOfBytes": "20"
      },
      "t_mapping(t_bytes32,t_uint256)": {
        "encoding": "mapping",
        "key": "t_bytes32",
        "label": "mapping(bytes32 => uint256)",
        "numberOfBytes": "32",
        "value": "t_uint256"
      },
      "t_mapping(t_uint32,t_bool)": {
        "encoding": "mapping",
        "key": "t_uint32",
        "label": "mapping(uint32 => bool)",
        "numberOfBytes": "32",
        "value": "t_bool"
      },
      "t_struct(Bytes32Set)7019_storage": {
        "encoding": "inplace",
        "label": "struct EnumerableSet.Bytes32Set",
        "members": [
          {
            "astId": 7018,
            "contract": "jns-admin-contract/contracts/NameManagerDataStore.sol:NameManagerDataStore",
            "label": "_inner",
            "offset": 0,
            "slot": "0",
            "type": "t_struct(Set)6825_storage"
          }
        ],
        "numberOfBytes": "64"
      },
      "t_struct(Set)6825_storage": {
        "encoding": "inplace",
        "label": "struct EnumerableSet.Set",
        "members": [
          {
            "astId": 6820,
            "contract": "jns-admin-contract/contracts/NameManagerDataStore.sol:NameManagerDataStore",
            "label": "_values",
            "offset": 0,
            "slot": "0",
            "type": "t_array(t_bytes32)dyn_storage"
          },
          {
            "astId": 6824,
            "contract": "jns-admin-contract/contracts/NameManagerDataStore.sol:NameManagerDataStore",
            "label": "_indexes",
            "offset": 0,
            "slot": "1",
            "type": "t_mapping(t_bytes32,t_uint256)"
          }
        ],
        "numberOfBytes": "64"
      },
      "t_uint256": {
        "encoding": "inplace",
        "label": "uint256",
        "numberOfBytes": "32"
      },
      "t_uint32": {
        "encoding": "inplace",
        "label": "uint32",
        "numberOfBytes": "4"
      }
    }
  }
}