{
  "address": "0xc3eC05Bcb1b4498C8aaE92bF4f20931A74b54989",
  "abi": [
    {
      "inputs": [
        {
          "internalType": "string",
          "name": "_metaDataUri",
          "type": "string"
        }
      ],
      "stateMutability": "nonpayable",
      "type": "constructor"
    },
    {
      "inputs": [
        {
          "internalType": "uint256",
          "name": "tokenId",
          "type": "uint256"
        }
      ],
      "name": "uri",
      "outputs": [
        {
          "internalType": "string",
          "name": "",
          "type": "string"
        }
      ],
      "stateMutability": "view",
      "type": "function"
    }
  ],
  "transactionHash": "0x0c3c3bd335b6d9253a6267059136f99807957f7e83de8a8500336f66754874a0",
  "args": [
    "https://jns-metadata.testnet.jfinchain.com/name/"
  ],
  "numDeployments": 1,
  "solcInputHash": "16de868579f5f265b67830d866201f11",
  "bytecode": "0x608060405234801561001057600080fd5b5060405161060a38038061060a83398101604081905261002f91610058565b600061003b82826101aa565b5050610269565b634e487b7160e01b600052604160045260246000fd5b6000602080838503121561006b57600080fd5b82516001600160401b038082111561008257600080fd5b818501915085601f83011261009657600080fd5b8151818111156100a8576100a8610042565b604051601f8201601f19908116603f011681019083821181831017156100d0576100d0610042565b8160405282815288868487010111156100e857600080fd5b600093505b8284101561010a57848401860151818501870152928501926100ed565b600086848301015280965050505050505092915050565b600181811c9082168061013557607f821691505b60208210810361015557634e487b7160e01b600052602260045260246000fd5b50919050565b601f8211156101a557600081815260208120601f850160051c810160208610156101825750805b601f850160051c820191505b818110156101a15782815560010161018e565b5050505b505050565b81516001600160401b038111156101c3576101c3610042565b6101d7816101d18454610121565b8461015b565b602080601f83116001811461020c57600084156101f45750858301515b600019600386901b1c1916600185901b1785556101a1565b600085815260208120601f198616915b8281101561023b5788860151825594840194600190910190840161021c565b50858210156102595787850151600019600388901b60f8161c191681555b5050505050600190811b01905550565b610392806102786000396000f3fe608060405234801561001057600080fd5b506004361061002b5760003560e01c80630e89341c14610030575b600080fd5b61004361003e366004610210565b610059565b604051610050919061024d565b60405180910390f35b606060006100668361008d565b60405160200161007792919061029c565b6040516020818303038152906040529050919050565b6060600061009a8361012d565b600101905060008167ffffffffffffffff8111156100ba576100ba610346565b6040519080825280601f01601f1916602001820160405280156100e4576020820181803683370190505b5090508181016020015b600019017f3031323334353637383961626364656600000000000000000000000000000000600a86061a8153600a85049450846100ee57509392505050565b6000807a184f03e93ff9f4daa797ed6e38ed64bf6a1f0100000000000000008310610176577a184f03e93ff9f4daa797ed6e38ed64bf6a1f010000000000000000830492506040015b6d04ee2d6d415b85acef810000000083106101a2576d04ee2d6d415b85acef8100000000830492506020015b662386f26fc1000083106101c057662386f26fc10000830492506010015b6305f5e10083106101d8576305f5e100830492506008015b61271083106101ec57612710830492506004015b606483106101fe576064830492506002015b600a831061020a576001015b92915050565b60006020828403121561022257600080fd5b5035919050565b60005b8381101561024457818101518382015260200161022c565b50506000910152565b602081526000825180602084015261026c816040850160208701610229565b601f01601f19169190910160400192915050565b60008151610292818560208601610229565b9290920192915050565b600080845481600182811c9150808316806102b857607f831692505b602080841082036102d757634e487b7160e01b86526022600452602486fd5b8180156102eb57600181146103005761032d565b60ff198616895284151585028901965061032d565b60008b81526020902060005b868110156103255781548b82015290850190830161030c565b505084890196505b50505050505061033d8185610280565b95945050505050565b634e487b7160e01b600052604160045260246000fdfea2646970667358221220b804bf7c76c803fc0b97423e2da94b592a58b687daf654fbc815ef38a0c6df8d64736f6c63430008110033",
  "devdoc": {
    "kind": "dev",
    "methods": {},
    "version": 1
  },
  "userdoc": {
    "kind": "user",
    "methods": {},
    "version": 1
  },
  "storageLayout": {
    "storage": [
      {
        "astId": 28931,
        "contract": "contracts/wrapper/StaticMetadataService.sol:StaticMetadataService",
        "label": "baseUri",
        "offset": 0,
        "slot": "0",
        "type": "t_string_storage"
      }
    ],
    "types": {
      "t_string_storage": {
        "encoding": "bytes",
        "label": "string",
        "numberOfBytes": "32"
      }
    }
  }
}